S01200004C61625F546573745F342E7372656371
S11300000C94F7000C9416010C9416010C94160130
S11300100C9416010C9416010C9416010C94160100
S11300200C9416010C9416010C9416010C941601F0
S11300300C9416010C9416010C9416010C941601E0
S11300400C9416010C9416010C9416010C941601D0
S11300500C9416010C9416010C9416010C941601C0
S11300600C9416010C9416010C9416010C941601B0
S11300700C9416010C9416010C9416010C941601A0
S11300800C9416010C9416010C9416010C94160190
S11300900C9416010C9416010C9416010C94160180
S11300A00C9416010C9416010C9416010C94160170
S11300B00C9416010C944B030C9416010C94F4024A
S11300C00C9416010C9416010C9416010C94160150
S11300D00C9416010C9416010C9416010C94160140
S11300E00C9416010C9416010C9416010C94160130
S11300F00C94160100407A10F35A00A0724E1809AD
S11301000010A5D4E80000E87648170000E40B547A
S1130110020000CA9A3B000000E1F5050000809649
S11301209800000040420F000000A086010000007B
S1130130102700000000E803000000006400000035
S113014000000A00000000000100000000002C76FE
S1130150D888DC674F0823DFC1DFAE59E1B1B79619
S1130160E5E3E453C63AE651997696E8E6C2842676
S1130170EB898C9B62ED407C6FFCEFBC9C9F40F252
S1130180BAA56FA5F490055A2AF75C936B6CF967CE
S11301906DC11BFCE0E40D47FEF520E6B500D0ED93
S11301A0902E0300943577050080841E08000020FB
S11301B04E0A000000C80C333333330F986E128399
S11301C01141EF8D2114893BE65516CFFEE6DB186D
S11301D0D1844B381BF77C1D901DA4BBE424203232
S11301E084725E228100C9F124ECA1E53D2711242B
S11301F01FBECFEFCDBFDFE7DEBF10E4A0E0B0E469
S1130200E8E6FBE100E00BBF02C007900D92A635C3
S1130210B107D9F720E4A6E5B0E401C01D92A83BDC
S1130220B207E1F70E9478010C94B20D0C9400001F
S113023088ED84BFE0E6F0E095E090A384BF83E01E
S113024080838091650084FFFCCF0895E0E0FAE0AC
S113025083E081838081846080838FEF9FE086A325
S113026097A314A615A6818180648183A0EEB5E0CE
S113027016968C911697826016968C93A0E4B4E03F
S113028011968C911197846011968C938081816072
S113029080830895E0E4FAE011828081866080839F
S11302A08FEC97E086A397A381E0828780818160A9
S11302B080830895E0E0F6E088E0808782E082832E
S11302C080E2838385E08093B00081E08083809125
S11302D00A0680FDFCCF089581E080930A06089504
S11302E060E088E40E94BC0388E40E94C803089587
S11302F0CF93DF9300D0CDB7DEB70E9418010E94E0
S11303004A010E9426010E945A010E940304E0E06F
S1130310F4E082898860828B83898860838B20E003
S113032030E040E855E260E070E083E00E94BC0504
S1130330789480915E4090915F40883C910508F4E8
S113034088C00E946C010E944F0410925E4010927B
S11303505F400E94700180935740682F70E080E0F6
S113036090E00E94F2068E010F5F1F4F20E042E0F2
S11303700E940F0880915C4090915D40209158400C
S11303801F922F93209101402F93209100402F938F
S11303909F938F93809157401F928F9380E190E4B5
S11303A09F938F930E94710880915640CDBFDEBF0A
S11303B0811105C08DE190E40E94850814C081304C
S11303C029F482E290E40E9485080DC0823029F469
S11303D089E290E40E94850806C0833021F48DE20E
S11303E090E40E94850885E390E40E945904CE01BC
S11303F001960E9459048CE390E40E945904809170
S11304005840882321F08EE390E40E945904198215
S11304101A826091004070910140072E000C880BF5
S1130420990B0E94F4068E010F5F1F4F20E042E0FB
S11304300E940F0861E080E00E94730481E490E46C
S11304400E945904C8010E9459048CE390E40E945C
S11304505904809159408130E1F4359B1AC01092BF
S1130460594080915840809580935840882349F0A2
S113047040E850E061E070E088E490E00E94D4033A
S113048008C040E050E061E070E088E490E00E9441
S1130490D403609110067091110680E090E00E94F0
S11304A0F20620E030E040E859E30E94800720E0B3
S11304B030E040E051E40E94800720E030E040EB6F
S11304C051E40E94DE050E94BC069B01609300403B
S11304D07093014080915640811111C01092564092
S11304E010923C0A10923D0A8091574090E0821786
S11304F093070CF41ECF81E0809356401ACF8130CD
S113050051F580915C4090915D40803D9740D8F4D6
S113051060915C4070915D4080E090E00E94F20642
S113052020E030E04AEF54E40E944A0620E030E242
S11305304BE155E40E9480070E94C30660933C0A85
S113054070933D0AF6CE10925C4010925D4082E0BA
S113055080935640EECE823099F48093564081EBDE
S113056099E080933C0A90933D0A8091574090E033
S1130570821793070CF0DDCE83E080935640D9CEEA
S1130580833009F0D6CE80915C4090915D40803DEF
S1130590974018F560915C4070915D4080E090E078
S11305A00E94F2069B01AC0160E070E08AEF94E4E3
S11305B00E94DD0520E030E04AEF54E40E944A0640
S11305C020E030E24BE155E40E9480070E94C3061C
S11305D060933C0A70933D0AACCE10925C4010923A
S11305E05D4010925640A5CE1F920F920FB60F9207
S11305F011240BB60F922F938F939F93EF93FF9336
S113060080915E4090915F4080915E4090915F4008
S1130610019680935E4090935F408091564088237A
S113062079F0823069F080915C4090915D408091D6
S11306305C4090915D40019680935C4090935D4056
S113064080915A4090915B40019649F080915A40C4
S113065090915B40019680935A4090935B408091C7
S11306605A4090915B40C29728F0359903C081E0CD
S113067080935940E0E4FAE0838581608387FF91A9
S1130680EF919F918F912F910F900BBE0F900FBE02
S11306900F901F9018951F920F920FB60F9211246E
S11306A00BB60F928F939F93EF93FF93809129043E
S11306B085FF0FC0E0E2F4E081858062818780914C
S11306C05A4090915B40C29720F010925A40109289
S11306D05B40FF91EF919F918F910F900BBE0F9014
S11306E00FBE0F901F901895E0E0F9E084818360BD
S11306F084830895CF93DF93D82FC62F8D2F90E056
S1130700880F991F8C2B80930709C11102C026E022
S113071001C027E08091050990E0022E02C0959562
S113072087950A94E2F780FFF5CF8091050984FD4F
S11307300E947403809105098C7001F7DF91CF91B9
S11307400895809308098091050986FFFCCF809164
S113075005098C7019F08FEF9FEF089580E090E009
S11307600895809105098823E4F7E0E0F9E08085A5
S11307709481946094830895CF93C62F60E00E947F
S11307807A038C2F0E94A1030E947403CF910895D1
S1130790CF9361E00E947A030E94B103C82F0E94A4
S11307A074038C2FCF9108951F93CF93DF93C62F9B
S11307B0142F60E00E947A038C2F0E94A103EC01A5
S11307C0812F0E94A103C82BD92B0E947403CE0150
S11307D0DF91CF911F910895E0E0F9E083E28683F1
S11307E08381816083838581816085830895482F17
S11307F060E88EE30E94D4030895482F60E48EE3FA
S11308000E94D40308950E94EC0340E06FE28BE65B
S11308100E94D40387EC90E00197F1F700C0000038
S113082040E260E08BE60E94D40387EC90E00197FD
S1130830F1F700C000004FEF64E08BE60E94D403A0
S113084087EC90E00197F1F700C0000040E067E01A
S11308508BE60E94D4038FE59AEE0197F1F700C06E
S113086000008CE00E94F70395E39A95F1F70000ED
S113087088E30E94F70385E38A95F1F7000081E09D
S11308800E94F7038FE39FE10197F1F700C0000096
S113089086E00E94F70308950E94FD03089581E015
S11308A00E94F7038FE39FE10197F1F700C0000076
S11308B008950F931F93CF93DF938C01C0E0D0E092
S11308C007C00E944C0485EE8A95F1F7000021963A
S11308D0F801EC0FFD1F80818111F3CFDF91CF91DF
S11308E01F910F910895611102C0806801C0806C4E
S11308F00E94F7030895CF93DF93811106C081E02E
S113090080930104C0E0D8E019C0813029F48093B9
S11309104104C0E2D8E012C0823031F481E0809317
S1130920A104C0E4D8E00AC0833031F481E08093AC
S11309302104C0E6D8E002C0C0E0D0E0DB01CA0177
S1130940880F991FAA1FBB1F880F991FAA1FBB1FBF
S11309509C01AD01220F331F441F551F220F331F6B
S1130960441F551F60E070E089E09DE30E94ED079D
S1130970288739878E81806C8E83CE01DF91CF9159
S11309800895FC0162830895FC01948195FFFDCFD5
S11309900895FC0194819923ECF7808190E00895F7
S11309A00F931F93CF93C82F8B01873069F4209145
S11309B0B6403091B74047E050E061E070E08DE42C
S11309C090E40E942F080FC08A3019F48DE00E9431
S11309D0D004F80104851585C8010E94C4046C2F55
S11309E0C8010E94C10480E090E0CF911F910F9153
S11309F00895EF92FF920F931F93CF93DF9320916B
S1130A00B0403091B140232B09F09AC08C01C0E66C
S1130A10D0E4F801848595850E94C9048D3009F4D9
S1130A208AE08A3059F48883B8010E94D00480E6B1
S1130A3090E48093B0409093B14082C0893009F42F
S1130A4080E290EE980F9F3510F0803A98F0F0E431
S1130A50CF3ADF0729F4B80187E00E94D004D9CF48
S1130A607E019FEFE91AF90A8883B8010E94D00435
S1130A70E701CFCF823119F130F4833009F473C028
S1130A80883049F0C6CF873109F44EC08F3719F04A
S1130A908531B9F1BECFE0E4C036DE0709F008F4D1
S1130AA0B8CFB80188E00E94D004B80180E20E9467
S1130AB0D004B80188E00E94D0042197AACFB801DD
S1130AC08DE00E94D0040F2EF0E6EF2EF0E4FF2E0E
S1130AD0F02D06C0B801F70181917F010E94D00476
S1130AE0EC16FD06B8F395CFB80188E00E94D00457
S1130AF0B80180E20E94D004B80188E00E94D004CA
S1130B002197F0E4C036DF0709F070F782CFB8010F
S1130B1088E00E94D004B80180E20E94D004B801A9
S1130B2088E00E94D004219780E4C036D80709F0F9
S1130B3008F46FCFFE0131978081803241F769CF8D
S1130B40E091B040F091B140CF0101968093B04064
S1130B509093B14080818A3021F41092B040109279
S1130B60B14090E002C08FEF9FEFDF91CF911F91D2
S1130B700F91FF90EF900895CF93DF93E9012097B1
S1130B8049F09EE0E2E0F0E4D90101900D929A95DB
S1130B90E1F70BC0E2EBF0E422E030E4228333839C
S1130BA02083318324833583E9010E947B048C876D
S1130BB09D87CE01DF91CF9108955058BB27AA2776
S1130BC00E94F5050C9446070E94380738F00E94ED
S1130BD03F0720F039F49F3F19F426F40C943507AD
S1130BE00EF4E095E7FB0C942F07E92F0E945707BA
S1130BF058F3BA17620773078407950720F079F44E
S1130C00A6F50C9479070EF4E0950B2EBA2FA02DBF
S1130C100B01B90190010C01CA01A0011124FF27A5
S1130C20591B99F0593F50F4503E68F11A16F040A0
S1130C30A22F232F342F4427585FF3CF469537959F
S1130C402795A795F0405395C9F77EF41F16BA0B64
S1130C50620B730B840BBAF09150A1F0FF0FBB1F12
S1130C60661F771F881FC2F70EC0BA0F621F731F5B
S1130C70841F48F4879577956795B795F7959E3FB8
S1130C8008F0B0CF9395880F08F09927EE0F979549
S1130C90879508950E945E060C9446070E943F07BC
S1130CA058F00E94380740F029F45F3F29F00C9473
S1130CB02F0751110C947A070C9435070E9457079B
S1130CC068F39923B1F3552391F3951B550BBB2777
S1130CD0AA2762177307840738F09F5F5F4F220FBC
S1130CE0331F441FAA1FA9F335D00E2E3AF0E0E8B3
S1130CF032D091505040E695001CCAF72BD0FE2FFD
S1130D0029D0660F771F881FBB1F26173707480790
S1130D10AB07B0E809F0BB0B802DBF01FF27935848
S1130D205F4F3AF09E3F510578F00C942F070C94D6
S1130D307A075F3FE4F3983ED4F3869577956795F9
S1130D40B795F7959F5FC9F7880F911D969587957D
S1130D5097F90895E1E0660F771F881FBB1F62179C
S1130D6073078407BA0720F0621B730B840BBA0B5A
S1130D70EE1F88F7E09508950E94C3066894B111A8
S1130D800C947A0708950E945F0788F09F5798F0A3
S1130D90B92F9927B751B0F0E1F0660F771F881F7C
S1130DA0991F1AF0BA95C9F714C0B13091F00E9496
S1130DB07907B1E008950C947907672F782F882775
S1130DC0B85F39F0B93FCCF3869577956795B395BD
S1130DD0D9F73EF490958095709561957F4F8F4F2C
S1130DE09F4F0895E89409C097FB3EF49095809531
S1130DF0709561957F4F8F4F9F4F9923A9F0F92FDD
S1130E0096E9BB279395F695879577956795B7955A
S1130E10F111F8CFFAF4BB0F11F460FF1BC06F5F40
S1130E207F4F8F4F9F4F16C0882311F096E911C052
S1130E30772321F09EE8872F762F05C0662371F073
S1130E4096E8862F70E060E02AF09A95660F771F87
S1130E50881FDAF7880F9695879597F9089597F97B
S1130E609F6780E870E060E008959FEF80EC08954C
S1130E7000240A9416161706180609060895002475
S1130E800A9412161306140605060895092E0394EF
S1130E90000C11F4882352F0BB0F40F4BF2B11F463
S1130EA060FF04C06F5F7F4F8F4F9F4F089557FDC2
S1130EB09058440F551F59F05F3F71F04795880FC4
S1130EC097FB991F61F09F3F79F08795089512165B
S1130ED013061406551FF2CF4695F1DF08C0161607
S1130EE017061806991FF1CF8695710561050894B8
S1130EF00895E894BB2766277727CB0197F90895CF
S1130F000E9493070C9446070E94380738F00E9409
S1130F103F0720F0952311F00C942F070C9435070C
S1130F2011240C947A070E94570770F3959FC1F31C
S1130F30950F50E0551F629FF001729FBB27F00D83
S1130F40B11D639FAA27F00DB11DAA1F649F6627D8
S1130F50B00DA11D661F829F2227B00DA11D621F27
S1130F60739FB00DA11D621F839FA00D611D221FE1
S1130F70749F3327A00D611D231F849F600D211DC5
S1130F80822F762F6A2F11249F5750409AF0F1F048
S1130F9088234AF0EE0FFF1FBB1F661F771F881FB1
S1130FA091505040A9F79E3F510580F00C942F07B3
S1130FB00C947A075F3FE4F3983ED4F386957795D3
S1130FC06795B795F795E7959F5FC1F7FE2B880F57
S1130FD0911D9695879597F90895A1E21A2EAA1B5B
S1130FE0BB1BFD010DC0AA1FBB1FEE1FFF1FA217D5
S1130FF0B307E407F50720F0A21BB30BE40BF50BD2
S1131000661F771F881F991F1A9469F7609570955A
S1131010809590959B01AC01BD01CF010895EF929D
S11310200F931F93CF93DF93E80147FD02C034E091
S113103001C034E1042E000C550B57FF03C0519539
S113104041955109E32E022F242FAE010E94B90AC3
S1131050CE01DF91CF911F910F91EF9008958F9260
S11310609F92AF92BF92CF92DF92EF92FF920F9333
S11310701F93CF93DF935B014A017901D901139642
S11310802C9121FF1DC0C0E0D0E0C815D905D9F0CE
S11310908C016C01CA0CDB1CC8010C151D0571F018
S11310A00F5F1F4FD7011896ED91FC911997B70167
S11310B0DC018C910995892B79F305C02196E5CF44
S11310C080E090E001C0CE01DF91CF911F910F919C
S11310D0FF90EF90DF90CF90BF90AF909F908F9054
S11310E00895CF93DF93CDB7DEB7AE014B5F5F4F6B
S11310F0FA0161917191AF018091B4409091B54032
S11311000E94B508DF91CF9108950F931F93CF9359
S1131110DF93E091B440F091B540238121FF1BC0DF
S11311208C01D0E0C0E0F80181918F016091B4405E
S11311307091B540DB011896ED91FC9119978823C5
S113114031F00995892B79F3DFEFCFEFECCF8AE00B
S11311500995892B19F08FEF9FEF02C08D2F9C2FDB
S1131160DF91CF911F910F9108952F923F924F924B
S11311705F926F927F928F929F92AF92BF92CF9223
S1131180DF92EF92FF920F931F93CF93DF93CDB72C
S1131190DEB72B97CDBFDEBF6C017B018A01FC015A
S11311A016821782838181FFCCC1CE0101963C0156
S11311B0F6019381F70193FD859193FF81917F015E
S11311C0882309F4BAC1853239F493FD859193FFDC
S11311D081917F01853229F4B60190E00E94180DB7
S11311E0E7CF912C212C312CFFE1F315D8F08B3271
S11311F079F038F4803279F08332A1F4232D206120
S11312001DC08D3261F0803369F4232D216016C036
S1131210832D8260382EE32DE4603E2E2AC0F32D08
S1131220F8601DC037FC2DC020ED280F2A3040F097
S11312308E32B9F436FC81C1232D2064322E19C0BC
S113124036FE06C08AE0989E200D1124922E11C00D
S1131250EAE02E9E200D1124222EF32DF0623F2E63
S113126008C08C3621F4832D8068382E02C088365D
S113127041F4F70193FD859193FF81917F018111E1
S1131280B3CF982F9F7D9554933028F40C5F1F4F54
S11312909FE399830DC0833631F0833771F0833532
S11312A009F059C021C0F801808189830E5F1F4F66
S11312B088248394912C530113C02801F2E04F0E2B
S11312C0511CF801A080B18036FE03C0692D70E086
S11312D002C06FEF7FEFC5010E940D0D4C0182012A
S11312E0F32DFF773F2E16C0280122E0420E511C39
S11312F0F801A080B18036FE03C0692D70E002C001
S11313006FEF7FEFC5010E94020D4C01F32DF068D1
S11313103F2E820133FC1BC0822D90E08816990673
S1131320B0F4B60180E290E00E94180D2A94F4CF44
S1131330F50137FC859137FE81915F01B60190E09C
S11313400E94180D21102A9421E0821A9108811418
S1131350910471F7E8C0843611F0893641F5F8013B
S113136037FE07C060817181828193810C5F1F4FBA
S113137008C060817181072E000C880B990B0E5FE9
S11313801F4FF32DFF763F2E97FF09C09095809550
S1131390709561957F4F8F4F9F4FF0683F2E2AE0E5
S11313A030E0A3010E94540D882E861845C085376D
S11313B031F4232D2F7EB22E2AE030E025C0932D68
S11313C0997FB92E8F36C1F018F4883579F0B5C0FD
S11313D0803719F0883721F0B0C0E92FE061BE2EC4
S11313E0B4FE0DC0FB2DF460BF2E09C034FE0AC04C
S11313F0292F2660B22E06C028E030E005C020E187
S113140030E002C020E132E0F801B7FE07C060819D
S11314107181828193810C5F1F4F06C0608171814D
S113142080E090E00E5F1F4FA3010E94540D882EB0
S11314308618FB2DFF773F2E36FE0DC0232D2E7F01
S1131440A22E891458F434FE0BC032FC09C0832D3B
S11314508E7EA82E05C0B82CA32C03C0B82C01C0C6
S1131460B92CA4FE0FC0FE01E80DF11D808180336C
S113147021F49A2D997EA92E09C0A2FE06C0B39428
S1131480B39404C08A2D867809F0B394A3FC11C0E8
S1131490A0FE06C0B21488F4280C922C9B180EC02F
S11314A0B21460F4B60180E290E00E94180DB39487
S11314B0F7CFB21418F42B1802C0982C212CA4FED8
S11314C010C0B60180E390E00E94180DA2FE17C080
S11314D0A1FC03C088E790E002C088E590E0B60173
S11314E00CC08A2D867859F0A1FE02C08BE201C09F
S11314F080E2A7FC8DE2B60190E00E94180D8914E9
S113150038F4B60180E390E00E94180D9A94F7CF66
S11315108A94F301E80DF11D8081B60190E00E94E8
S1131520180D8110F5CF222009F442CEB60180E2D5
S113153090E00E94180D2A94F6CFF60186819781D7
S113154002C08FEF9FEF2B96CDBFDEBFDF91CF910F
S11315501F910F91FF90EF90DF90CF90BF90AF90CD
S11315609F908F907F906F905F904F903F902F90BF
S113157008958F929F92AF92BF92CF92DF92EF9293
S1131580FF920F931F93CF93DF93CDB7DEB72997C5
S1131590CDBFDEBF6A01122FB02E2BE3201720F03F
S11315A0FF24F394F00E02C02CE3F22E0F2D27E05B
S11315B0AE014F5F5F4F0E942A0CBC014981842F0A
S11315C08970813031F0E1FC06C0E0FE06C090E293
S11315D005C09DE203C09BE201C090E05E2D507106
S11315E043FF3CC0911102C083E001C084E0811735
S11315F018F4212F281B01C020E051110BC0F60163
S1131600822F30E2882319F031938150FBCFC20E30
S1131610D11C20E0992329F0D6019C93F601319640
S11316206F01C6010396E2FE0AC03EE4D6013C9374
S113163041E411964C93119712963C9306C03EE6F2
S1131640F601308341E641833283FC01322F40E2CC
S1131650332309F442C041933150FACF42FF44C0CE
S1131660911102C083E001C084E0811718F4212F96
S1131670281B01C020E051110BC0F601822F30E27B
S1131680882319F031938150FBCFC20ED11C20E086
S1131690992329F0D6019C93F60131966F01C60176
S11316A00396E2FE0BC039E4D6013C933EE4119666
S11316B03C93119736E412963C9307C039E6F60141
S11316C030833EE6318336E63283FC01322F40E23A
S11316D0332319F041933150FBCFFC01E20FF11D8C
S11316E010828EEF9FEFA6C021E030E0911102C07E
S11316F020E030E0161617061CF4FB01319602C0F8
S1131700E1E0F0E02E0F3F1FBB2021F0EB2DF0E0D5
S1131710319602C0E0E0F0E02E0F3F1FE12FF0E031
S11317202E173F071CF4121B212F01C020E08E2D21
S1131730887159F4F601822F30E2882319F031932D
S11317408150FBCFC20ED11C20E0992329F0D60191
S11317509C93F60131966F0151110BC0F601822F53
S113176090E3882319F091938150FBCFC20ED11CD2
S113177020E00F2D060F9A81342F307144FF03C0EF
S1131780913309F40150101624F4093018F008E0DC
S113179001C001E0AB0177FF02C040E050E0FB0173
S11317A0E41BF50BA1E0B0E0AC0FBD1FEA0FFB1F7B
S11317B08EE2A82E4B01801A91080B2D10E0119592
S11317C0019511094F3FBFEF5B0721F4D601AC929D
S11317D011966D01641775072CF08416950614F4A0
S11317E0818101C080E3415051093196D60111969F
S11317F07D014017510724F0D6018C936701E2CF95
S11318006417750739F4963320F4953319F43111BC
S113181001C081E3F6018083F701822F90E28823DF
S113182019F091938150FBCFF701E20FF11D108263
S113183080E090E02996CDBFDEBFDF91CF911F916C
S11318400F91FF90EF90DF90CF90BF90AF909F905B
S11318508F900895283008F027E03327DA01990F94
S1131860311D87FD916000966105710539F4326080
S11318702E5F3D9330E32A95E1F708959F3F30F0C2
S113188080387105610509F03C5F3C5F3D93913000
S113189008F08068911DDF93CF931F930F93FF92FD
S11318A0EF92192F987F9695E92F96959695E90FC3
S11318B0FF27E25BFE4F99273327EE24FF24A7017D
S11318C0E70105900894079428F4360FE71EF81EE4
S11318D0491F511D660F771F881F991F0694A1F792
S11318E00590079428F4E70EF81E491F561FC11DE2
S11318F0770F881F991F661F0694A1F70590079418
S113190028F4F80E491F561FC71FD11D880F991FB1
S1131910661F771F0694A1F70590079420F4490FDA
S1131920561FC71FD81F990F661F771F881F06945D
S1131930A9F784911095177041F0D695C7955795DE
S11319404795F794E7941A95C1F7E4EFF0E06894AB
S11319501590159135916591959105907FE2739558
S1131960E118F10A430B560BC90BD009C0F7E10C7F
S1131970F11E431F561FC91FD01D7EF4703311F48E
S11319808A95E6CFE894015030F0080F0AF4002756
S1131990021708F4202F2395022F7A3328F079E3D5
S11319A07D932A95E9F710C07D932A9589F60694CC
S11319B097956795379517951794E118F10A430B96
S11319C0560BC90BD00998F023957E9173957A3301
S11319D008F070E37C932013B8F77E9170617D93D7
S11319E030F0839571E37D9370E32A95E1F7112438
S11319F0EF90FF900F911F91CF91DF91992787FD71
S1131A0090950895FC010590615070400110D8F73D
S1131A10809590958E0F9F1F0895FC016150704032
S1131A2001900110D8F7809590958E0F9F1F08950F
S1131A300F931F93CF93DF93FB01238121FD03C0F9
S1131A408FEF9FEF2CC022FF16C04681578124815F
S1131A5035814217530744F4A081B1819D012F5F62
S1131A603F4F208331838C93268137812F5F3F4FF3
S1131A702683378314C08B01EC01FB010084F185BC
S1131A80E02D0995892BE1F6D80116968D919C914C
S1131A901797019616968D939C931797CE01DF9115
S1131AA0CF911F910F910895FA01AA27283051F17F
S1131AB0203181F1E8946F936E7F6E5F7F4F8F4F7B
S1131AC09F4FAF4FB1E03ED0B4E03CD0670F781FDA
S1131AD0891F9A1FA11D680F791F8A1F911DA11DBF
S1131AE06A0F711D811D911DA11D20D009F46894F8
S1131AF03F912AE0269F11243019305D3193DEF6A0
S1131B00CF010895462F4770405D4193B3E00FD055
S1131B10C9F7F6CF462F4F70405D4A3318F0495D40
S1131B2031FD4052419302D0A9F7EACFB4E0A69523
S1131B309795879577956795BA95C9F70097610545
S1131B40710508959B01AC010A2E0694579547959B
S1131B5037952795BA95C9F7620F731F841F951F90
S10B1B60A01D0895F894FFCFC5
S1131B6818000000000300000000D004F90400007D
S1131B78256420256420256420256409007A65727B
S1131B886F00726973696E6700746F700066616CC8
S1131B986C696E6700544337343A20004300202AA6
S1131BA8005468726573686F6C643A20002A72691D
S1091BB86E672A0A00001A
S9030000FC
