:100000000C947A000C9484000C9484000C9484006A
:100010000C9484000C9484000C9484000C94840050
:100020000C9484000C9484000C9484000C94840040
:100030000C9484000C9484000C9484000C94840030
:100040000C9484000C9484000C9484000C94840020
:100050000C9484000C9484000C9484000C94840010
:100060000C9484000C9484000C9484000C94840000
:100070000C9484000C9484000C9484000C948400F0
:100080000C9484000C9484000C9484000C948400E0
:100090000C9484000C9484000C9484000C948400D0
:1000A0000C9484000C9484000C9484000C948400C0
:1000B0000C9484000C9484000C9484000C948400B0
:1000C0000C9484000C9484000C9484000C948400A0
:1000D0000C9484000C9484000C9484000C94840090
:1000E0000C9484000C9484000C9484000C94840080
:1000F0000C94840011241FBECFEFCDBFDFE7DEBF1D
:100100000E94D9000C94E6000C94000040E050E0FE
:1001100023C09DB121E030E0082E02C0220F331F22
:100120000A94E2F7922B9DB96FE37DE093E0615072
:1001300070409040E1F700C000009DB12095292358
:100140002DB92FE33DE063E0215030406040E1F7FE
:1001500000C000004F5F5F4F44305105D4F240E0D3
:1001600050E023C09DB121E030E0082E02C0220FF4
:10017000331F0A94E2F7922B9DB97FE996E861E07C
:10018000715090406040E1F700C000009DB12095A3
:1001900029232DB97FE996E821E071509040204055
:1001A000E1F700C000004F5F5F4F48305105D4F2C7
:1001B00008958FEF8CB91DB8C0E001C0C0E08C2F4E
:1001C0000E948600CF5FC830C8F7F9CFF894FFCF00
:00000001FF
