S0120000454550524F4D5F4C61622E73726563DC
S11300000C947A000C9499000C9499000C94990027
S11300100C9499000C9499000C9499000C949900F8
S11300200C9499000C9499000C9499000C949900E8
S11300300C9499000C9499000C9499000C949900D8
S11300400C9499000C9499000C9499000C949900C8
S11300500C9499000C9499000C9499000C949900B8
S11300600C9499000C9499000C9499000C949900A8
S11300700C9499000C9499000C9499000C94990098
S11300800C9499000C9499000C9499000C94990088
S11300900C9499000C9499000C9499000C94990078
S11300A00C9499000C9499000C9499000C94990068
S11300B00C9499000C9499000C9499000C94990058
S11300C00C9499000C9499000C9499000C94990048
S11300D00C9499000C9499000C9499000C94990038
S11300E00C9499000C9499000C9499000C94990028
S11300F00C94990011241FBECFEFCDBFDFE7DEBF04
S113010010E4A0E0B0E4E0EAF0E100E00BBF02C0DC
S113011007900D92A03DB107D9F721E4A0EDB0E41A
S113012001C01D92A932B207E1F70E944E010C945E
S11301304E080C94000088ED84BFE0E6F0E095E002
S113014090A384BF83E080838091650084FFFCCF0B
S11301500895A89588EDA89584BF809100018B60CF
S1130160809300018091010181FDFCCF08950F93DC
S11301701F93CF938C01C62F80E090E00E94E70785
S11301804C2F50E061E070E0C8010E94B307CF91AA
S11301901F910F9108950F931F93CF938C0180E0CB
S11301A090E00E94DF07C82F0115110539F0482F90
S11301B050E061E070E0C8010E94DB078C2FCF9112
S11301C01F910F910895CF93DF93EC014091234148
S11301D05091244160E170E00E94090480E08F5F47
S11301E0FE01E80FF11D90819A3011F08F30B8F3C1
S11301F0282F30E006C0FE01E20FF31F10822F5FAC
S11302003F4F20313105BCF3DF91CF9108951F9307
S1130210CF93DF93CDB7DEB76097CDBFDEBF89E163
S113022090E49F938F930E94B904CE0101960E949B
S1130230E300182F60912541709126418AE090E0F7
S11302400E943B04612FCE0101960E94B7000F90DB
S11302500F906096CDBFDEBFDF91CF911F910895BF
S1130260CF93DF93CDB7DEB7EF97CDBFDEBF2FE3DC
S1130270E2E3F0E4DE01119601900D922A95E1F794
S113028021E030E02C0F3D1F820F931FFC01808181
S1130290EF96CDBFDEBFDF91CF910895CF93DF936B
S11302A0CDB7DEB7A097CDBFDEBFA89588EDA895E2
S11302B084BF80910001807F809300010E949B0095
S11302C020E030E040E855E260E070E083E00E9426
S11302D0370378948091400083FF26C081E790E43F
S11302E00E94CD0400E010E011C00E94ED036EE313
S11302F070E00E9458030E943001E1E1F0E0EC0F4D
S1130300FD1FE00FF11F80830F5F1F4F00311105A8
S113031064F318A260E1CE0141960E94B700E0E4C4
S1130320F0E0808188608083CE0101960E94CB003A
S1130330182F8F3F39F481E890E40E94CD040E9485
S1130340070150C083E990E40E94CD043FC087EACE
S113035090E49F938F930E94B904CE0141960E942A
S1130360E300082F60912541709126418AE090E0D6
S11303700E943B04412F50E0BE016F5E7F4FCE01CF
S113038001960E94FC030F900F90009729F4101718
S113039029F081E090E002C081E090E08093044085
S11303A08823C1F088EB90E40E94CD04FE0171968D
S11303B080E1DF011D928A95E9F78091D040811197
S11303C005C00E94A90081E08093D0408091044040
S11303D08111BDCF88EDA89584BF80910001807FF5
S11303E0809300018FEF84B915B8FFCFCF93DF93CB
S11303F0811106C081E080930104C0E0D8E019C0F7
S1130400813029F480934104C0E2D8E012C08230E4
S113041031F481E08093A104C0E4D8E00AC08330C1
S113042031F481E080932104C0E6D8E002C0C0E04A
S1130430D0E0DB01CA01880F991FAA1FBB1F880FD8
S1130440991FAA1FBB1F9C01AD01220F331F441F1C
S1130450551F220F331F441F551F60E070E089E0D1
S11304609DE30E946C03288739878E81806C8E837C
S1130470CE01DF91CF910895FC0162830895FC01C0
S1130480948195FFFDCF0895FC0194819923ECF7A5
S1130490808190E008950F931F93CF93C82F8B0111
S11304A0873069F4209127413091284147E050E09A
S11304B061E070E087EC90E40E9477040FC08A301A
S11304C019F48DE00E944B02F80104851585C801DA
S11304D00E943F026C2FC8010E943C0280E090E021
S11304E0CF911F910F910895EF92FF920F931F9355
S11304F0CF93DF932091214130912241232B09F0A6
S11305009AC08C01C1EDD0E4F801848595850E94E0
S113051044028D3009F48AE08A3059F48883B801A2
S11305200E944B0281ED90E48093214190932241FB
S113053082C0893009F480E290EE980F9F3510F064
S1130540803A98F0F1E4C032DF0729F4B80187E07B
S11305500E944B02D9CF7E019FEFE91AF90A8883E2
S1130560B8010E944B02E701CFCF823119F130F478
S1130570833009F473C0883049F0C6CF873109F459
S11305804EC08F3719F08531B9F1BECFE0E4C13DDB
S1130590DE0709F008F4B8CFB80188E00E944B02E6
S11305A0B80180E20E944B02B80188E00E944B022D
S11305B02197AACFB8018DE00E944B020F2EF1EDD6
S11305C0EF2EF0E4FF2EF02D06C0B801F701819163
S11305D07F010E944B02EC16FD06B8F395CFB801DB
S11305E088E00E944B02B80180E20E944B02B801ED
S11305F088E00E944B022197F0E4C13DDF0709F037
S113060070F782CFB80188E00E944B02B80180E203
S11306100E944B02B80188E00E944B02219780E4BB
S1130620C13DD80709F008F46FCFFE0131978081EE
S1130630803241F769CFE0912141F0912241CF010D
S11306400196809321419093224180818A3021F444
S1130650109221411092224190E002C08FEF9FEF4F
S1130660DF91CF911F910F91FF90EF900895CF9359
S1130670DF93E901209749F09EE0E5E0F0E4D90139
S113068001900D929A95E1F70BC0E3E2F1E425E0C5
S113069030E4228333832083318324833583E90147
S11306A00E94F6018C879D87CE01DF91CF9108953A
S11306B097FB072E16F4009407D077FD09D00E940B
S11306C08E0307FC05D03EF4909581959F4F0895C5
S11306D0709561957F4F0895A1E21A2EAA1BBB1B4A
S11306E0FD010DC0AA1FBB1FEE1FFF1FA217B307FA
S11306F0E407F50720F0A21BB30BE40BF50B661F10
S1130700771F881F991F1A9469F7609570958095D3
S113071090959B01AC01BD01CF010895AA1BBB1BA1
S113072051E107C0AA1FBB1FA617B70710F0A61BED
S1130730B70B881F991F5A95A9F780959095BC010E
S1130740CD0108958F929F92AF92BF92CF92DF9284
S1130750EF92FF92CF93DF93EC01688179818A81D4
S11307609B81611571058105910521F464E279EDA0
S11307708BE597E02DE133EF41E050E00E94FF0765
S113078049015A019B01AC01A7EAB1E40E941E0889
S11307906B017C01ACEEB4EFA50194010E942C081E
S11307A0DC01CB018C0D9D1DAE1DBF1DB7FF03C029
S11307B00197A109B04888839983AA83BB839F7753
S11307C0DF91CF91FF90EF90DF90CF90BF90AF90EB
S11307D09F908F9008950C94A20380E090E40C9471
S11307E0A203A0E0B0E08093004090930140A09366
S11307F00240B09303400895FB01DC0104C08D91D5
S11308000190801921F441505040C8F7881B990B7E
S11308100895CF92DF92EF92FF920F931F93CF939D
S1130820DF93FA01238120FD03C080E090E01AC029
S113083016161706D4F77A018C01EB016C01C1304E
S1130840D10569F0C7010E9417078F3FFFEF9F078B
S113085061F3F60181936F0121970A9781F7F601FD
S11308601082C801DF91CF911F910F91FF90EF90FB
S1130870DF90CF9008950F931F93CF93DF93FB01E5
S1130880238121FD03C08FEF9FEF2CC022FF16C0F0
S113089046815781248135814217530744F4A0814E
S11308A0B1819D012F5F3F4F208331838C9326813B
S11308B037812F5F3F4F2683378314C08B01EC01B0
S11308C0FB010084F185E02D0995892BE1F6D8011F
S11308D016968D919C911797019616968D939C93DD
S11308E01797CE01DF91CF911F910F9108958F92A9
S11308F09F92AF92BF92CF92DF92EF92FF920F93AB
S11309001F93CF93DF935B014A017901D9011396B9
S11309102C9121FF1DC0C0E0D0E0C815D905D9F045
S11309208C016C01CA0CDB1CC8010C151D0571F08F
S11309300F5F1F4FD7011896ED91FC911997B701DE
S1130940DC018C910995892B79F305C02196E5CFBB
S113095080E090E001C0CE01DF91CF911F910F9113
S1130960FF90EF90DF90CF90BF90AF909F908F90CB
S11309700895CF93DF93CDB7DEB7AE014B5F5F4FE2
S1130980FA0161917191AF018091254190912641C5
S11309900E94FD04DF91CF9108950F931F93CF938D
S11309A0DF93E0912541F0912641238121FF1BC073
S11309B08C01D0E0C0E0F80181918F016091254164
S11309C070912641DB011896ED91FC9119978823CB
S11309D031F00995892B79F3DFEFCFEFECCF8AE083
S11309E00995892B19F08FEF9FEF02C08D2F9C2F53
S11309F0DF91CF911F910F9108952F923F924F92C3
S1130A005F926F927F928F929F92AF92BF92CF929A
S1130A10DF92EF92FF920F931F93CF93DF93CDB7A3
S1130A20DEB72B97CDBFDEBF6C017B018A01FC01D1
S1130A3016821782838181FFCCC1CE0101963C01CD
S1130A40F6019381F70193FD859193FF81917F01D5
S1130A50882309F4BAC1853239F493FD859193FF53
S1130A6081917F01853229F4B60190E00E943B0414
S1130A70E7CF912C212C312CFFE1F315D8F08B32E8
S1130A8079F038F4803279F08332A1F4232D206197
S1130A901DC08D3261F0803369F4232D216016C0AE
S1130AA0832D8260382EE32DE4603E2E2AC0F32D80
S1130AB0F8601DC037FC2DC020ED280F2A3040F00F
S1130AC08E32B9F436FC81C1232D2064322E19C034
S1130AD036FE06C08AE0989E200D1124922E11C085
S1130AE0EAE02E9E200D1124222EF32DF0623F2EDB
S1130AF008C08C3621F4832D8068382E02C08836D5
S1130B0041F4F70193FD859193FF81917F01811158
S1130B10B3CF982F9F7D9554933028F40C5F1F4FCB
S1130B209FE399830DC0833631F0833771F08335A9
S1130B3009F059C021C0F801808189830E5F1F4FDD
S1130B4088248394912C530113C02801F2E04F0EA2
S1130B50511CF801A080B18036FE03C0692D70E0FD
S1130B6002C06FEF7FEFC5010E940C074C018201A8
S1130B70F32DFF773F2E16C0280122E0420E511CB0
S1130B80F801A080B18036FE03C0692D70E002C078
S1130B906FEF7FEFC5010E9401074C01F32DF06850
S1130BA03F2E820133FC1BC0822D90E088169906EB
S1130BB0B0F4B60180E290E00E943B042A94F4CFA2
S1130BC0F50137FC859137FE81915F01B60190E014
S1130BD00E943B0421102A9421E0821A9108811476
S1130BE0910471F7E8C0843611F0893641F5F801B3
S1130BF037FE07C060817181828193810C5F1F4F32
S1130C0008C060817181072E000C880B990B0E5F60
S1130C101F4FF32DFF763F2E97FF09C090958095C7
S1130C20709561957F4F8F4F9F4FF0683F2E2AE05C
S1130C3030E0A3010E945507882E861845C08537E9
S1130C4031F4232D2F7EB22E2AE030E025C0932DDF
S1130C50997FB92E8F36C1F018F4883579F0B5C074
S1130C60803719F0883721F0B0C0E92FE061BE2E3B
S1130C70B4FE0DC0FB2DF460BF2E09C034FE0AC0C3
S1130C80292F2660B22E06C028E030E005C020E1FE
S1130C9030E002C020E132E0F801B7FE07C0608115
S1130CA07181828193810C5F1F4F06C060817181C5
S1130CB080E090E00E5F1F4FA3010E945507882E2D
S1130CC08618FB2DFF773F2E36FE0DC0232D2E7F79
S1130CD0A22E891458F434FE0BC032FC09C0832DB3
S1130CE08E7EA82E05C0B82CA32C03C0B82C01C03E
S1130CF0B92CA4FE0FC0FE01E80DF11D80818033E4
S1130D0021F49A2D997EA92E09C0A2FE06C0B3949F
S1130D10B39404C08A2D867809F0B394A3FC11C05F
S1130D20A0FE06C0B21488F4280C922C9B180EC0A6
S1130D30B21460F4B60180E290E00E943B04B394E4
S1130D40F7CFB21418F42B1802C0982C212CA4FE4F
S1130D5010C0B60180E390E00E943B04A2FE17C0DD
S1130D60A1FC03C088E790E002C088E590E0B601EA
S1130D700CC08A2D867859F0A1FE02C08BE201C016
S1130D8080E2A7FC8DE2B60190E00E943B04891446
S1130D9038F4B60180E390E00E943B049A94F7CFC4
S1130DA08A94F301E80DF11D8081B60190E00E9460
S1130DB03B048110F5CF222009F442CEB60180E233
S1130DC090E00E943B042A94F6CFF6018681978135
S1130DD002C08FEF9FEF2B96CDBFDEBFDF91CF9187
S1130DE01F910F91FF90EF90DF90CF90BF90AF9045
S1130DF09F908F907F906F905F904F903F902F9037
S1130E000895FC010590615070400110D8F7809559
S1130E1090958E0F9F1F0895FC01615070400190C2
S1130E200110D8F7809590958E0F9F1F0895CF934A
S1130E30DF93EC012B8120FF33C026FF0AC02F7BF8
S1130E402B838E819F8101968E839F838A8190E07C
S1130E5029C022FF0FC0E881F9818081082E000C8F
S1130E60990B009719F420622B831AC03196E883FA
S1130E70F9830EC0EA85FB85099597FF09C02B818C
S1130E80019611F080E201C080E1822B8B8308C0BF
S1130E902E813F812F5F3F4F2E833F83992702C0CE
S1130EA08FEF9FEFDF91CF910895FA01AA272830A1
S1130EB051F1203181F1E8946F936E7F6E5F7F4F23
S1130EC08F4F9F4FAF4FB1E03ED0B4E03CD0670F9F
S1130ED0781F891F9A1FA11D680F791F8A1F911DF2
S1130EE0A11D6A0F711D811D911DA11D20D009F442
S1130EF068943F912AE0269F11243019305D319384
S1130F00DEF6CF010895462F4770405D4193B3E06C
S1130F100FD0C9F7F6CF462F4F70405D4A3318F013
S1130F20495D31FD4052419302D0A9F7EACFB4E0C4
S1130F30A6959795879577956795BA95C9F700977C
S1130F406105710508959B01AC010A2E069457951D
S1130F50479537952795BA95C9F7620F731F841F74
S1130F60951FA01D0895542F2FEF35E1241B31093F
S1130F702617370710F40E9440082091021021FD23
S1130F80FCCF33E12DE924BF30930010282FDB017F
S1130F90BC5EFC018E2F821B851738F480910210F1
S1130FA081FDFCCF81918D93F5CF90E08DE984BFD5
S1130FB090930010089560507C4E0C94450803D023
S1130FC0808199270895FC01E050FC4E0895262F56
S1130FD0AF93BF93E0E0F0E1328131FDFDCF3DE915
S1130FE034BF33E13083DC01A050BC4E2C933DE987
S1130FF034BF20E020830196BF91AF910895052E60
S113100097FB1EF400940E94160857FD07D00E9417
S11310106C0307FC03D04EF40C94160850954095CD
S1131020309521953F4F4F4F5F4F08959095809590
S1131030709561957F4F8F4F9F4F08950E9431089F
S1131040A59F900DB49F900DA49F800D911D112418
S11310500895B7FF0C941E080E941E08821B930B70
S11310600895A29FB001B39FC001A39F700D811D7D
S11310701124911DB29F700D811D1124911D08959D
S113108081E090E0F8940C944E08FB01DC0102C06E
S113109001900D9241505040D8F70895F894FFCF35
S11310A0010000000100000003000000004B027476
S11310B00200005C30005C6E00656E746572207026
S11310C077643A0063757272656E74207077643A5F
S11310D020006162636465666768696A6B6C6D6E43
S11310E06F707172737475767778797A414243447C
S11310F045464748494A4B4C4D4E4F505152535424
S113110055565758595A30313233343536373839C1
S1131110000A70617373776F72642072657365740B
S1131120000A2D2D7365742070617373776F726478
S11311302D2D000A2D2D67756573732070617373EF
S1131140776F72642D2D00656E7465722070617303
S113115073776F72643A200077726F6E67207061E4
S11311607373776F7264002A72696E672A0A0000CB
S9030000FC
