:100000000C94F7000C9416010C9416010C94160134
:100010000C9416010C9416010C9416010C94160104
:100020000C9416010C9417040C9416010C941601F0
:100030000C9416010C9416010C9416010C941601E4
:100040000C9416010C9416010C9416010C941601D4
:100050000C9416010C9416010C9416010C941601C4
:100060000C9416010C9416010C9416010C941601B4
:100070000C9416010C9416010C9416010C941601A4
:100080000C9416010C9416010C9416010C94160194
:100090000C9416010C9416010C9416010C94160184
:1000A0000C9416010C9416010C9416010C94160174
:1000B0000C9416010C9416010C9416010C94160164
:1000C0000C9416010C9416010C9416010C94160154
:1000D0000C9416010C9416010C9416010C94160144
:1000E0000C9416010C9416010C9416010C94160134
:1000F0000C94160100407A10F35A00A0724E1809B1
:100100000010A5D4E80000E87648170000E40B547E
:10011000020000CA9A3B000000E1F505000080964D
:100120009800000040420F000000A086010000007F
:10013000102700000000E803000000006400000039
:1001400000000A00000000000100000000002C7602
:10015000D888DC674F0823DFC1DFAE59E1B1B7961D
:10016000E5E3E453C63AE651997696E8E6C284267A
:10017000EB898C9B62ED407C6FFCEFBC9C9F40F256
:10018000BAA56FA5F490055A2AF75C936B6CF967D2
:100190006DC11BFCE0E40D47FEF520E6B500D0ED97
:1001A000902E0300943577050080841E08000020FF
:1001B0004E0A000000C80C333333330F986E12839D
:1001C0001141EF8D2114893BE65516CFFEE6DB1871
:1001D000D1844B381BF77C1D901DA4BBE424203236
:1001E00084725E228100C9F124ECA1E53D2711242F
:1001F0001FBECFEFCDBFDFE7DEBF10E4A0E0B0E46D
:10020000E6E0FAE100E00BBF02C007900D92A236D3
:10021000B107D9F720E4A2E6B0E401C01D92A43CE6
:10022000B207E1F70E9434030C94010D0C94000016
:10023000E0E0F9E08481836084830895CF93DF93C5
:10024000D82FC62F8D2F90E0880F991F8C2B80936D
:100250000709C11102C026E001C027E0809105090D
:1002600090E0022E02C0959587950A94E2F780FFF0
:10027000F5CF8091050984FD0E9418018091050940
:100280008C7001F7DF91CF910895809308098091D8
:10029000050986FFFCCF809105098C7019F08FEF5E
:1002A0009FEF089580E090E008951F93CF93DF9330
:1002B000C62F142F60E00E941E018C2F0E94450162
:1002C000EC01812F0E944501C82BD92B0E941801F7
:1002D000CE01DF91CF911F910895E0E0F9E083E234
:1002E000868383818160838385818160858308958E
:1002F000482F60E88EE30E9455010895482F60E47E
:100300008EE30E94550108950E946D0140E06FE266
:100310008BE60E94550187EC90E00197F1F700C051
:10032000000040E260E08BE60E94550187EC90E01F
:100330000197F1F700C000004FEF64E08BE60E94E8
:10034000550187EC90E00197F1F700C0000040E014
:1003500067E08BE60E9455018FE59AEE0197F1F771
:1003600000C000008CE00E94780195E39A95F1F7B7
:10037000000088E30E94780185E38A95F1F7000088
:1003800081E00E9478018FE39FE10197F1F700C0BF
:10039000000086E00E94780108950E947E01089581
:1003A00081E00E9478018FE39FE10197F1F700C09F
:1003B000000008950F931F93CF93DF938C01C0E04B
:1003C000D0E007C00E94CD0185EE8A95F1F70000CC
:1003D0002196F801EC0FFD1F80818111F3CFDF9191
:1003E000CF911F910F910895611102C0806801C0E3
:1003F000806C0E94780108950F931F93CF93DF9331
:1004000080FF03C0D1E310E002C0D0E310E081FF21
:1004100003C0B1E3C0E002C0B0E3C0E082FF03C0AC
:10042000F1E3A0E002C0F0E3A0E083FF03C071E3CA
:10043000E0E002C070E3E0E084FF03C051E360E06D
:1004400002C050E360E085FF03C031E340E002C03A
:1004500030E340E086FF03C091E320E002C090E378
:1004600020E088231CF481E300E002C080E300E088
:100470001F93DF93CF93BF93AF93FF93EF937F933C
:100480006F935F934F933F932F939F930F938F930C
:1004900082E190E49F938F930E94BA078DB79EB735
:1004A00042968DBF9EBFDF91CF911F910F9108950E
:1004B00088ED84BFE0E6F0E095E090A384BF83E0A0
:1004C00080838091650084FFFCCF089580ED809348
:1004D0000004E0E4F9E087E2808381818460818325
:1004E000089590E0982F88279295907F70E0762F5E
:1004F0006627770F770F862B972B482B592BE0E039
:10050000F4E0868180688683509344098091430992
:100510008823E4F740934409809143098823E4F752
:10052000E0E0F4E085818068858380914409089546
:10053000E0E8F6E081E080838AE08283089580919C
:10054000870682958F7091E08927817090E00895E9
:10055000E0E0F6E088E0808784E0828380E28383C5
:1005600085E08093B00091E0908380818F7E8083CE
:10057000928780910A0680FDFCCF0895CF93DF9388
:1005800099EF980F923010F480930806C0E0D6E0FF
:100590006889798980E090E00E94120620E030E0CE
:1005A00040E859E30E94A50623E333E343E550E422
:1005B0000E94A50621E02A87DF91CF91089588E067
:1005C0000E94BE02089587E00E94BE020895E0E006
:1005D000FAE0118289EF90E086A397A381E08287F9
:1005E00080818B6080830895CF92DF92EF92FF929B
:1005F0000F931F93CF93DF9300E010E0C0E4D0E0AF
:10060000E12CF12C6894CC24C7F8D12C21C0AE0188
:1006100060E080E00E9471020E949F02892B29F015
:100620006E018FEFC81AD80A0AC0C230D10528F06F
:100630007E0181E0E81AF10802C0E12CF12CE6010C
:10064000CE19DF09D695C795CE0DDF1D0F5F1F4F61
:1006500009301105E4F2DF91CF911F910F91FF90C6
:10066000EF90DF90CF900895CF93DF93CDB7DEB7B3
:100670002697CDBFDEBF0E9458020E94E7020E946B
:10068000A8020E9498020E9466020E94840120E053
:1006900030E040E855E260E070E083E00E948405CD
:1006A000789483E290E40E94D40780916A4090910C
:1006B0006B40843F9140C8F310926A4010926B40A7
:1006C0000E94D0010E94E3026093664070936740ED
:1006D000809368409093694060930040709301401C
:1006E00080930240909303409E012F5F3F4F79011A
:1006F000890124E042E00E945807FF92EF928DE2C8
:1007000090E49F938F930E94BA0786E390E40E943F
:10071000DA01C7010E94DA018EE390E40E94DA0157
:1007200080E490E49F938F930E94BA074FEF50E0CC
:1007300063E080E00E947102D82E80E00E94FC01FC
:100740008D2D0E94FC010F2EF2E3CF2EF0E4DF2E60
:10075000F02DDF92CF920E94BA070E94DF026093D1
:10076000624070936340809364409093654024E0BE
:1007700042E00E945807FF92EF9286E490E49F9334
:100780008F930E94BA07DF92CF920E94BA0761E06E
:1007900080E00E94F4018CE490E40E94DA01C70139
:1007A0000E94DA018EE390E40E94DA012091624017
:1007B00030916340409164405091654060910040A9
:1007C0007091014080910240909103400E94A505E4
:1007D0009F77609300407093014080930240909314
:1007E000034024E042E00E945807FF92EF9284E524
:1007F00090E49F938F930E94BA078AE090E00E9452
:10080000CE0760910040709101408091024090912C
:100810000340CDBFDEBF2AE037ED43EA5CE30E9430
:10082000A00618160CF041CF0E94F4023ECF1F9292
:100830000F920FB60F9211240BB60F922F938F9336
:100840009F93EF93FF9380916A4090916B40019644
:1008500049F080916A4090916B40019680936A4084
:1008600090936B40E0E0FAE0838581608387FF919D
:10087000EF919F918F912F910F900BBE0F900FBE14
:100880000F901F901895CF93DF93811106C081E0E0
:1008900080930104C0E0D8E019C0813029F480932E
:1008A0004104C0E2D8E012C0823031F481E080938C
:1008B000A104C0E4D8E00AC0833031F481E0809321
:1008C0002104C0E6D8E002C0C0E0D0E0DB01CA01EC
:1008D000880F991FAA1FBB1F880F991FAA1FBB1F34
:1008E0009C01AD01220F331F441F551F220F331FE0
:1008F000441F551F60E070E089E09DE30E943607C9
:10090000288739878E81806C8E83CE01DF91CF91CD
:100910000895FC0162830895FC01948195FFFDCF49
:100920000895FC0194819923ECF7808190E008956B
:100930000F931F93CF93C82F8B01873069F42091B9
:10094000C2403091C34047E050E061E070E08AE58A
:1009500090E40E9478070FC08A3019F48DE00E945D
:100960009804F80104851585C8010E948C046C2F39
:10097000C8010E94890480E090E0CF911F910F91FF
:100980000895EF92FF920F931F93CF93DF932091DF
:10099000BC403091BD40232B09F09AC08C01CCE6BD
:1009A000D0E4F801848595850E9491048D3009F486
:1009B0008AE08A3059F48883B8010E9498048CE652
:1009C00090E48093BC409093BD4082C0893009F48C
:1009D00080E290EE980F9F3510F0803A98F0F0E4A6
:1009E000CB3BDF0729F4B80187E00E949804D9CFF8
:1009F0007E019FEFE91AF90A8883B8010E949804E2
:100A0000E701CFCF823119F130F4833009F473C09C
:100A1000883049F0C6CF873109F44EC08F3719F0BE
:100A20008531B9F1BECFE0E4CC36DE0709F008F439
:100A3000B8CFB80188E00E949804B80180E20E9413
:100A40009804B80188E00E9498042197AACFB801C1
:100A50008DE00E9498040F2EFCE6EF2EF0E4FF2EAE
:100A6000F02D06C0B801F70181917F010E94980422
:100A7000EC16FD06B8F395CFB80188E00E94980403
:100A8000B80180E20E949804B80188E00E949804AE
:100A90002197F0E4CC36DF0709F070F782CFB80178
:100AA00088E00E949804B80180E20E949804B8018E
:100AB00088E00E949804219780E4CC36D80709F09A
:100AC00008F46FCFFE0131978081803241F769CF02
:100AD000E091BC40F091BD40CF0101968093BC40B5
:100AE0009093BD4080818A3021F41092BC401092D6
:100AF000BD4090E002C08FEF9FEFDF91CF911F913B
:100B00000F91FF90EF900895CF93DF93E901209725
:100B100049F09EE0E4E0F0E4D90101900D929A954D
:100B2000E1F70BC0EEEBF0E424E030E42283338302
:100B30002083318324833583E9010E9443048C8719
:100B40009D87CE01DF91CF9108955058BB27AA27EA
:100B50000E94BD050C9466060E94580638F00E945B
:100B60005F0620F039F49F3F19F426F40C945506E3
:100B70000EF4E095E7FB0C944F06E92F0E947706F0
:100B800058F3BA17620773078407950720F079F4C2
:100B9000A6F50C9499060EF4E0950B2EBA2FA02D15
:100BA0000B01B90190010C01CA01A0011124FF271A
:100BB000591B99F0593F50F4503E68F11A16F04015
:100BC000A22F232F342F4427585FF3CF4695379514
:100BD0002795A795F0405395C9F77EF41F16BA0BD9
:100BE000620B730B840BBAF09150A1F0FF0FBB1F87
:100BF000661F771F881FC2F70EC0BA0F621F731FD0
:100C0000841F48F4879577956795B795F7959E3F2C
:100C100008F0B0CF9395880F08F09927EE0F9795BD
:100C200087950895E89409C097FB3EF490958095C8
:100C3000709561957F4F8F4F9F4F9923A9F0F92FA2
:100C400096E9BB279395F695879577956795B79520
:100C5000F111F8CFFAF4BB0F11F460FF1BC06F5F06
:100C60007F4F8F4F9F4F16C0882311F096E911C018
:100C7000772321F09EE8872F762F05C0662371F039
:100C800096E8862F70E060E02AF09A95660F771F4D
:100C9000881FDAF7880F9695879597F9089597F941
:100CA0009F6780E870E060E008959FEF80EC089512
:100CB00000240A941616170618060906089500243B
:100CC0000A9412161306140605060895092E0394B5
:100CD000000C11F4882352F0BB0F40F4BF2B11F429
:100CE00060FF04C06F5F7F4F8F4F9F4F089557FD88
:100CF0009058440F551F59F05F3F71F04795880F8A
:100D000097FB991F61F09F3F79F087950895121620
:100D100013061406551FF2CF4695F1DF08C01616CC
:100D200017061806991FF1CF86957105610508947D
:100D30000895E894BB2766277727CB0197F9089594
:100D40000E94120708F48FEF08950E94B8060C94D1
:100D500066060E94580638F00E945F0620F0952330
:100D600011F00C944F060C94550611240C949A061D
:100D70000E94770670F3959FC1F3950F50E0551FC1
:100D8000629FF001729FBB27F00DB11D639FAA27E0
:100D9000F00DB11DAA1F649F6627B00DA11D661F2F
:100DA000829F2227B00DA11D621F739FB00DA11D50
:100DB000621F839FA00D611D221F749F3327A00D0A
:100DC000611D231F849F600D211D822F762F6A2FA6
:100DD00011249F5750409AF0F1F088234AF0EE0F0B
:100DE000FF1FBB1F661F771F881F91505040A9F738
:100DF0009E3F510580F00C944F060C949A065F3F7D
:100E0000E4F3983ED4F3869577956795B795F79573
:100E1000E7959F5FC1F7FE2B880F911D96958795EB
:100E200097F90895990F0008550FAA0BE0E8FEEF17
:100E300016161706E807F907C0F012161306E4079E
:100E4000F50798F0621B730B840B950B39F40A2697
:100E500061F0232B242B252B21F408950A2609F475
:100E6000A140A6958FEF811D811D0895A1E21A2E44
:100E7000AA1BBB1BFD010DC0AA1FBB1FEE1FFF1F3E
:100E8000A217B307E407F50720F0A21BB30BE40B8E
:100E9000F50B661F771F881F991F1A9469F76095D5
:100EA0007095809590959B01AC01BD01CF0108958F
:100EB000EF920F931F93CF93DF93E80147FD02C09A
:100EC00034E001C034E1042E000C550B57FF03C081
:100ED000519541955109E32E022F242FAE010E9416
:100EE000080ACE01DF91CF911F910F91EF900895E5
:100EF0008F929F92AF92BF92CF92DF92EF92FF922A
:100F00000F931F93CF93DF935B014A017901D901BE
:100F100013962C9121FF1DC0C0E0D0E0C815D90563
:100F2000D9F08C016C01CA0CDB1CC8010C151D0525
:100F300071F00F5F1F4FD7011896ED91FC91199733
:100F4000B701DC018C910995892B79F305C02196B5
:100F5000E5CF80E090E001C0CE01DF91CF911F91FD
:100F60000F91FF90EF90DF90CF90BF90AF909F9048
:100F70008F900895CF93DF93CDB7DEB7AE014B5F6F
:100F80005F4FFA0161917191AF018091C0409091E2
:100F9000C1400E940408DF91CF9108956091C04044
:100FA0007091C1400C94670C0F931F93CF93DF9304
:100FB000E091C040F091C140238121FF1BC08C0112
:100FC000D0E0C0E0F80181918F016091C040709144
:100FD000C140DB011896ED91FC911997882331F0FF
:100FE0000995892B79F3DFEFCFEFECCF8AE00995F4
:100FF000892B19F08FEF9FEF02C08D2F9C2FDF916F
:10100000CF911F910F9108952F923F924F925F922F
:101010006F927F928F929F92AF92BF92CF92DF9208
:10102000EF92FF920F931F93CF93DF93CDB7DEB76D
:101030002B97CDBFDEBF6C017B018A01FC011682BC
:101040001782838181FFCCC1CE0101963C01F6015C
:101050009381F70193FD859193FF81917F0188230F
:1010600009F4BAC1853239F493FD859193FF8191DA
:101070007F01853229F4B60190E00E94670CE7CF2A
:10108000912C212C312CFFE1F315D8F08B3279F023
:1010900038F4803279F08332A1F4232D20611DC011
:1010A0008D3261F0803369F4232D216016C0832DC9
:1010B0008260382EE32DE4603E2E2AC0F32DF860C6
:1010C0001DC037FC2DC020ED280F2A3040F08E3295
:1010D000B9F436FC81C1232D2064322E19C036FEAE
:1010E00006C08AE0989E200D1124922E11C0EAE0DD
:1010F0002E9E200D1124222EF32DF0623F2E08C0CB
:101100008C3621F4832D8068382E02C0883641F455
:10111000F70193FD859193FF81917F018111B3CFF9
:10112000982F9F7D9554933028F40C5F1F4F9FE3B9
:1011300099830DC0833631F0833771F0833509F020
:1011400059C021C0F801808189830E5F1F4F882418
:101150008394912C530113C02801F2E04F0E511CCF
:10116000F801A080B18036FE03C0692D70E002C096
:101170006FEF7FEFC5010E945C0C4C018201F32DE3
:10118000FF773F2E16C0280122E0420E511CF801C5
:10119000A080B18036FE03C0692D70E002C06FEF01
:1011A0007FEFC5010E94510C4C01F32DF0683F2EDA
:1011B000820133FC1BC0822D90E088169906B0F4A2
:1011C000B60180E290E00E94670C2A94F4CFF5010A
:1011D00037FC859137FE81915F01B60190E00E9456
:1011E000670C21102A9421E0821A9108811491043D
:1011F00071F7E8C0843611F0893641F5F80137FE01
:1012000007C060817181828193810C5F1F4F08C08C
:1012100060817181072E000C880B990B0E5F1F4FA8
:10122000F32DFF763F2E97FF09C09095809570951E
:1012300061957F4F8F4F9F4FF0683F2E2AE030E03F
:10124000A3010E94A30C882E861845C0853731F46F
:10125000232D2F7EB22E2AE030E025C0932D997FDA
:10126000B92E8F36C1F018F4883579F0B5C08037C3
:1012700019F0883721F0B0C0E92FE061BE2EB4FE2E
:101280000DC0FB2DF460BF2E09C034FE0AC0292F0B
:101290002660B22E06C028E030E005C020E130E034
:1012A00002C020E132E0F801B7FE07C06081718121
:1012B000828193810C5F1F4F06C06081718180E045
:1012C00090E00E5F1F4FA3010E94A30C882E86188A
:1012D000FB2DFF773F2E36FE0DC0232D2E7FA22E35
:1012E000891458F434FE0BC032FC09C0832D8E7E65
:1012F000A82E05C0B82CA32C03C0B82C01C0B92C53
:10130000A4FE0FC0FE01E80DF11D8081803321F4A1
:101310009A2D997EA92E09C0A2FE06C0B394B3945B
:1013200004C08A2D867809F0B394A3FC11C0A0FEF6
:1013300006C0B21488F4280C922C9B180EC0B2146C
:1013400060F4B60180E290E00E94670CB394F7CF9E
:10135000B21418F42B1802C0982C212CA4FE10C033
:10136000B60180E390E00E94670CA2FE17C0A1FCCA
:1013700003C088E790E002C088E590E0B6010CC0A9
:101380008A2D867859F0A1FE02C08BE201C080E26E
:10139000A7FC8DE2B60190E00E94670C891438F436
:1013A000B60180E390E00E94670C9A94F7CF8A948C
:1013B000F301E80DF11D8081B60190E00E94670CF9
:1013C0008110F5CF222009F442CEB60180E290E0F0
:1013D0000E94670C2A94F6CFF6018681978102C09D
:1013E0008FEF9FEF2B96CDBFDEBFDF91CF911F9187
:1013F0000F91FF90EF90DF90CF90BF90AF909F90B4
:101400008F907F906F905F904F903F902F900895B6
:101410008F929F92AF92BF92CF92DF92EF92FF9204
:101420000F931F93CF93DF93CDB7DEB72997CDBF2F
:10143000DEBF6A01122FB02E2BE3201720F0FF240D
:10144000F394F00E02C02CE3F22E0F2D27E0AE0134
:101450004F5F5F4F0E94790BBC014981842F8970D7
:10146000813031F0E1FC06C0E0FE06C090E205C02C
:101470009DE203C09BE201C090E05E2D507143FFEE
:101480003CC0911102C083E001C084E0811718F4D0
:10149000212F281B01C020E051110BC0F601822F23
:1014A00030E2882319F031938150FBCFC20ED11C5A
:1014B00020E0992329F0D6019C93F60131966F0123
:1014C000C6010396E2FE0AC03EE4D6013C9341E425
:1014D00011964C93119712963C9306C03EE6F60186
:1014E000308341E641833283FC01322F40E23323D3
:1014F00009F442C041933150FACF42FF44C09111E8
:1015000002C083E001C084E0811718F4212F281B5A
:1015100001C020E051110BC0F601822F30E2882378
:1015200019F031938150FBCFC20ED11C20E09923DA
:1015300029F0D6019C93F60131966F01C6010396FE
:10154000E2FE0BC039E4D6013C933EE411963C9395
:10155000119736E412963C9307C039E6F6013083C2
:101560003EE6318336E63283FC01322F40E23323FC
:1015700019F041933150FBCFFC01E20FF11D1082B5
:101580008EEF9FEFA6C021E030E0911102C020E075
:1015900030E0161617061CF4FB01319602C0E1E09C
:1015A000F0E02E0F3F1FBB2021F0EB2DF0E0319635
:1015B00002C0E0E0F0E02E0F3F1FE12FF0E02E1719
:1015C0003F071CF4121B212F01C020E08E2D8871D3
:1015D00059F4F601822F30E2882319F031938150BB
:1015E000FBCFC20ED11C20E0992329F0D6019C9399
:1015F000F60131966F0151110BC0F601822F90E375
:10160000882319F091938150FBCFC20ED11C20E0AA
:101610000F2D060F9A81342F307144FF03C0913390
:1016200009F40150101624F4093018F008E001C044
:1016300001E0AB0177FF02C040E050E0FB01E41B9A
:10164000F50BA1E0B0E0AC0FBD1FEA0FFB1F8EE26F
:10165000A82E4B01801A91080B2D10E011950195D1
:1016600011094F3FBFEF5B0721F4D601AC921196F1
:101670006D01641775072CF08416950614F48181AA
:1016800001C080E3415051093196D60111967D0188
:101690004017510724F0D6018C936701E2CF6417FD
:1016A000750739F4963320F4953319F4311101C0DC
:1016B00081E3F6018083F701822F90E2882319F0FD
:1016C00091938150FBCFF701E20FF11D108280E072
:1016D00090E02996CDBFDEBFDF91CF911F910F9192
:1016E000FF90EF90DF90CF90BF90AF909F908F9042
:1016F0000895283008F027E03327DA01990F311DCB
:1017000087FD916000966105710539F432602E5FA6
:101710003D9330E32A95E1F708959F3F30F08038FC
:101720007105610509F03C5F3C5F3D93913008F025
:101730008068911DDF93CF931F930F93FF92EF92D9
:10174000192F987F9695E92F96959695E90FFF2783
:10175000E25BFE4F99273327EE24FF24A701E70120
:1017600005900894079428F4360FE71EF81E491FC9
:10177000511D660F771F881F991F0694A1F70590CA
:10178000079428F4E70EF81E491F561FC11D770F56
:10179000881F991F661F0694A1F70590079428F4E7
:1017A000F80E491F561FC71FD11D880F991F661FAE
:1017B000771F0694A1F70590079420F4490F561F50
:1017C000C71FD81F990F661F771F881F0694A9F798
:1017D00084911095177041F0D695C7955795479508
:1017E000F794E7941A95C1F7E4EFF0E06894159048
:1017F000159135916591959105907FE27395E1186A
:10180000F10A430B560BC90BD009C0F7E10CF11ECE
:10181000431F561FC91FD01D7EF4703311F48A95E3
:10182000E6CFE894015030F0080F0AF400270217C1
:1018300008F4202F2395022F7A3328F079E37D9343
:101840002A95E9F710C07D932A9589F60694979515
:101850006795379517951794E118F10A430B560BC6
:10186000C90BD00998F023957E9173957A3308F0CF
:1018700070E37C932013B8F77E9170617D9330F014
:10188000839571E37D9370E32A95E1F71124EF903E
:10189000FF900F911F91CF91DF91992787FD909530
:1018A0000895FC010590615070400110D8F78095B3
:1018B00090958E0F9F1F0895FC016150704001901C
:1018C0000110D8F7809590958E0F9F1F08950F9364
:1018D0001F93CF93DF93FB01238121FD03C08FEF83
:1018E0009FEF2CC022FF16C046815781248135818D
:1018F0004217530744F4A081B1819D012F5F3F4FF0
:10190000208331838C93268137812F5F3F4F26833D
:10191000378314C08B01EC01FB010084F185E02DBD
:101920000995892BE1F6D80116968D919C91179710
:10193000019616968D939C931797CE01DF91CF91C8
:101940001F910F910895FA01AA27283051F12031F3
:1019500081F1E8946F936E7F6E5F7F4F8F4F9F4F43
:10196000AF4FB1E03ED0B4E03CD0670F781F891F85
:101970009A1FA11D680F791F8A1F911DA11D6A0F53
:10198000711D811D911DA11D20D009F468943F9106
:101990002AE0269F11243019305D3193DEF6CF0105
:1019A0000895462F4770405D4193B3E00FD0C9F7CB
:1019B000F6CF462F4F70405D4A3318F0495D31FD38
:1019C0004052419302D0A9F7EACFB4E0A69597958B
:1019D000879577956795BA95C9F700976105710561
:1019E00008959B01AC010A2E0694579547953795AB
:1019F0002795BA95C9F7620F731F841F951FA01D05
:061A00000895F894FFCFE9
:101A06000AD7A33B00000003000000009804C104AD
:101A16000000256325632563256325632563256308
:101A2600256300696E697420646F6E650056413ADD
:101A36002573097C0900415F506F743A20005600F7
:101A46004D49443A200056443A257300445F506F8E
:101A5600743A200064563A2573002A72696E672A22
:021A66000A0074
:00000001FF
