S00F00005350495F4C61622E73726563BB
S11300000C947A000C9499000C9499000C94990027
S11300100C9499000C9499000C9499000C949900F8
S11300200C9499000C94AB010C9499000C949900D5
S11300300C9499000C9499000C9499000C949900D8
S11300400C9499000C9499000C9499000C949900C8
S11300500C9499000C9499000C9499000C949900B8
S11300600C9499000C9499000C9499000C949900A8
S11300700C9499000C9499000C9499000C94990098
S11300800C9499000C9499000C9499000C94990088
S11300900C9499000C9499000C9499000C94990078
S11300A00C9499000C9499000C9499000C94990068
S11300B00C9499000C9499000C9499000C94990058
S11300C00C9499000C9499000C9499000C94990048
S11300D00C9499000C9499000C9499000C94990038
S11300E00C9499000C9499000C9499000C94990028
S11300F00C94990011241FBECFEFCDBFDFE7DEBF04
S113010010E4A0E0B0E4E2EBF3E000E00BBF02C0D7
S113011007900D92AC30B107D9F720E4ACE0B0E41D
S113012001C01D92AE30B207E1F70E9492010C9417
S1130130D7010C940000E0E0F9E0848183608483BB
S11301400895CF93DF93D82FC62F8D2F90E0880F7B
S1130150991F8C2B80930709C11102C026E001C0AE
S113016027E08091050990E0022E02C095958795BD
S11301700A94E2F780FFF5CF8091050984FD0E947F
S11301809B00809105098C7001F7DF91CF91089550
S1130190809308098091050986FFFCCF80910509A9
S11301A08C7019F08FEF9FEF089580E090E0089530
S11301B01F93CF93DF93C62F142F60E00E94A100FA
S11301C08C2F0E94C800EC01812F0E94C800C82B0C
S11301D0D92B0E949B00CE01DF91CF911F910895EE
S11301E0E0E0F9E083E28683838181608383858113
S11301F0816085830895482F60E88EE30E94D800CB
S11302000895482F60E48EE30E94D80008950E9468
S1130210F00040E06FE28BE60E94D80087EC90E0AB
S11302200197F1F700C0000040E260E08BE60E9415
S1130230D80087EC90E00197F1F700C000004FEF81
S113024064E08BE60E94D80087EC90E00197F1F718
S113025000C0000040E067E08BE60E94D8008FE514
S11302609AEE0197F1F700C000008CE00E94FB00B9
S113027095E39A95F1F7000088E30E94FB0085E37B
S11302808A95F1F7000081E00E94FB008FE39FE173
S11302900197F1F700C0000086E00E94FB0008957A
S11302A00E940101089581E00E94FB008FE39FE119
S11302B00197F1F700C0000008950F931F93CF93A7
S11302C0DF938C01C0E0D0E007C00E94500185EEAE
S11302D08A95F1F700002196F801EC0FFD1F80814B
S11302E08111F3CFDF91CF911F910F91089588ED84
S11302F084BFE0E6F0E095E090A384BF83E08083D0
S11303008091650084FFFCCF0895E0E0FAE011825B
S113031089EF90E086A397A381E0828780818B6038
S1130320808308950E9477010E9485010E9407013D
S1130330789480910C4090910D4084369105C8F3D7
S113034010920C4010920D400E94530180E090E402
S11303500E945D01EECF1F920F920FB60F921124EF
S11303600BB60F922F938F939F93EF93FF938091EC
S11303700C4090910D40019649F080910C40909171
S11303800D40019680930C4090930D40E0E0FAE01C
S1130390838581608387FF91EF919F918F912F9146
S11303A00F900BBE0F900FBE0F901F901895F894EE
S10503B0FFCF79
S10F03B268656C6C6F20776F726C6400DF
S9030000FC
