S0160000496E74657272757074735F4C61622E7372656360
S11300000C947A000C9499000C9499000C94990027
S11300100C9499000C9499000C9499000C949900F8
S11300200C9499000C9499000C9499000C949900E8
S11300300C9499000C9499000C9499000C949900D8
S11300400C9499000C9499000C9499000C949900C8
S11300500C9499000C9499000C9499000C949900B8
S11300600C9499000C9499000C9499000C949900A8
S11300700C9499000C9499000C9499000C94990098
S11300800C9499000C9499000C9499000C94990088
S11300900C9499000C9499000C9499000C94990078
S11300A00C9499000C9499000C9499000C94990068
S11300B00C9499000C9499000C9499000C94990058
S11300C00C9499000C9499000C9499000C94990048
S11300D00C9499000C946C010C947C010C94990080
S11300E00C9499000C9499000C9499000C94990028
S11300F00C94990011241FBECFEFCDBFDFE7DEBF04
S113010010E4A0E0B0E4EAE7F5E100E00BBF02C0D0
S113011007900D92AA36B107D9F720E4AAE6B0E415
S113012001C01D92AB3CB207E1F70E9408010C9498
S1130130BB0A0C94000088ED84BF8CE180936800B6
S11301400895CF92DF92EF92FF92CF93DF936B01EA
S11301507C01C0E0D0E007C08FE99FE00197F1F790
S113016000C000002196BE010D2E000C880B990BD7
S11301700E940B04A70196010E940404882364F3DF
S1130180DF91CF91FF90EF90DF90CF900895CF92C1
S1130190DF92EF92FF920F931F93CF93DF93D82FA9
S11301A070E088EE93E00E942805072E000C880B6F
S11301B0990B0E940B0400E614E0F801448121E04D
S11301C030E0F90102C0EE0FFF1FDA95E2F7EF010C
S11301D02E2F242BF801248320E030E040E05FE35D
S11301E00E946A046B017C010E94A100F8018481D1
S11301F0C095C823C483C701B6010E94A100DF9142
S1130200CF911F910F91FF90EF90DF90CF900895C1
S11302100E949B0020E030E040E855E260E070E09E
S113022083E00E948E03E0E6F8E0858180688583A0
S11302308FEF8CB91DB8789484E190E40E94D707BD
S113024010E0D5E0C3E06D2F8C2F0E94C700809191
S11302506A408823C1F3F89480916A401F928F9377
S113026087E490E49F938F930E94C30780916A4030
S11302700F900F900F900F90863421F080916A4078
S1130280863631F48BE490E40E94D70712E01DC057
S113029080916A40803521F080916A40803731F442
S11302A087E590E40E94D70711E00FC0113021F4D4
S11302B0C0916A40C05305C0123019F4D0916A400D
S11302C0D05384E190E40E94D70780916A40811161
S11302D010926A407894B7CF1F920F920FB60F9284
S11302E011248F938091600880936A408F910F90BE
S11302F00FBE0F901F9018951F920F920FB60F927A
S113030011240BB60F922F933F934F935F936F93E8
S11303107F938F939F93AF93BF93EF93FF9383E068
S113032090E00E945703FF91EF91BF91AF919F918D
S11303308F917F916F915F914F913F912F910F908A
S11303400BBE0F900FBE0F901F901895CF92DF92A7
S1130350EF92FF92CF93DF936A017B01811108C072
S1130360F901108281E080930104C0E0D8E029C043
S1130370813039F4F901108280934104C0E2D8E05D
S113038020C0823041F4F901108281E08093A104FD
S1130390C0E4D8E016C0833041F481E0F9018083E1
S11303A080932104C0E6D8E00CC0843041F4F90104
S11303B0108281E080938104C0E8D8E002C0C0E0EC
S11303C0D0E060E070E980ED93E0A70196010E941F
S11303D03C05288739878E81806C8E83CE01DF911E
S11303E0CF91FF90EF90DF90CF900895FC0195811D
S11303F0906295830895FC0195819F7D958308956E
S1130400FC0162830895FC01948195FFFDCF08955A
S1130410FC0194819923ECF7818182FF04C08081DF
S11304208EEF9FEF089586FF04C080818FEF9FEFCA
S11304300895808190E008959091110181E09111D7
S113044001C080E00895AF92BF92CF92DF92EF9205
S1130450FF921F93CF93DF93182FEB01873069F43A
S11304602091C9403091CA4047E050E061E070E01B
S113047082E690E40E94810745C08A3019F48DE039
S11304800E942302AC84BD84BB20ACF56501E894D2
S1130490D7F87601D6011296CD91DC911397219667
S11304A0CF73D078DD2324F42197C06CDF6F2196BD
S11304B0F60184819581C817D90729F4C5010E94E2
S11304C01C0281111FC0D6011296ED91FC91139765
S11304D0EC0DFD1D1683F70184819581C817D9079A
S11304E0D1F3D6011296CD93DC9313978D919C9101
S11304F00E94F60107C0C5010E940302612FC501D5
S11305000E94000280E090E0DF91CF911F91FF9064
S1130510EF90DF90CF90BF90AF900895EF92FF924D
S11305200F931F93CF93DF932091BB403091BC4036
S1130530232B09F0A0C08C01CBE6D0E4F80184851C
S11305409585992324F4FC01FF77808191810E9491
S113055008028D3009F48AE08A3059F48883B8019E
S11305600E9423028BE690E48093BB409093BC40AE
S113057082C0893009F480E290EE980F9F3510F024
S1130580803A98F0F0E4CA3BDF0729F4B80187E029
S11305900E942302D3CF7E019FEFE91AF90A8883D0
S11305A0B8010E942302E701C9CF823119F130F466
S11305B0833009F473C0883049F0C0CF873109F41F
S11305C04EC08F3719F08531B9F1B8CFE0E4CB369E
S11305D0DE0709F008F4B2CFB80188E00E942302D4
S11305E0B80180E20E942302B80188E00E9423023D
S11305F02197A4CFB8018DE00E9423020F2EFBE6C1
S1130600EF2EF0E4FF2EF02D06C0B801F701819122
S11306107F010E942302EC16FD06B8F38FCFB801C8
S113062088E00E942302B80180E20E942302B801FC
S113063088E00E9423022197F0E4CB36DF0709F01B
S113064070F77CCFB80188E00E942302B80180E2F1
S11306500E942302B80188E00E942302219780E4CB
S1130660CB36D80709F008F469CFFE0131978081B1
S1130670803241F763CFE091BB40F091BC40CF01A1
S113068001968093BB409093BC4080818A3021F4D2
S11306901092BB401092BC4090E002C08FEF9FEFDD
S11306A0DF91CF911F910F91FF90EF900895CF9319
S11306B0DF93880F991FE091BF40F091C040E80F8D
S11306C0F91FC081D1812C813D818A819B812817AA
S11306D0390709F1EC81FD81EC0FFD1F66818881EA
S11306E099810E9400028C819D8101968F7390787C
S11306F0992324F40197806C9F6F01968C839D83CA
S11307002C813D818A819B812817390721F48881B6
S113071099810E94FB01DF91CF910895AF92BF921E
S1130720CF92DF92FF920F931F93CF93DF931F9289
S1130730CDB7DEB7F82E89012115310549F08EE0D9
S1130740E6E0F0E4D90101900D928A95E1F70BC03F
S1130750E5ECF0E486E090E48283938380839183E4
S1130760848395838C019E012F5F3F4F8F2D0E94C0
S1130770A6015C01F8018487958789818823C1F1EA
S113078086E490E00E9472056C01FC0112821382DF
S113079014821582A082B1826F2D70E08091BD40D9
S11307A09091BE406817790794F06F5F7F4F609314
S11307B0BD407093BE40660F771F8091BF409091FB
S11307C0C0400E9493068093BF409093C040EF2D99
S11307D0F0E0EE0FFF1F8091BF409091C040E80F02
S11307E0F91FC082D1826894D7F8F801C486D586EF
S11307F0C8010F90DF91CF911F910F91FF90DF906F
S1130800CF90BF90AF9008950E94460408F481E011
S11308100895E89409C097FB3EF4909580957095EF
S113082061957F4F8F4F9F4F9923A9F0F92F96E938
S1130830BB279395F695879577956795B795F111AD
S1130840F8CFFAF4BB0F11F460FF1BC06F5F7F4F4A
S11308508F4F9F4F16C0882311F096E911C077235C
S113086021F09EE8872F762F05C0662371F096E865
S1130870862F70E060E02AF09A95660F771F881F34
S1130880DAF7880F9695879597F90895990F0008D8
S1130890550FAA0BE0E8FEEF16161706E807F9074E
S11308A0C0F012161306E407F50798F0621B730BE9
S11308B0840B950B39F40A2661F0232B242B252B6A
S11308C021F408950A2609F4A140A6958FEF811D0D
S11308D0811D08950E947D040C94EE040E94E0049E
S11308E038F00E94E70420F0952311F00C94D7040B
S11308F00C94DD0411240C9422050E94FF0470F36F
S1130900959FC1F3950F50E0551F629FF001729FB0
S1130910BB27F00DB11D639FAA27F00DB11DAA1FBF
S1130920649F6627B00DA11D661F829F2227B00D0C
S1130930A11D621F739FB00DA11D621F839FA00D97
S1130940611D221F749F3327A00D611D231F849FE7
S1130950600D211D822F762F6A2F11249F5750403E
S11309609AF0F1F088234AF0EE0FFF1FBB1F661FB9
S1130970771F881F91505040A9F79E3F510580F082
S11309800C94D7040C9422055F3FE4F3983ED4F30F
S1130990869577956795B795F795E7959F5FC1F726
S11309A0FE2B880F911D9695879597F9089597F9D1
S11309B09F6780E870E060E008959FEF80EC089501
S11309C000240A941616170618060906089500242A
S11309D00A9412161306140605060895092E0394A4
S11309E0000C11F4882352F0BB0F40F4BF2B11F418
S11309F060FF04C06F5F7F4F8F4F9F4F089557FD77
S1130A009058440F551F59F05F3F71F04795880F78
S1130A1097FB991F61F09F3F79F08795089512160F
S1130A2013061406551FF2CF4695F1DF08C01616BB
S1130A3017061806991FF1CF86957105610508946C
S1130A400895E894BB2766277727CB0197F9089583
S1130A5097FB072E16F4009407D077FD09D00E9467
S1130A605E0507FC05D03EF4909581959F4F08954F
S1130A70709561957F4F0895A1E21A2EAA1BBB1BA6
S1130A80FD010DC0AA1FBB1FEE1FFF1FA217B30756
S1130A90E407F50720F0A21BB30BE40BF50B661F6C
S1130AA0771F881F991F1A9469F760957095809530
S1130AB090959B01AC01BD01CF010895AA1BBB1BFE
S1130AC051E107C0AA1FBB1FA617B70710F0A61B4A
S1130AD0B70B881F991F5A95A9F780959095BC016B
S1130AE0CD0108950F931F93CF93DF938230910527
S1130AF010F482E090E0E091C340F091C44020E023
S1130B0030E0A0E0B0E0309719F1408151810281DA
S1130B10138148175907C8F08417950769F410978B
S1130B2031F012960C93129713961C9327C00093DE
S1130B30C3401093C44022C02115310519F0421757
S1130B40530718F49A01BD01EF01DF01F801DBCF6F
S1130B5021153105F9F0281B390B2430310580F4B7
S1130B608A819B816115710521F0FB018283938346
S1130B7004C08093C3409093C440FE01329644C0A5
S1130B80FE01E20FF31F81939193225031092883D0
S1130B9039833AC02091C1403091C240232B41F4A3
S1130BA020910240309103402093C1403093C240D1
S1130BB020910040309101402115310541F42DB7B9
S1130BC03EB74091044050910540241B350BE09101
S1130BD0C140F091C240E217F307A0F42E1B3F0B73
S1130BE02817390778F0AC014E5F5F4F241735079B
S1130BF048F04E0F5F1F4093C1405093C240819311
S1130C00919302C0E0E0F0E0CF01DF91CF911F911A
S1130C100F910895CF93DF93009709F481C0FC01ED
S1130C20329712821382A091C340B091C4401097AE
S1130C3081F420813181820F931F2091C140309132
S1130C40C2402817390751F5E093C140F093C240E0
S1130C5067C0ED0120E030E0CE17DF0740F44A81A1
S1130C605B819E0141155105F1F0EA01F5CFC28384
S1130C70D38340815181840F951FC817D90759F434
S1130C8088819981840F951F0296808391838A813C
S1130C909B81828393832115310529F4E093C3401A
S1130CA0F093C4403DC0E901EA83FB834991599123
S1130CB0C40FD51FEC17FD0761F480819181840F67
S1130CC0951F0296E90188839983828193818A839F
S1130CD09B83E0E0F0E012968D919C91139700972E
S1130CE019F0FD01DC01F7CF8D919C9111979D01C5
S1130CF02E5F3F4F820F931F2091C1403091C2401D
S1130D002817390769F4309729F41092C3401092D8
S1130D10C44002C012821382A093C140B093C24067
S1130D20DF91CF9108956F927F928F929F92AF92AD
S1130D30BF92CF92DF92EF92FF920F931F93CF93C4
S1130D40DF93009789F4CB01DF91CF911F910F912D
S1130D50FF90EF90DF90CF90BF90AF909F908F90D7
S1130D607F906F900C947205FC01E60FF71F9C01B5
S1130D7022503109E217F30708F4A9C0EC01D901A4
S1130D800D911C91119706171707B0F00530110546
S1130D9008F49BC0C80104978617970708F495C008
S1130DA002501109061B170B019311936D937C9349
S1130DB0CF010E940A0689C05B01A01AB10A4C0146
S1130DC0800E911EA091C340B091C440612C712C3F
S1130DD0E12CF12C109709F446C08D919C91119748
S1130DE0A815B905B1F56C0142E0C40ED11CCA14B2
S1130DF0DB0478F14C018A189B08640142E0C40EBC
S1130E00D11C1296BC9012971396AC91B5E0CB16F8
S1130E10D10440F0B282A38380829182D9016D9380
S1130E207C9309C00E5F1F4F800F911FF9018083CF
S1130E309183EB2DFA2FE114F10431F0D7011296CE
S1130E40ED93FC93139741C0E093C340F093C440E7
S1130E503CC06816790608F43C017D0112960D9099
S1130E60BC91A02DB7CF8091C1409091C24088160B
S1130E709906E1F466167706C8F4809100409091D3
S1130E800140009741F48DB79EB7409104405091C2
S1130E900540841B950BE817F907C8F4E093C1409B
S1130EA0F093C240F901608371830FC0CB010E94AB
S1130EB072057C01009759F0A801BE010E947807D1
S1130EC0CE010E940A06C70104C0CE0102C080E020
S1130ED090E0DF91CF911F910F91FF90EF90DF9001
S1130EE0CF90BF90AF909F908F907F906F90089518
S1130EF0FB01DC0102C001900D9241505040D8F733
S1130F0008958F929F92AF92BF92CF92DF92EF9209
S1130F10FF920F931F93CF93DF935B014A017901F3
S1130F20D90113962C9121FF1DC0C0E0D0E0C81553
S1130F30D905D9F08C016C01CA0CDB1CC8010C1555
S1130F401D0571F00F5F1F4FD7011896ED91FC91AD
S1130F501997B701DC018C910995892B79F305C0A8
S1130F602196E5CF80E090E001C0CE01DF91CF91E2
S1130F701F910F91FF90EF90DF90CF90BF90AF90B3
S1130F809F908F900895CF93DF93CDB7DEB7AE01D6
S1130F904B5F5F4FFA0161917191AF018091C7403E
S1130FA09091C8400E940708DF91CF9108950F9354
S1130FB01F93CF93DF93E091C740F091C840238102
S1130FC021FF1BC08C01D0E0C0E0F80181918F01AA
S1130FD06091C7407091C840DB011896ED91FC9177
S1130FE01997882331F00995892B79F3DFEFCFEF37
S1130FF0ECCF8AE00995892B19F08FEF9FEF02C09F
S11310008D2F9C2FDF91CF911F910F9108952F92D7
S11310103F924F925F926F927F928F929F92AF9284
S1131020BF92CF92DF92EF92FF920F931F93CF93D1
S1131030DF93CDB7DEB72B97CDBFDEBF6C017B014D
S11310408A01FC0116821782838181FFCCC1CE0103
S113105001963C01F6019381F70193FD859193FF7D
S113106081917F01882309F4BAC1853239F493FD53
S1131070859193FF81917F01853229F4B60190E037
S11310800E94210AE7CF912C212C312CFFE1F3158A
S1131090D8F08B3279F038F4803279F08332A1F4CD
S11310A0232D20611DC08D3261F0803369F4232D1E
S11310B0216016C0832D8260382EE32DE4603E2E1D
S11310C02AC0F32DF8601DC037FC2DC020ED280F79
S11310D02A3040F08E32B9F436FC81C1232D2064CD
S11310E0322E19C036FE06C08AE0989E200D1124C7
S11310F0922E11C0EAE02E9E200D1124222EF32DF3
S1131100F0623F2E08C08C3621F4832D8068382E7F
S113111002C0883641F4F70193FD859193FF8191D4
S11311207F018111B3CF982F9F7D9554933028F47C
S11311300C5F1F4F9FE399830DC0833631F08337D3
S113114071F0833509F059C021C0F8018081898389
S11311500E5F1F4F88248394912C530113C02801E0
S1131160F2E04F0E511CF801A080B18036FE03C09E
S1131170692D70E002C06FEF7FEFC5010E94160A6F
S11311804C018201F32DFF773F2E16C0280122E087
S1131190420E511CF801A080B18036FE03C0692DB7
S11311A070E002C06FEF7FEFC5010E940B0A4C0193
S11311B0F32DF0683F2E820133FC1BC0822D90E09A
S11311C088169906B0F4B60180E290E00E94210AE4
S11311D02A94F4CFF50137FC859137FE81915F01A4
S11311E0B60190E00E94210A21102A9421E0821A7B
S11311F091088114910471F7E8C0843611F089369E
S113120041F5F80137FE07C06081718182819381C5
S11312100C5F1F4F08C060817181072E000C880B82
S1131220990B0E5F1F4FF32DFF763F2E97FF09C0DA
S113123090958095709561957F4F8F4F9F4FF06883
S11312403F2E2AE030E0A3010E945D0A882E861812
S113125045C0853731F4232D2F7EB22E2AE030E0AD
S113126025C0932D997FB92E8F36C1F018F4883597
S113127079F0B5C0803719F0883721F0B0C0E92F74
S1131280E061BE2EB4FE0DC0FB2DF460BF2E09C07C
S113129034FE0AC0292F2660B22E06C028E030E0B2
S11312A005C020E130E002C020E132E0F801B7FEE1
S11312B007C060817181828193810C5F1F4F06C0DA
S11312C06081718180E090E00E5F1F4FA3010E9456
S11312D05D0A882E8618FB2DFF773F2E36FE0DC043
S11312E0232D2E7FA22E891458F434FE0BC032FC19
S11312F009C0832D8E7EA82E05C0B82CA32C03C054
S1131300B82C01C0B92CA4FE0FC0FE01E80DF11DDC
S11313108081803321F49A2D997EA92E09C0A2FEE2
S113132006C0B394B39404C08A2D867809F0B394AC
S1131330A3FC11C0A0FE06C0B21488F4280C922CA1
S11313409B180EC0B21460F4B60180E290E00E94D3
S1131350210AB394F7CFB21418F42B1802C0982CB6
S1131360212CA4FE10C0B60180E390E00E94210A63
S1131370A2FE17C0A1FC03C088E790E002C088E584
S113138090E0B6010CC08A2D867859F0A1FE02C007
S11313908BE201C080E2A7FC8DE2B60190E00E94DE
S11313A0210A891438F4B60180E390E00E94210AEE
S11313B09A94F7CF8A94F301E80DF11D8081B60168
S11313C090E00E94210A8110F5CF222009F442CE38
S11313D0B60180E290E00E94210A2A94F6CFF60139
S11313E08681978102C08FEF9FEF2B96CDBFDEBF22
S11313F0DF91CF911F910F91FF90EF90DF90CF90ED
S1131400BF90AF909F908F907F906F905F904F9020
S11314103F902F900895FC01059061507040011099
S1131420D8F7809590958E0F9F1F0895FC01615009
S1131430704001900110D8F7809590958E0F9F1FF2
S113144008950F931F93CF93DF93FB01238121FD15
S113145003C08FEF9FEF2CC022FF16C04681578137
S1131460248135814217530744F4A081B1819D0141
S11314702F5F3F4F208331838C93268137812F5FE9
S11314803F4F2683378314C08B01EC01FB0100849A
S1131490F185E02D0995892BE1F6D80116968D91F9
S11314A09C911797019616968D939C931797CE014E
S11314B0DF91CF911F910F910895FA01AA27283047
S11314C051F1203181F1E8946F936E7F6E5F7F4F0D
S11314D08F4F9F4FAF4FB1E03ED0B4E03CD0670F89
S11314E0781F891F9A1FA11D680F791F8A1F911DDC
S11314F0A11D6A0F711D811D911DA11D20D009F42C
S113150068943F912AE0269F11243019305D31936D
S1131510DEF6CF010895462F4770405D4193B3E056
S11315200FD0C9F7F6CF462F4F70405D4A3318F0FD
S1131530495D31FD4052419302D0A9F7EACFB4E0AE
S1131540A6959795879577956795BA95C9F7009766
S11315506105710508959B01AC010A2E0694579507
S1131560479537952795BA95C9F7620F731F841F5E
S10D1570951FA01D0895F894FFCF05
S113157A0000CB402000000000030000000023020A
S113158A8E020000446F20796F752077616E742093
S113159A746F206368616E6765206672657175652C
S11315AA6E6379206F7220706F736974696F6E3F0E
S11315BA2028462F50290025630A00467265717552
S11315CA656E63793A2000506F736974696F6E3A75
S10D15DA20002A72696E672A0A00D5
S9030000FC
