:100000000C947A000C9499000C9499000C9499002B
:100010000C9499000C9499000C9499000C949900FC
:100020000C9499000C9499000C9499000C949900EC
:100030000C9499000C9499000C9499000C949900DC
:100040000C9499000C9499000C9499000C949900CC
:100050000C9499000C9499000C9499000C949900BC
:100060000C9499000C9499000C9499000C949900AC
:100070000C9499000C9499000C9499000C9499009C
:100080000C9499000C9499000C9499000C9499008C
:100090000C9499000C9499000C9499000C9499007C
:1000A0000C9499000C9499000C9499000C9499006C
:1000B0000C9499000C9469010C9499000C942801FB
:1000C0000C9499000C9499000C9499000C9499004C
:1000D0000C9499000C9499000C9499000C9499003C
:1000E0000C9499000C9499000C9499000C9499002C
:1000F0000C94990011241FBECFEFCDBFDFE7DEBF08
:1001000010E4A0E0B0E4E2EAFCE000E00BBF02C0D3
:1001100007900D92A032B107D9F720E4A0E2B0E435
:1001200001C01D92A838B207E1F70E94CC000C94E0
:100130004F060C94000088ED84BFE0E6F0E095E007
:1001400090A384BF83E080838091650084FFFCCF0F
:100150000895E0E4FAE011828FE190E086A397A38E
:1001600081E082878081816080830895E0E0FAE009
:1001700091E0918323E83EE120A731A7818180614E
:10018000818380818F608083E0EEF5E086818360EB
:1001900086839093610408950E949B000E94B6009C
:1001A0000E94A900E0E6F4E0808180688083E0E2BC
:1001B000F4E0108282898860828B20E030E040E8A1
:1001C00055E260E070E083E00E9402037894809141
:1001D0002C4090912D40A0912E40B0912F40803422
:1001E0009244AF40B10598F340912C4050912D407E
:1001F00060912E4070912F4080912840909129402D
:10020000A0912A40B0912B407F936F935F934F93BF
:10021000BF93AF939F938F938EE090E49F938F93C0
:100220000E948703109228401092294010922A4081
:1002300010922B4010922C4010922D4010922E4084
:1002400010922F408DB79EB70A968DBF9EBFBFCF2D
:100250001F920F920FB60F9211240BB60F922F938D
:100260008F939F93AF93BF93EF93FF9380912C4015
:1002700090912D40A0912E40B0912F408F3F9F4FE5
:10028000AF4FBF4F99F080912C4090912D40A0919D
:100290002E40B0912F400196A11DB11D80932C409E
:1002A00090932D40A0932E40B0932F40E0E4FAE0CD
:1002B000838581608387FF91EF91BF91AF919F917B
:1002C0008F912F910F900BBE0F900FBE0F901F902C
:1002D00018951F920F920FB60F9211240BB60F9222
:1002E0002F938F939F93AF93BF93EF93FF9380913F
:1002F000290485FF1AC0E0E2F4E0818580628187ED
:100300008091204090912140A0912240B0912340C3
:1003100080319742A105B10540F010922040109223
:10032000214010922240109223408091290482FFA4
:100330001AC0E0E2F4E081858460818780912440E6
:1003400090912540A0912640B0912740803197425E
:10035000A105B10540F01092244010922540109262
:10036000264010922740FF91EF91BF91AF919F914E
:100370008F912F910F900BBE0F900FBE0F901F907B
:100380001895CF93DF93811106C081E0809301041B
:10039000C0E0D8E019C0813029F480934104C0E264
:1003A000D8E012C0823031F481E08093A104C0E42F
:1003B000D8E00AC0833031F481E080932104C0E6A4
:1003C000D8E002C0C0E0D0E0DB01CA01880F991F6D
:1003D000AA1FBB1F880F991FAA1FBB1F9C01AD013D
:1003E000220F331F441F551F220F331F441F551F59
:1003F00060E070E089E09DE30E942303288739874D
:100400008E81806C8E83CE01DF91CF910895FC01A7
:1004100062830895FC01948195FFFDCF0895FC014E
:1004200094819923ECF7808190E008950F931F93B6
:10043000CF93C82F8B01873069F42091864030918B
:10044000874047E050E061E070E087E190E40E947F
:1004500045030FC08A3019F48DE00E941602F8019E
:1004600004851585C8010E940A026C2FC8010E94EC
:10047000070280E090E0CF911F910F910895EF92D5
:10048000FF920F931F93CF93DF9320918040309181
:100490008140232B09F09AC08C01C0E3D0E4F8011D
:1004A000848595850E940F028D3009F48AE08A3098
:1004B00059F48883B8010E94160280E390E4809387
:1004C00080409093814082C0893009F480E290EEB0
:1004D000980F9F3510F0803A98F0F0E4CF37DF079F
:1004E00029F4B80187E00E941602D9CF7E019FEF60
:1004F000E91AF90A8883B8010E941602E701CFCFF2
:10050000823119F130F4833009F473C0883049F036
:10051000C6CF873109F44EC08F3719F08531B9F154
:10052000BECFE0E4C033DE0709F008F4B8CFB8016D
:1005300088E00E941602B80180E20E941602B8010B
:1005400088E00E9416022197AACFB8018DE00E9490
:1005500016020F2EF0E3EF2EF0E4FF2EF02D06C072
:10056000B801F70181917F010E941602EC16FD0689
:10057000B8F395CFB80188E00E941602B80180E276
:100580000E941602B80188E00E9416022197F0E44A
:10059000C033DF0709F070F782CFB80188E00E940E
:1005A0001602B80180E20E941602B80188E00E949B
:1005B0001602219780E4C033D80709F008F46FCF02
:1005C000FE0131978081803241F769CFE091804010
:1005D000F0918140CF0101968093804090938140BB
:1005E00080818A3021F4109280401092814090E006
:1005F00002C08FEF9FEFDF91CF911F910F91FF907E
:10060000EF900895CF93DF93E901209749F09EE0A2
:10061000E0E0F0E4D90101900D929A95E1F70BC06A
:10062000E2E8F0E420E030E4228333832083318366
:1006300024833583E9010E94C1018C879D87CE0107
:10064000DF91CF910895A1E21A2EAA1BBB1BFD01D9
:100650000DC0AA1FBB1FEE1FFF1FA217B307E407A1
:10066000F50720F0A21BB30BE40BF50B661F771FF9
:10067000881F991F1A9469F76095709580959095D9
:100680009B01AC01BD01CF0108958F929F92AF9263
:10069000BF92CF92DF92EF92FF920F931F93CF936F
:1006A000DF935B014A017901D90113962C9121FF57
:1006B0001DC0C0E0D0E0C815D905D9F08C016C018F
:1006C000CA0CDB1CC8010C151D0571F00F5F1F4F14
:1006D000D7011896ED91FC911997B701DC018C9127
:1006E0000995892B79F305C02196E5CF80E090E04C
:1006F00001C0CE01DF91CF911F910F91FF90EF903C
:10070000DF90CF90BF90AF909F908F900895CF9340
:10071000DF93CDB7DEB7AE014B5F5F4FFA0161915A
:100720007191AF0180918440909185400E949B031C
:10073000DF91CF9108952F923F924F925F926F92E7
:100740007F928F929F92AF92BF92CF92DF92EF9261
:10075000FF920F931F93CF93DF93CDB7DEB72B9705
:10076000CDBFDEBF6C017B018A01FC0116821782BE
:10077000838181FFCCC1CE0101963C01F6019381BA
:10078000F70193FD859193FF81917F01882309F4FF
:10079000BAC1853239F493FD859193FF81917F0130
:1007A000853229F4B60190E00E94B505E7CF912C7F
:1007B000212C312CFFE1F315D8F08B3279F038F48D
:1007C000803279F08332A1F4232D20611DC08D3257
:1007D00061F0803369F4232D216016C0832D82607F
:1007E000382EE32DE4603E2E2AC0F32DF8601DC0A4
:1007F00037FC2DC020ED280F2A3040F08E32B9F49E
:1008000036FC81C1232D2064322E19C036FE06C06D
:100810008AE0989E200D1124922E11C0EAE02E9EAF
:10082000200D1124222EF32DF0623F2E08C08C36AD
:1008300021F4832D8068382E02C0883641F4F701F8
:1008400093FD859193FF81917F018111B3CF982F03
:100850009F7D9554933028F40C5F1F4F9FE399833D
:100860000DC0833631F0833771F0833509F059C0FC
:1008700021C0F801808189830E5F1F4F88248394F3
:10088000912C530113C02801F2E04F0E511CF801C6
:10089000A080B18036FE03C0692D70E002C06FEF0A
:1008A0007FEFC5010E94AA054C018201F32DFF775D
:1008B0003F2E16C0280122E0420E511CF801A080F4
:1008C000B18036FE03C0692D70E002C06FEF7FEF8C
:1008D000C5010E949F054C01F32DF0683F2E820157
:1008E00033FC1BC0822D90E088169906B0F4B60147
:1008F00080E290E00E94B5052A94F4CFF50137FC20
:10090000859137FE81915F01B60190E00E94B505A7
:1009100021102A9421E0821A91088114910471F720
:10092000E8C0843611F0893641F5F80137FE07C07A
:1009300060817181828193810C5F1F4F08C060814B
:100940007181072E000C880B990B0E5F1F4FF32D42
:10095000FF763F2E97FF09C0909580957095619521
:100960007F4F8F4F9F4FF0683F2E2AE030E0A3016A
:100970000E94F105882E861845C0853731F4232D55
:100980002F7EB22E2AE030E025C0932D997FB92E1C
:100990008F36C1F018F4883579F0B5C0803719F07A
:1009A000883721F0B0C0E92FE061BE2EB4FE0DC043
:1009B000FB2DF460BF2E09C034FE0AC0292F26602B
:1009C000B22E06C028E030E005C020E130E002C0D1
:1009D00020E132E0F801B7FE07C0608171818281B9
:1009E00093810C5F1F4F06C06081718180E090E0B1
:1009F0000E5F1F4FA3010E94F105882E8618FB2D64
:100A0000FF773F2E36FE0DC0232D2E7FA22E891498
:100A100058F434FE0BC032FC09C0832D8E7EA82E04
:100A200005C0B82CA32C03C0B82C01C0B92CA4FE5F
:100A30000FC0FE01E80DF11D8081803321F49A2D55
:100A4000997EA92E09C0A2FE06C0B394B39404C037
:100A50008A2D867809F0B394A3FC11C0A0FE06C0CD
:100A6000B21488F4280C922C9B180EC0B21460F4B7
:100A7000B60180E290E00E94B505B394F7CFB214BE
:100A800018F42B1802C0982C212CA4FE10C0B6011B
:100A900080E390E00E94B505A2FE17C0A1FC03C050
:100AA00088E790E002C088E590E0B6010CC08A2D8E
:100AB000867859F0A1FE02C08BE201C080E2A7FC5B
:100AC0008DE2B60190E00E94B505891438F4B601B4
:100AD00080E390E00E94B5059A94F7CF8A94F301E1
:100AE000E80DF11D8081B60190E00E94B5058110EE
:100AF000F5CF222009F442CEB60180E290E00E94B8
:100B0000B5052A94F6CFF6018681978102C08FEF52
:100B10009FEF2B96CDBFDEBFDF91CF911F910F913D
:100B2000FF90EF90DF90CF90BF90AF909F908F900D
:100B30007F906F905F904F903F902F900895FC01B1
:100B40000590615070400110D8F7809590958E0FF8
:100B50009F1F0895FC016150704001900110D8F76B
:100B6000809590958E0F9F1F08950F931F93CF939D
:100B7000DF93FB01238121FD03C08FEF9FEF2CC08A
:100B800022FF16C0468157812481358142175307C1
:100B900044F4A081B1819D012F5F3F4F20833183B9
:100BA0008C93268137812F5F3F4F2683378314C074
:100BB0008B01EC01FB010084F185E02D0995892B67
:100BC000E1F6D80116968D919C911797019616968D
:100BD0008D939C931797CE01DF91CF911F910F9129
:100BE0000895FA01AA27283051F1203181F1E894C3
:100BF0006F936E7F6E5F7F4F8F4F9F4FAF4FB1E010
:100C00003ED0B4E03CD0670F781F891F9A1FA11D0A
:100C1000680F791F8A1F911DA11D6A0F711D811D0B
:100C2000911DA11D20D009F468943F912AE0269FD0
:100C300011243019305D3193DEF6CF010895462F2F
:100C40004770405D4193B3E00FD0C9F7F6CF462F10
:100C50004F70405D4A3318F0495D31FD4052419379
:100C600002D0A9F7EACFB4E0A69597958795779536
:100C70006795BA95C9F700976105710508959B01BD
:100C8000AC010A2E06945795479537952795BA9546
:100C9000C9F7620F731F841F951FA01D0895F89454
:020CA000FFCF84
:100CA200000000030000000016023F020000256C55
:100CB2006409256C640A002A72696E672A0A0000B8
:00000001FF
