S00F000050574D5F4C61622E73726563B3
S11300000C94F7000C9416010C9416010C94160130
S11300100C9416010C9416010C9416010C94160100
S11300200C9416010C9416010C9416010C941601F0
S11300300C9416010C9416010C9416010C941601E0
S11300400C9416010C9416010C9416010C941601D0
S11300500C9416010C9416010C9416010C941601C0
S11300600C9416010C9416010C9416010C941601B0
S11300700C9416010C9416010C9416010C941601A0
S11300800C9416010C9416010C9416010C94160190
S11300900C9416010C9416010C9416010C94160180
S11300A00C9416010C9416010C9416010C94160170
S11300B00C9416010C9416010C9416010C945B021A
S11300C00C9416010C9416010C9416010C94160150
S11300D00C9416010C9416010C9416010C94160140
S11300E00C9416010C9416010C9416010C94160130
S11300F00C94160100407A10F35A00A0724E1809AD
S11301000010A5D4E80000E87648170000E40B547A
S1130110020000CA9A3B000000E1F5050000809649
S11301209800000040420F000000A086010000007B
S1130130102700000000E803000000006400000035
S113014000000A00000000000100000000002C76FE
S1130150D888DC674F0823DFC1DFAE59E1B1B79619
S1130160E5E3E453C63AE651997696E8E6C2842676
S1130170EB898C9B62ED407C6FFCEFBC9C9F40F252
S1130180BAA56FA5F490055A2AF75C936B6CF967CE
S11301906DC11BFCE0E40D47FEF520E6B500D0ED93
S11301A0902E0300943577050080841E08000020FB
S11301B04E0A000000C80C333333330F986E128399
S11301C01141EF8D2114893BE65516CFFEE6DB186D
S11301D0D1844B381BF77C1D901DA4BBE424203232
S11301E084725E228100C9F124ECA1E53D2711242B
S11301F01FBECFEFCDBFDFE7DEBF10E4A0E0B0E469
S1130200E8E2F7E100E00BBF02C007900D92AC32C8
S1130210B107D9F720E4ACE2B0E401C01D92A039E3
S1130220B207E1F70E9494010C94920B0C94000025
S113023088ED84BFE0E6F0E095E090A384BF83E01E
S113024080838091650084FFFCCF0895E0E0FAE0AC
S113025083E081838081846080838FEF9FE086A325
S113026097A314A615A6818180648183A0EEB5E0CE
S113027016968C911697826016968C93A0E4B4E03F
S113028011968C911197846011968C938081816072
S113029080830895E0E4FAE083E0818380818660CE
S11302A080838FEC97E086A397A387EC90E084A7E4
S11302B095A781E08287818180648183A0EEB5E087
S11302C016968C91169716968C93A0E2B4E011962C
S11302D08C911197846011968C93808181608083C6
S11302E0089520E030EE49EF54E40E9438050E945E
S11302F07B0460936C0A70936D0A0895E0E0F6E065
S113030088E0808782E0828380E2838385E0809333
S1130310B00081E0808380910A0680FDFCCF0895BF
S113032081E080930A060895CF93DF93CDB7DEB7BB
S11303302697CDBFDEBF0E9418010E9426010E94AD
S11303404A010E947E0120E030E040E855E260E08E
S113035070E083E00E94E10380E190E40E9465067E
S113036078948091364090913740883E934008F4C9
S113037047C010923640109237400E94900160911D
S1130380304070913140072E000C880B990B0E946D
S1130390AC0420E030E048EC52E40E9438056B01E4
S11303A07C016091004070910140072E000C880B85
S11303B0990B0E94AC049B01AC01C701B6010E94D9
S11303C002049E012F5F3F4F7901890122E044E03E
S11303D00E94EF05FF92EF92809131408F938091BC
S11303E030408F93809101408F93809100408F9390
S11303F08AE190E49F938F930E945106CDBFDEBFA4
S1130400609110067091110680E090E00E94AA04A9
S113041020E030E040E859E30E9438056093324020
S11304207093334080933440909335400E9471011F
S113043020E030E04AE754E4609132407091334068
S113044080913440909135400E9438050E94740494
S11304506B017C01609300407093014060913040D7
S113046070913140072E000C880B990B0E94AC044C
S11304704B015C01B601DD0C880B990B0E94AC04A6
S11304809B01AC01C501B4010E94020420E030E0EC
S113049040E855E40E94380560932C4070932D4049
S11304A080932E4090932F400E947B0460933C0ADB
S11304B070933D0A56CF1F920F920FB60F921124DC
S11304C00BB60F922F935F936F937F938F939F93AA
S11304D0AF93BF93EF93FF93809136409091374051
S11304E0019649F08091364090913740019680936F
S11304F0364090933740809130409091314001963E
S113050060910040709101400E94A50580933040A5
S113051090933140E0E4FAE0838581608387FF9122
S1130520EF91BF91AF919F918F917F916F915F9167
S11305302F910F900BBE0F900FBE0F901F90189528
S1130540CF93DF93811106C081E080930104C0E062
S1130550D8E019C0813029F480934104C0E2D8E086
S113056012C0823031F481E08093A104C0E4D8E069
S11305700AC0833031F481E080932104C0E6D8E0DE
S113058002C0C0E0D0E0DB01CA01880F991FAA1F96
S1130590BB1F880F991FAA1FBB1F9C01AD01220F0F
S11305A0331F441F551F220F331F441F551F60E084
S11305B070E089E09DE30E94B905288739878E8120
S11305C0806C8E83CE01DF91CF910895FC0162830C
S11305D00895FC01948195FFFDCF0895FC01948159
S11305E09923ECF7808190E008950F931F93CF93A4
S11305F0C82F8B01873069F420918E4030918F4051
S113060047E050E061E070E084E290E40E940F066D
S11306100FC08A3019F48DE00E94F502F8010485B8
S11306201585C8010E94E9026C2FC8010E94E602E8
S113063080E090E0CF911F910F910895EF92FF9287
S11306400F931F93CF93DF9320918840309189407B
S1130650232B09F09AC08C01C8E3D0E4F801848507
S113066095850E94EE028D3009F48AE08A3059F4AF
S11306708883B8010E94F50288E390E4809388405F
S11306809093894082C0893009F480E290EE980FFB
S11306909F3510F0803A98F0F0E4C738DF0729F46A
S11306A0B80187E00E94F502D9CF7E019FEFE91AD5
S11306B0F90A8883B8010E94F502E701CFCF82319D
S11306C019F130F4833009F473C0883049F0C6CF8F
S11306D0873109F44EC08F3719F08531B9F1BECF97
S11306E0E0E4C833DE0709F008F4B8CFB80188E0C5
S11306F00E94F502B80180E20E94F502B80188E088
S11307000E94F5022197AACFB8018DE00E94F5025C
S11307100F2EF8E3EF2EF0E4FF2EF02D06C0B80103
S1130720F70181917F010E94F502EC16FD06B8F3F2
S113073095CFB80188E00E94F502B80180E20E94DA
S1130740F502B80188E00E94F5022197F0E4C8336D
S1130750DF0709F070F782CFB80188E00E94F50244
S1130760B80180E20E94F502B80188E00E94F50217
S1130770219780E4C833D80709F008F46FCFFE014D
S113078031978081803241F769CFE0918840F091C0
S11307908940CF010196809388409093894080815D
S11307A08A3021F4109288401092894090E002C06F
S11307B08FEF9FEFDF91CF911F910F91FF90EF90FB
S11307C00895CF93DF93E901209749F09EE0E2E09A
S11307D0F0E4D90101900D929A95E1F70BC0EAE893
S11307E0F0E422E030E422833383208331832483C2
S11307F03583E9010E94A0028C879D87CE01DF9199
S1130800CF9108950E9416040C94FE040E94F704EC
S113081058F00E94F00440F029F45F3F29F00C9452
S1130820E70451110C9432050C94ED040E940F0559
S113083068F39923B1F3552391F3951B550BBB270B
S1130840AA2762177307840738F09F5F5F4F220F50
S1130850331F441FAA1FA9F335D00E2E3AF0E0E847
S113086032D091505040E695001CCAF72BD0FE2F91
S113087029D0660F771F881FBB1F26173707480725
S1130880AB07B0E809F0BB0B802DBF01FF279358DD
S11308905F4F3AF09E3F510578F00C94E7040C94B6
S11308A032055F3FE4F3983ED4F3869577956795D8
S11308B0B795F7959F5FC9F7880F911D9695879512
S11308C097F90895E1E0660F771F881FBB1F621731
S11308D073078407BA0720F0621B730B840BBA0BEF
S11308E0EE1F88F7E09508950E947B046894B11187
S11308F00C94320508950E94170588F09F5798F0CC
S1130900B92F9927B751B0F0E1F0660F771F881F10
S1130910991F1AF0BA95C9F714C0B13091F00E942A
S11309203105B1E008950C943105672F782F88279D
S1130930B85F39F0B93FCCF3869577956795B39551
S1130940D9F73EF490958095709561957F4F8F4FC0
S11309509F4F0895E89409C097FB3EF490958095C5
S1130960709561957F4F8F4F9F4F9923A9F0F92F71
S113097096E9BB279395F695879577956795B795EF
S1130980F111F8CFFAF4BB0F11F460FF1BC06F5FD5
S11309907F4F8F4F9F4F16C0882311F096E911C0E7
S11309A0772321F09EE8872F762F05C0662371F008
S11309B096E8862F70E060E02AF09A95660F771F1C
S11309C0881FDAF7880F9695879597F9089597F910
S11309D09F6780E870E060E008959FEF80EC0895E1
S11309E000240A941616170618060906089500240A
S11309F00A9412161306140605060895092E039484
S1130A00000C11F4882352F0BB0F40F4BF2B11F4F7
S1130A1060FF04C06F5F7F4F8F4F9F4F089557FD56
S1130A209058440F551F59F05F3F71F04795880F58
S1130A3097FB991F61F09F3F79F0879508951216EF
S1130A4013061406551FF2CF4695F1DF08C016169B
S1130A5017061806991FF1CF86957105610508944C
S1130A600895E894BB2766277727CB0197F9089563
S1130A700E944B050C94FE040E94F00438F00E947E
S1130A80F70420F0952311F00C94E7040C94ED0482
S1130A9011240C9432050E940F0570F3959FC1F345
S1130AA0950F50E0551F629FF001729FBB27F00D18
S1130AB0B11D639FAA27F00DB11DAA1F649F66276D
S1130AC0B00DA11D661F829F2227B00DA11D621FBC
S1130AD0739FB00DA11D621F839FA00D611D221F76
S1130AE0749F3327A00D611D231F849F600D211D5A
S1130AF0822F762F6A2F11249F5750409AF0F1F0DD
S1130B0088234AF0EE0FFF1FBB1F661F771F881F45
S1130B1091505040A9F79E3F510580F00C94E70492
S1130B200C9432055F3FE4F3983ED4F386957795B1
S1130B306795B795F795E7959F5FC1F7FE2B880FEB
S1130B40911D9695879597F9089597FB072E16F4AE
S1130B50009407D077FD09D00E94DB0507FC05D07F
S1130B603EF4909581959F4F0895709561957F4FC0
S1130B700895A1E21A2EAA1BBB1BFD010DC0AA1FDA
S1130B80BB1FEE1FFF1FA217B307E407F50720F0F2
S1130B90A21BB30BE40BF50B661F771F881F991F6D
S1130BA01A9469F760957095809590959B01AC01B6
S1130BB0BD01CF010895AA1BBB1B51E107C0AA1FA9
S1130BC0BB1FA617B70710F0A61BB70B881F991FEA
S1130BD05A95A9F780959095BC01CD010895EF929F
S1130BE00F931F93CF93DF93E80147FD02C034E0D6
S1130BF001C034E1042E000C550B57FF03C051957E
S1130C0041955109E32E022F242FAE010E94990829
S1130C10CE01DF91CF911F910F91EF9008958F92A4
S1130C209F92AF92BF92CF92DF92EF92FF920F9377
S1130C301F93CF93DF935B014A017901D901139686
S1130C402C9121FF1DC0C0E0D0E0C815D905D9F012
S1130C508C016C01CA0CDB1CC8010C151D0571F05C
S1130C600F5F1F4FD7011896ED91FC911997B701AB
S1130C70DC018C910995892B79F305C02196E5CF88
S1130C8080E090E001C0CE01DF91CF911F910F91E0
S1130C90FF90EF90DF90CF90BF90AF909F908F9098
S1130CA00895CF93DF93CDB7DEB7AE014B5F5F4FAF
S1130CB0FA0161917191AF0180918C4090918D40C6
S1130CC00E949506DF91CF9108950F931F93CF93C0
S1130CD0DF93E0918C40F0918D40238121FF1BC074
S1130CE08C01D0E0C0E0F80181918F0160918C40CB
S1130CF070918D40DB011896ED91FC911997882332
S1130D0031F00995892B79F3DFEFCFEFECCF8AE04F
S1130D100995892B19F08FEF9FEF02C08D2F9C2F1F
S1130D20DF91CF911F910F9108952F923F924F928F
S1130D305F926F927F928F929F92AF92BF92CF9267
S1130D40DF92EF92FF920F931F93CF93DF93CDB770
S1130D50DEB72B97CDBFDEBF6C017B018A01FC019E
S1130D6016821782838181FFCCC1CE0101963C019A
S1130D70F6019381F70193FD859193FF81917F01A2
S1130D80882309F4BAC1853239F493FD859193FF20
S1130D9081917F01853229F4B60190E00E94F80A1E
S1130DA0E7CF912C212C312CFFE1F315D8F08B32B5
S1130DB079F038F4803279F08332A1F4232D206164
S1130DC01DC08D3261F0803369F4232D216016C07B
S1130DD0832D8260382EE32DE4603E2E2AC0F32D4D
S1130DE0F8601DC037FC2DC020ED280F2A3040F0DC
S1130DF08E32B9F436FC81C1232D2064322E19C001
S1130E0036FE06C08AE0989E200D1124922E11C051
S1130E10EAE02E9E200D1124222EF32DF0623F2EA7
S1130E2008C08C3621F4832D8068382E02C08836A1
S1130E3041F4F70193FD859193FF81917F01811125
S1130E40B3CF982F9F7D9554933028F40C5F1F4F98
S1130E509FE399830DC0833631F0833771F0833576
S1130E6009F059C021C0F801808189830E5F1F4FAA
S1130E7088248394912C530113C02801F2E04F0E6F
S1130E80511CF801A080B18036FE03C0692D70E0CA
S1130E9002C06FEF7FEFC5010E94ED0A4C01820191
S1130EA0F32DFF773F2E16C0280122E0420E511C7D
S1130EB0F801A080B18036FE03C0692D70E002C045
S1130EC06FEF7FEFC5010E94E20A4C01F32DF06839
S1130ED03F2E820133FC1BC0822D90E088169906B8
S1130EE0B0F4B60180E290E00E94F80A2A94F4CFAC
S1130EF0F50137FC859137FE81915F01B60190E0E1
S1130F000E94F80A21102A9421E0821A910881147F
S1130F10910471F7E8C0843611F0893641F5F8017F
S1130F2037FE07C060817181828193810C5F1F4FFE
S1130F3008C060817181072E000C880B990B0E5F2D
S1130F401F4FF32DFF763F2E97FF09C09095809594
S1130F50709561957F4F8F4F9F4FF0683F2E2AE029
S1130F6030E0A3010E94340B882E861845C08537D3
S1130F7031F4232D2F7EB22E2AE030E025C0932DAC
S1130F80997FB92E8F36C1F018F4883579F0B5C041
S1130F90803719F0883721F0B0C0E92FE061BE2E08
S1130FA0B4FE0DC0FB2DF460BF2E09C034FE0AC090
S1130FB0292F2660B22E06C028E030E005C020E1CB
S1130FC030E002C020E132E0F801B7FE07C06081E2
S1130FD07181828193810C5F1F4F06C06081718192
S1130FE080E090E00E5F1F4FA3010E94340B882E17
S1130FF08618FB2DFF773F2E36FE0DC0232D2E7F46
S1131000A22E891458F434FE0BC032FC09C0832D7F
S11310108E7EA82E05C0B82CA32C03C0B82C01C00A
S1131020B92CA4FE0FC0FE01E80DF11D80818033B0
S113103021F49A2D997EA92E09C0A2FE06C0B3946C
S1131040B39404C08A2D867809F0B394A3FC11C02C
S1131050A0FE06C0B21488F4280C922C9B180EC073
S1131060B21460F4B60180E290E00E94F80AB394EE
S1131070F7CFB21418F42B1802C0982C212CA4FE1C
S113108010C0B60180E390E00E94F80AA2FE17C0E7
S1131090A1FC03C088E790E002C088E590E0B601B7
S11310A00CC08A2D867859F0A1FE02C08BE201C0E3
S11310B080E2A7FC8DE2B60190E00E94F80A891450
S11310C038F4B60180E390E00E94F80A9A94F7CFCE
S11310D08A94F301E80DF11D8081B60190E00E942D
S11310E0F80A8110F5CF222009F442CEB60180E23D
S11310F090E00E94F80A2A94F6CFF601868197813F
S113110002C08FEF9FEF2B96CDBFDEBFDF91CF9153
S11311101F910F91FF90EF90DF90CF90BF90AF9011
S11311209F908F907F906F905F904F903F902F9003
S113113008958F929F92AF92BF92CF92DF92EF92D7
S1131140FF920F931F93CF93DF93CDB7DEB7299709
S1131150CDBFDEBF6A01122FB02E2BE3201720F083
S1131160FF24F394F00E02C02CE3F22E0F2D27E09F
S1131170AE014F5F5F4F0E940A0ABC014981842F70
S11311808970813031F0E1FC06C0E0FE06C090E2D7
S113119005C09DE203C09BE201C090E05E2D50714A
S11311A043FF3CC0911102C083E001C084E0811779
S11311B018F4212F281B01C020E051110BC0F601A7
S11311C0822F30E2882319F031938150FBCFC20E75
S11311D0D11C20E0992329F0D6019C93F601319685
S11311E06F01C6010396E2FE0AC03EE4D6013C93B9
S11311F041E411964C93119712963C9306C03EE637
S1131200F601308341E641833283FC01322F40E210
S1131210332309F442C041933150FACF42FF44C012
S1131220911102C083E001C084E0811718F4212FDA
S1131230281B01C020E051110BC0F601822F30E2BF
S1131240882319F031938150FBCFC20ED11C20E0CA
S1131250992329F0D6019C93F60131966F01C601BA
S11312600396E2FE0BC039E4D6013C933EE41196AA
S11312703C93119736E412963C9307C039E6F60185
S113128030833EE6318336E63283FC01322F40E27E
S1131290332319F041933150FBCFFC01E20FF11DD0
S11312A010828EEF9FEFA6C021E030E0911102C0C2
S11312B020E030E0161617061CF4FB01319602C03C
S11312C0E1E0F0E02E0F3F1FBB2021F0EB2DF0E01A
S11312D0319602C0E0E0F0E02E0F3F1FE12FF0E076
S11312E02E173F071CF4121B212F01C020E08E2D66
S11312F0887159F4F601822F30E2882319F0319372
S11313008150FBCFC20ED11C20E0992329F0D601D5
S11313109C93F60131966F0151110BC0F601822F97
S113132090E3882319F091938150FBCFC20ED11C16
S113133020E00F2D060F9A81342F307144FF03C033
S1131340913309F40150101624F4093018F008E020
S113135001C001E0AB0177FF02C040E050E0FB01B7
S1131360E41BF50BA1E0B0E0AC0FBD1FEA0FFB1FBF
S11313708EE2A82E4B01801A91080B2D10E01195D6
S1131380019511094F3FBFEF5B0721F4D601AC92E1
S113139011966D01641775072CF08416950614F4E4
S11313A0818101C080E3415051093196D6011196E3
S11313B07D014017510724F0D6018C936701E2CFD9
S11313C06417750739F4963320F4953319F4311101
S11313D001C081E3F6018083F701822F90E2882324
S11313E019F091938150FBCFF701E20FF11D1082A8
S11313F080E090E02996CDBFDEBFDF91CF911F91B1
S11314000F91FF90EF90DF90CF90BF90AF909F909F
S11314108F900895283008F027E03327DA01990FD8
S1131420311D87FD916000966105710539F43260C4
S11314302E5F3D9330E32A95E1F708959F3F30F006
S113144080387105610509F03C5F3C5F3D93913044
S113145008F08068911DDF93CF931F930F93FF9241
S1131460EF92192F987F9695E92F96959695E90F07
S1131470FF27E25BFE4F99273327EE24FF24A701C1
S1131480E70105900894079428F4360FE71EF81E28
S1131490491F511D660F771F881F991F0694A1F7D6
S11314A00590079428F4E70EF81E491F561FC11D26
S11314B0770F881F991F661F0694A1F7059007945C
S11314C028F4F80E491F561FC71FD11D880F991FF6
S11314D0661F771F0694A1F70590079420F4490F1F
S11314E0561FC71FD81F990F661F771F881F0694A2
S11314F0A9F784911095177041F0D695C795579523
S11315004795F794E7941A95C1F7E4EFF0E06894EF
S11315101590159135916591959105907FE273959C
S1131520E118F10A430B560BC90BD009C0F7E10CC3
S1131530F11E431F561FC91FD01D7EF4703311F4D2
S11315408A95E6CFE894015030F0080F0AF400279A
S1131550021708F4202F2395022F7A3328F079E319
S11315607D932A95E9F710C07D932A9589F6069410
S113157097956795379517951794E118F10A430BDA
S1131580560BC90BD00998F023957E9173957A3345
S113159008F070E37C932013B8F77E9170617D931B
S11315A030F0839571E37D9370E32A95E1F711247C
S11315B0EF90FF900F911F91CF91DF91992787FDB5
S11315C090950895FC010590615070400110D8F782
S11315D0809590958E0F9F1F0895FC016150704077
S11315E001900110D8F7809590958E0F9F1F089554
S11315F00F931F93CF93DF93FB01238121FD03C03E
S11316008FEF9FEF2CC022FF16C0468157812481A3
S113161035814217530744F4A081B1819D012F5FA6
S11316203F4F208331838C93268137812F5F3F4F37
S11316302683378314C08B01EC01FB010084F18500
S1131640E02D0995892BE1F6D80116968D919C9190
S11316501797019616968D939C931797CE01DF9159
S1131660CF911F910F910895FA01AA27283051F1C3
S1131670203181F1E8946F936E7F6E5F7F4F8F4FBF
S11316809F4FAF4FB1E03ED0B4E03CD0670F781F1E
S1131690891F9A1FA11D680F791F8A1F911DA11D03
S11316A06A0F711D811D911DA11D20D009F468943C
S11316B03F912AE0269F11243019305D3193DEF6E4
S11316C0CF010895462F4770405D4193B3E00FD09A
S11316D0C9F7F6CF462F4F70405D4A3318F0495D85
S11316E031FD4052419302D0A9F7EACFB4E0A69568
S11316F09795879577956795BA95C9F7009761058A
S1131700710508959B01AC010A2E069457954795DF
S113171037952795BA95C9F7620F731F841F951FD4
S10B1720A01D0895F894FFCF09
S1131728E8030000000300000000F5021E030000A7
S1131738646F6E6520696E697400256409256409FF
S10F174825730A002A72696E672A0A00E1
S9030000FC
