S00F000050574D5F4C61622E73726563B3
S11300000C9406010C9425010C9425010C942501F3
S11300100C9425010C9425010C9425010C942501C4
S11300200C9425010C9425010C9425010C942501B4
S11300300C9425010C9425010C9425010C942501A4
S11300400C9425010C9425010C9425010C94250194
S11300500C9425010C9425010C9425010C94250184
S11300600C9425010C9425010C9425010C94250174
S11300700C9425010C9425010C9425010C94250164
S11300800C9425010C9425010C9425010C94250154
S11300900C9425010C9425010C9425010C94250144
S11300A00C9425010C9425010C9425010C94250134
S11300B00C9425010C9425010C9425010C944A03FD
S11300C00C9425010C9425010C9425010C94250114
S11300D00C9425010C9425010C9425010C94250104
S11300E00C9425010C9425010C9425010C942501F4
S11300F00C94250105A84CCDB2D44EB93836A902CA
S11301000C50B9918688083CA6AAAA2ABE00000011
S1130110803F00407A10F35A00A0724E1809001074
S1130120A5D4E80000E87648170000E40B54020068
S113013000CA9A3B000000E1F50500008096980093
S1130140000040420F000000A086010000001027BC
S113015000000000E803000000006400000000004C
S11301600A00000000000100000000002C76D8887E
S1130170DC674F0823DFC1DFAE59E1B1B796E5E391
S1130180E453C63AE651997696E8E6C28426EB89AA
S11301908C9B62ED407C6FFCEFBC9C9F40F2BAA547
S11301A06FA5F490055A2AF75C936B6CF9676DC1DF
S11301B01BFCE0E40D47FEF520E6B500D0ED902EE3
S11301C00300943577050080841E080000204E0A41
S11301D0000000C80C333333330F986E128311417F
S11301E0EF8D2114893BE65516CFFEE6DB18D1844A
S11301F04B381BF77C1D901DA4BBE4242032847271
S11302005E228100C9F124ECA1E53D2711241FBE23
S1130210CFEFCDBFDFE7DEBF10E4A0E0B0E4EAE655
S1130220F5E100E00BBF02C007900D92A233B107C5
S1130230D9F720E4A2E3B0E401C01D92A639B207C5
S1130240E1F70E9487020C94B30A0C940000E0E0EA
S1130250F9E08481836084830895CF93DF93D82F5A
S1130260C62F8D2F90E0880F991F8C2B8093070940
S1130270C11102C026E001C027E08091050990E089
S1130280022E02C0959587950A94E2F780FFF5CF78
S11302908091050984FD0E942701809105098C70D5
S11302A001F7DF91CF9108958093080980910509A2
S11302B086FFFCCF809105098C7019F08FEF9FEFBA
S11302C0089580E090E008951F93CF93DF93C62FA5
S11302D0142F60E00E942D018C2F0E945401EC0128
S11302E0812F0E945401C82BD92B0E942701CE01D3
S11302F0DF91CF911F910895E0E0F9E083E28683D6
S11303008381816083838581816085830895482FFB
S113031060E88EE30E9464010895482F60E48EE350
S11303200E94640108950E947C0140E06FE28BE624
S11303300E94640187EC90E00197F1F700C000008F
S113034040E260E08BE60E94640187EC90E0019754
S1130350F1F700C000004FEF64E08BE60E946401F7
S113036087EC90E00197F1F700C0000040E067E0FF
S11303708BE60E9464018FE59AEE0197F1F700C0C5
S113038000008CE00E94870195E39A95F1F7000044
S113039088E30E94870185E38A95F1F7000081E0F4
S11303A00E9487018FE39FE10197F1F700C00000ED
S11303B086E00E94870108950E948D01089581E0DE
S11303C00E9487018FE39FE10197F1F700C00000CD
S11303D008950F931F93CF93DF938C01C0E0D0E077
S11303E007C00E94DC0185EE8A95F1F70000219692
S11303F0F801EC0FFD1F80818111F3CFDF91CF91C4
S11304001F910F910895611102C0806801C0806C32
S11304100E948701089588ED84BFE0E6F0E095E04E
S113042090A384BF83E080838091650084FFFCCF28
S11304300895E0E0FAE083E0818380818460808332
S11304408FEF9FE086A397A314A615A681818064ED
S11304508183A0EEB5E016968C911697826016966D
S11304608C93A0E4B4E011968C911197846011965A
S11304708C938081816080830895E0E4FAE083E0D6
S113048081838081866080838FEC97E086A397A325
S113049087EC90E084A795A781E0828781818064BE
S11304A08183A0EEB5E016968C91169716968C93E0
S11304B0A0E2B4E011968C911197846011968C930C
S11304C0808181608083089520E030EE49EF54E418
S11304D00E94D8060E94DC0560936C0A70936D0A32
S11304E00895E0E0F6E088E0808782E0828380E29D
S11304F0838385E08093B00081E0808380910A0645
S113050080FDFCCF089581E080930A060895CF937F
S1130510DF93CDB7DEB72697CDBFDEBF0E940B02B7
S11305200E9419020E943D020E9471020E949301DE
S113053020E030E040E855E260E070E083E00E94B3
S1130540D00483E190E40E943A08789480913C407E
S113055090913D408A3F910570F110923C40109279
S11305603D400E94830220E030E048EC52E4609178
S113057038407091394080913A4090913B400E94BC
S1130580D8068E010F5F1F4F22E044E00E94D80777
S11305900E94DF018DE190E40E94E90161E070E0D6
S11305A080E090E00E940302C8010E94E90180E11A
S11305B090E40E94E901609110067091110680E0B8
S11305C090E00E940B0620E030E040E859E30E94EE
S11305D0D806609338407093394080933A409093A2
S11305E03B400E94640220E030E04AE754E460911A
S11305F038407091394080913A4090913B400E943C
S1130600D8060E94D5056B017C016093004070936D
S113061001406091364070913740072E000C880BE2
S1130620990B0E940D062BED3FE049EC50E40E942B
S1130630D8064B015C01B601DD0C880B990B0E94B6
S11306400D069B01AC01C501B4010E9463050E9423
S11306505E0520E030E040E85FE30E94F20420E021
S113066030E040E05FE30E94D80620E030E040E85C
S113067055E40E94D80660933240709333408093CF
S11306803440909335400E94DC0560933C0A70939B
S11306903D0A5CCF1F920F920FB60F9211240BB636
S11306A00F922F935F936F937F938F939F93AF9347
S11306B0BF93EF93FF9380913C4090913D4001960E
S11306C049F080913C4090913D40019680933C409C
S11306D090933D40809136409091374001966091CF
S11306E00040709101400E948E07809336409093A1
S11306F03740E0E4FAE0838581608387FF91EF91DE
S1130700BF91AF919F918F917F916F915F912F9145
S11307100F900BBE0F900FBE0F901F901895CF93A4
S1130720DF93811106C081E080930104C0E0D8E02A
S113073019C0813029F480934104C0E2D8E012C08A
S1130740823031F481E08093A104C0E4D8E00AC08F
S1130750833031F481E080932104C0E6D8E002C004
S1130760C0E0D0E0DB01CA01880F991FAA1FBB1F9C
S1130770880F991FAA1FBB1F9C01AD01220F331FB5
S1130780441F551F220F331F441F551F60E070E0A4
S113079089E09DE30E94A207288739878E81806CB7
S11307A08E83CE01DF91CF910895FC016283089579
S11307B0FC01948195FFFDCF0895FC019481992358
S11307C0ECF7808190E008950F931F93CF93C82F87
S11307D08B01873069F4209194403091954047E033
S11307E050E061E070E089E290E40E94F8070FC0F5
S11307F08A3019F48DE00E94E403F801048515851C
S1130800C8010E94D8036C2FC8010E94D50380E060
S113081090E0CF911F910F910895EF92FF920F9363
S11308201F93CF93DF9320918E4030918F40232BE1
S113083009F09AC08C01CEE3D0E4F8018485958553
S11308400E94DD038D3009F48AE08A3059F48883EC
S1130850B8010E94E4038EE390E480938E40909369
S11308608F4082C0893009F480E290EE980F9F3562
S113087010F0803A98F0F0E4CD38DF0729F4B8019D
S113088087E00E94E403D9CF7E019FEFE91AF90AB9
S11308908883B8010E94E403E701CFCF823119F1C4
S11308A030F4833009F473C0883049F0C6CF8731FF
S11308B009F44EC08F3719F08531B9F1BECFE0E4A9
S11308C0CE33DE0709F008F4B8CFB80188E00E94FF
S11308D0E403B80180E20E94E403B80188E00E94C6
S11308E0E4032197AACFB8018DE00E94E4030F2E00
S11308F0FEE3EF2EF0E4FF2EF02D06C0B801F70161
S113090081917F010E94E403EC16FD06B8F395CFB4
S1130910B80188E00E94E403B80180E20E94E40385
S1130920B80188E00E94E4032197F0E4CE33DF07A6
S113093009F070F782CFB80188E00E94E403B8019F
S113094080E20E94E403B80188E00E94E403219756
S113095080E4CE33D80709F008F46FCFFE01319755
S11309608081803241F769CFE0918E40F0918F40D1
S1130970CF01019680938E4090938F4080818A307E
S113098021F410928E4010928F4090E002C08FEFBD
S11309909FEFDF91CF911F910F91FF90EF900895FA
S11309A0CF93DF93E901209749F09EE0E2E0F0E481
S11309B0D90101900D929A95E1F70BC0E0E9F0E4BA
S11309C022E030E4228333832083318324833583FC
S11309D0E9010E948F038C879D87CE01DF91CF911F
S11309E008955058BB27AA270E9409050C948A062B
S11309F00E94510638F00E94580620F039F49F3FB7
S1130A0019F426F40C944E060EF4E095E7FB0C94CE
S1130A104806E92F0E94AF0658F3BA176207730716
S1130A208407950720F079F4A6F50C94D1060EF40A
S1130A30E0950B2EBA2FA02D0B01B90190010C01EA
S1130A40CA01A0011124FF27591B99F0593F50F402
S1130A50503E68F11A16F040A22F232F342F44275A
S1130A60585FF3CF469537952795A795F040539552
S1130A70C9F77EF41F16BA0B620B730B840BBAF022
S1130A809150A1F0FF0FBB1F661F771F881FC2F78D
S1130A900EC0BA0F621F731F841F48F487957795A1
S1130AA06795B795F7959E3F08F0B0CF9395880F5B
S1130AB008F09927EE0F9795879508950E9461068F
S1130AC0E3950C949B060E9477050C948A060E9479
S1130AD0580658F00E94510640F029F45F3F29F06F
S1130AE00C94480651110C94D2060C944E060E94A4
S1130AF0AF0668F39923B1F3552391F3951B550B76
S1130B00BB27AA2762177307840738F09F5F5F4FDC
S1130B10220F331F441FAA1FA9F335D00E2E3AF01B
S1130B20E0E832D091505040E695001CCAF72BD033
S1130B30FE2F29D0660F771F881FBB1F2617370784
S1130B404807AB07B0E809F0BB0B802DBF01FF27B6
S1130B5093585F4F3AF09E3F510578F00C94480645
S1130B600C94D2065F3FE4F3983ED4F386957795D0
S1130B706795B795F7959F5FC9F7880F911D96956F
S1130B80879597F90895E1E0660F771F881FBB1FCB
S1130B90621773078407BA0720F0621B730B840B78
S1130BA0BA0BEE1F88F7E09508950E94DC0568945F
S1130BB0B1110C94D20608950E94B70688F09F578D
S1130BC098F0B92F9927B751B0F0E1F0660F771F6D
S1130BD0881F991F1AF0BA95C9F714C0B13091F063
S1130BE00E94D106B1E008950C94D106672F782FA6
S1130BF08827B85F39F0B93FCCF386957795679528
S1130C00B395D9F73EF490958095709561957F4F93
S1130C108F4F9F4F0895E89409C097FB3EF4909539
S1130C208095709561957F4F8F4F9F4F9923A9F0C1
S1130C30F92F96E9BB279395F69587957795679550
S1130C40B795F111F8CFFAF4BB0F11F460FF1BC094
S1130C506F5F7F4F8F4F9F4F16C0882311F096E927
S1130C6011C0772321F09EE8872F762F05C06623D5
S1130C7071F096E8862F70E060E02AF09A95660F8E
S1130C80771F881FDAF7880F9695879597F9089547
S1130C9097F99F6780E870E060E008959FEF80EC2B
S1130CA0089500240A9416161706180609060895CE
S1130CB000240A94121613061406050608950C94CB
S1130CC04E060E94B706D8F3E894E0E0BB279F578E
S1130CD0F0F02AED3FE049EC06C0EE0FBB0F661FB3
S1130CE0771F881F28F0B23A62077307840728F039
S1130CF0B25A620B730B840BE3959A9572F78038A2
S1130D0030F49A95BB0F661F771F881FD2F790485F
S1130D100C944707092E0394000C11F4882352F015
S1130D20BB0F40F4BF2B11F460FF04C06F5F7F4F13
S1130D308F4F9F4F0895EF93E0FF07C0A2EA2AED7B
S1130D403FE049EC5FEB0E9409050E948A060F9080
S1130D50039401FC9058E4EFF0E00C94530757FD22
S1130D609058440F551F59F05F3F71F04795880F15
S1130D7097FB991F61F09F3F79F0879508951216AC
S1130D8013061406551FF2CF4695F1DF08C0161658
S1130D9017061806991FF1CF869571056105089409
S1130DA00895E894BB2766277727CB0197F9089520
S1130DB00E94EB060C948A060E94510638F00E94A9
S1130DC0580620F0952311F00C9448060C944E0616
S1130DD011240C94D2060E94AF0670F3959FC1F3C0
S1130DE0950F50E0551F629FF001729FBB27F00DD5
S1130DF0B11D639FAA27F00DB11DAA1F649F66272A
S1130E00B00DA11D661F829F2227B00DA11D621F78
S1130E10739FB00DA11D621F839FA00D611D221F32
S1130E20749F3327A00D611D231F849F600D211D16
S1130E30822F762F6A2F11249F5750409AF0F1F099
S1130E4088234AF0EE0FFF1FBB1F661F771F881F02
S1130E5091505040A9F79E3F510580F00C944806EC
S1130E600C94D2065F3FE4F3983ED4F386957795CD
S1130E706795B795F795E7959F5FC1F7FE2B880FA8
S1130E80911D9695879597F908959F3F31F091505C
S1130E9020F4879577956795B795880F911D96955A
S1130EA0879597F908959F938F937F936F93FF93FB
S1130EB0EF939B01AC010E94D806EF91FF910E9431
S1130EC067072F913F914F915F910C94D806DF9360
S1130ED0CF931F930F93FF92EF92DF927B018C01CC
S1130EE0689406C0DA2EEF010E94EB06FE01E89436
S1130EF0A5912591359145915591A6F3EF010E9455
S1130F000905FE019701A801DA9469F7DF90EF90D3
S1130F10FF900F911F91CF91DF91089597FB072EBA
S1130F2016F4009407D077FD09D00E94C40707FC8B
S1130F3005D03EF4909581959F4F089570956195E5
S1130F407F4F0895A1E21A2EAA1BBB1BFD010DC001
S1130F50AA1FBB1FEE1FFF1FA217B307E407F50765
S1130F6020F0A21BB30BE40BF50B661F771F881F41
S1130F70991F1A9469F760957095809590959B01D7
S1130F80AC01BD01CF010895AA1BBB1B51E107C0F1
S1130F90AA1FBB1FA617B70710F0A61BB70B881F05
S1130FA0991F5A95A9F780959095BC01CD01089594
S1130FB0EF920F931F93CF93DF93E80147FD02C095
S1130FC034E001C034E1042E000C550B57FF03C07C
S1130FD0519541955109E32E022F242FAE010E9411
S1130FE06A08CE01DF91CF911F910F91EF90089580
S1130FF08F929F92AF92BF92CF92DF92EF92FF9225
S11310000F931F93CF93DF935B014A017901D901B9
S113101013962C9121FF1DC0C0E0D0E0C815D9055E
S1131020D9F08C016C01CA0CDB1CC8010C151D0520
S113103071F00F5F1F4FD7011896ED91FC9119972E
S1131040B701DC018C910995892B79F305C02196B0
S1131050E5CF80E090E001C0CE01DF91CF911F91F8
S11310600F91FF90EF90DF90CF90BF90AF909F9043
S11310708F9008950F931F93CF93DF93E091924045
S1131080F0919340238121FF1BC08C01D0E0C0E08C
S1131090F80181918F016091924070919340DB013E
S11310A01896ED91FC911997882331F00995892BB5
S11310B079F3DFEFCFEFECCF8AE00995892B19F0B4
S11310C08FEF9FEF02C08D2F9C2FDF91CF911F9147
S11310D00F9108958F929F92AF92BF92CF92DF9219
S11310E0EF92FF920F931F93CF93DF93CDB7DEB7A9
S11310F02997CDBFDEBF6A01122FB02E2BE3201734
S113110020F0FF24F394F00E02C02CE3F22E0F2DF6
S113111027E0AE014F5F5F4F0E94DB09BC014981AC
S1131120842F8970813031F0E1FC06C0E0FE06C0F6
S113113090E205C09DE203C09BE201C090E05E2DF9
S1131140507143FF3CC0911102C083E001C084E0B0
S1131150811718F4212F281B01C020E051110BC066
S1131160F601822F30E2882319F031938150FBCFAE
S1131170C20ED11C20E0992329F0D6019C93F601DC
S113118031966F01C6010396E2FE0AC03EE4D60121
S11311903C9341E411964C93119712963C9306C0EC
S11311A03EE6F601308341E641833283FC01322F6F
S11311B040E2332309F442C041933150FACF42FF55
S11311C044C0911102C083E001C084E0811718F487
S11311D0212F281B01C020E051110BC0F601822FE2
S11311E030E2882319F031938150FBCFC20ED11C19
S11311F020E0992329F0D6019C93F60131966F01E2
S1131200C6010396E2FE0BC039E4D6013C933EE4EA
S113121011963C93119736E412963C9307C039E635
S1131220F60130833EE6318336E63283FC01322F09
S113123040E2332319F041933150FBCFFC01E20F1C
S1131240F11D10828EEF9FEFA6C021E030E09111D6
S113125002C020E030E0161617061CF4FB0131969C
S113126002C0E1E0F0E02E0F3F1FBB2021F0EB2D88
S1131270F0E0319602C0E0E0F0E02E0F3F1FE12FD6
S1131280F0E02E173F071CF4121B212F01C020E0B1
S11312908E2D887159F4F601822F30E2882319F0DB
S11312A031938150FBCFC20ED11C20E0992329F049
S11312B0D6019C93F60131966F0151110BC0F601D2
S11312C0822F90E3882319F091938150FBCFC20EB3
S11312D0D11C20E00F2D060F9A81342F307144FF6A
S11312E003C0913309F40150101624F4093018F0A6
S11312F008E001C001E0AB0177FF02C040E050E02C
S1131300FB01E41BF50BA1E0B0E0AC0FBD1FEA0F3D
S1131310FB1F8EE2A82E4B01801A91080B2D10E0C2
S11313201195019511094F3FBFEF5B0721F4D601D9
S1131330AC9211966D01641775072CF0841695060E
S113134014F4818101C080E3415051093196D601E2
S113135011967D014017510724F0D6018C93670143
S1131360E2CF6417750739F4963320F4953319F4F2
S1131370311101C081E3F6018083F701822F90E2ED
S1131380882319F091938150FBCFF701E20FF11DEF
S1131390108280E090E02996CDBFDEBFDF91CF912F
S11313A01F910F91FF90EF90DF90CF90BF90AF907F
S11313B09F908F900895283008F027E03327DA01B2
S11313C0990F311D87FD916000966105710539F40F
S11313D032602E5F3D9330E32A95E1F708959F3FF5
S11313E030F080387105610509F03C5F3C5F3D9346
S11313F0913008F08068911DDF93CF931F930F9372
S1131400FF92EF92192F987F9695E92F96959695CE
S1131410E90FFF27E459FE4F99273327EE24FF24D1
S1131420A701E70105900894079428F4360FE71EF6
S1131430F81E491F511D660F771F881F991F0694B8
S1131440A1F70590079428F4E70EF81E491F561FCC
S1131450C11D770F881F991F661F0694A1F7059079
S1131460079428F4F80E491F561FC71FD11D880F73
S1131470991F661F771F0694A1F70590079420F41F
S1131480490F561FC71FD81F990F661F771F881F44
S11314900694A9F784911095177041F0D695C795D5
S11314A057954795F794E7941A95C1F7E2E1F1E06F
S11314B068941590159135916591959105907FE209
S11314C07395E118F10A430B560BC90BD009C0F709
S11314D0E10CF11E431F561FC91FD01D7EF470334B
S11314E011F48A95E6CFE894015030F0080F0AF41D
S11314F00027021708F4202F2395022F7A3328F0AF
S113150079E37D932A95E9F710C07D932A9589F6AE
S1131510069497956795379517951794E118F10AEE
S1131520430B560BC90BD00998F023957E91739504
S11315307A3308F070E37C932013B8F77E917061DE
S11315407D9330F0839571E37D9370E32A95E1F701
S11315501124EF90FF900F911F91CF91DF91992764
S10D156087FD90950895F894FFCFDD
S113156AE8030000000300000000E4030D04000087
S113157A250000646F6E6520696E69740064757471
S113158A79206379636C653A002A72696E672A0A5C
S105159A00004B
S9030000FC
