:100000000C947A000C9499000C9499000C9499002B
:100010000C9499000C9499000C9499000C949900FC
:100020000C9499000C9499000C9499000C949900EC
:100030000C9499000C9499000C9499000C949900DC
:100040000C9499000C9499000C9499000C949900CC
:100050000C9499000C9499000C9499000C949900BC
:100060000C9499000C9499000C9499000C949900AC
:100070000C9499000C9499000C9499000C9499009C
:100080000C9499000C9499000C9499000C9499008C
:100090000C9499000C9499000C9499000C9499007C
:1000A0000C9499000C9499000C9499000C9499006C
:1000B0000C9499000C9499000C9499000C9499005C
:1000C0000C9499000C9499000C9499000C9499004C
:1000D0000C9499000C9408020C9499000C949900CB
:1000E0000C9499000C9499000C9499000C9499002C
:1000F0000C94990011241FBECFEFCDBFDFE7DEBF08
:1001000010E4A0E0B0E4E4EFFFE000E00BBF02C0C9
:1001100007900D92AC32B107D9F720E4ACE2B0E41D
:1001200001C01D92A538B207E1F70E9410010C949E
:10013000F8070C940000CF92DF92EF92FF92CF93DA
:10014000DF936B017C01C0E0D0E007C08FE99FE046
:100150000197F1F700C000002196BE010D2E000CA2
:10016000880B990B0E948103A70196010E947A03D4
:10017000882364F3DF91CF91FF90EF90DF90CF90D1
:100180000895CF92DF92EF92FF921F93CF93DF9368
:10019000182F70E088EE93E00E949E04072E000C5A
:1001A000880B990B0E948103C0E6D4E02C81212B9F
:1001B0002C8320E030E040E05FE30E94E0036B012D
:1001C0007C010E949B008C81109518231C83C70121
:1001D000B6010E949B00DF91CF911F91FF90EF909D
:1001E000DF90CF90089588ED84BFE0E6F0E095E0E1
:1001F00090A384BF83E080838091650084FFFCCF5F
:10020000089520E030E006C0FC01E20FF31F1082E9
:100210002F5F3F4F24173507BCF3FB011082089571
:10022000CF93DF9300D000D0CDB7DEB70E94F300AC
:100230008FEF8CB91DB8E0E2F4E082898860828B90
:1002400088E0808320E030E040E855E260E070E044
:1002500083E00E945903E0E6F8E0858180688583A9
:1002600019821A821B821C8278948EE090E49F93FC
:100270008F930E942A050F900F90E12C10E0FF242D
:10028000F39404E0602F8F2D0E94C1008091280418
:1002900082FD27C0111126C011E0E11010E0EE2010
:1002A00081F08EE090E49F938F930E942A05E0E214
:1002B000F4E08481877F84830F900F90E12E11E01A
:1002C00011C08BE190E49F938F930E942A05E0E296
:1002D000F4E08481886084830F900F90E12E11E018
:1002E00001C010E080912C40882361F2F894809145
:1002F0002C40803318F180912C408A33F8F48C81A3
:100300008230E0F4833048F043E050E0BE016C5F9F
:100310007F4FCE0101960E9401018C8190912C406B
:10032000E1E0F0E0EC0FFD1FE80FF11D90838F5F1F
:100330008C8380912C4090E00E943E0580912C405F
:100340008D3099F58C81882381F1E1102EC08130A8
:1003500029F49981903311F000ED090F8230A1F456
:10036000898190E0C0974A81242F30E020533109E1
:10037000282B392B232B41F0880F082F000F000F5B
:10038000800F082F040F005343E050E0BE016C5F64
:100390007F4FCE0101960E9401018EE090E49F9371
:1003A0008F930E942A050F900F9080912C408D30E2
:1003B00041F58C81882329F191E0E91222C09981CD
:1003C000993370F4813061F428E330E0291B31095E
:1003D0008FEF90E002C0959587952A95E2F7F82E69
:1003E00043E050E0BE016C5F7F4FCE0101960E945A
:1003F00001018BE190E49F938F930E942A050F9057
:100400000F9080912C40811110922C4078943ACF1B
:100410001F920F920FB60F9211248F938091600854
:1004200080932C408F910F900FBE0F901F901895C6
:10043000CF93DF93811106C081E080930104C0E077
:10044000D8E019C0813029F480934104C0E2D8E09B
:1004500012C0823031F481E08093A104C0E4D8E07E
:100460000AC0833031F481E080932104C0E6D8E0F3
:1004700002C0C0E0D0E0DB01CA01880F991FAA1FAB
:10048000BB1F880F991FAA1FBB1F9C01AD01220F24
:10049000331F441F551F220F331F441F551F60E099
:1004A00070E089E09DE30E94B204288739878E813D
:1004B000806C8E83CE01DF91CF910895FC01628321
:1004C0000895FC01948195FFFDCF0895FC0194816E
:1004D0009923ECF7808190E008950F931F93CF93B9
:1004E000C82F8B01873069F420918340309184407C
:1004F00047E050E061E070E084E290E40E94E804AC
:100500000FC08A3019F48DE00E946D02F801048555
:100510001585C8010E9461026C2FC8010E945E020D
:1005200080E090E0CF911F910F910895EF92FF929C
:100530000F931F93CF93DF9320917D4030917E40A6
:10054000232B09F09AC08C01CDE2D0E4F801848518
:1005500095850E9466028D3009F48AE08A3059F44C
:100560008883B8010E946D028DE290E480937D4003
:1005700090937E4082C0893009F480E290EE980F1B
:100580009F3510F0803A98F0F0E4CC37DF0729F47B
:10059000B80187E00E946D02D9CF7E019FEFE91A72
:1005A000F90A8883B8010E946D02E701CFCF82313A
:1005B00019F130F4833009F473C0883049F0C6CFA4
:1005C000873109F44EC08F3719F08531B9F1BECFAC
:1005D000E0E4CD32DE0709F008F4B8CFB80188E0D6
:1005E0000E946D02B80180E20E946D02B80188E0AD
:1005F0000E946D022197AACFB8018DE00E946D0282
:100600000F2EFDE2EF2EF0E4FF2EF02D06C0B80114
:10061000F70181917F010E946D02EC16FD06B8F38F
:1006200095CFB80188E00E946D02B80180E20E9477
:100630006D02B80188E00E946D022197F0E4CD328E
:10064000DF0709F070F782CFB80188E00E946D02E1
:10065000B80180E20E946D02B80188E00E946D023C
:10066000219780E4CD32D80709F008F46FCFFE015E
:1006700031978081803241F769CFE0917D40F091E0
:100680007E40CF01019680937D4090937E40808193
:100690008A3021F410927D4010927E4090E002C09A
:1006A0008FEF9FEFDF91CF911F910F91FF90EF9010
:1006B0000895CF93DF93E901209749F09EE0E0E0B1
:1006C000F0E4D90101900D929A95E1F70BC0EFE7A4
:1006D000F0E420E030E422833383208331832483D9
:1006E0003583E9010E9418028C879D87CE01DF9136
:1006F000CF9108950E94BC0308F481E00895E89426
:1007000009C097FB3EF490958095709561957F4F59
:100710008F4F9F4F9923A9F0F92F96E9BB27939507
:10072000F695879577956795B795F111F8CFFAF417
:10073000BB0F11F460FF1BC06F5F7F4F8F4F9F4F48
:1007400016C0882311F096E911C0772321F09EE8A6
:10075000872F762F05C0662371F096E8862F70E00C
:1007600060E02AF09A95660F771F881FDAF7880FE6
:100770009695879597F90895990F0008550FAA0B3C
:10078000E0E8FEEF16161706E807F907C0F01216A4
:100790001306E407F50798F0621B730B840B950BA7
:1007A00039F40A2661F0232B242B252B21F40895FC
:1007B0000A2609F4A140A6958FEF811D811D089599
:1007C0000E94F3030C9464040E94560438F00E94C3
:1007D0005D0420F0952311F00C944D040C94530407
:1007E00011240C9498040E94750470F3959FC1F332
:1007F000950F50E0551F629FF001729FBB27F00DCF
:10080000B11D639FAA27F00DB11DAA1F649F662723
:10081000B00DA11D661F829F2227B00DA11D621F72
:10082000739FB00DA11D621F839FA00D611D221F2C
:10083000749F3327A00D611D231F849F600D211D10
:10084000822F762F6A2F11249F5750409AF0F1F093
:1008500088234AF0EE0FFF1FBB1F661F771F881FFC
:1008600091505040A9F79E3F510580F00C944D04E3
:100870000C9498045F3FE4F3983ED4F38695779503
:100880006795B795F795E7959F5FC1F7FE2B880FA2
:10089000911D9695879597F9089597F99F6780E838
:1008A00070E060E008959FEF80EC089500240A94C2
:1008B0001616170618060906089500240A9412163B
:1008C0001306140605060895092E0394000C11F46E
:1008D000882352F0BB0F40F4BF2B11F460FF04C01B
:1008E0006F5F7F4F8F4F9F4F089557FD9058440F74
:1008F000551F59F05F3F71F04795880F97FB991F7F
:1009000061F09F3F79F0879508951216130614063B
:10091000551FF2CF4695F1DF08C0161617061806C8
:10092000991FF1CF86957105610508940895E894A3
:10093000BB2766277727CB0197F9089597FB072EEA
:1009400016F4009407D077FD09D00E94D40407FC68
:1009500005D03EF4909581959F4F089570956195CF
:100960007F4F0895A1E21A2EAA1BBB1BFD010DC0EB
:10097000AA1FBB1FEE1FFF1FA217B307E407F5074F
:1009800020F0A21BB30BE40BF50B661F771F881F2B
:10099000991F1A9469F760957095809590959B01C1
:1009A000AC01BD01CF010895AA1BBB1B51E107C0DB
:1009B000AA1FBB1FA617B70710F0A61BB70B881FEF
:1009C000991F5A95A9F780959095BC01CD0108957E
:1009D0008F929F92AF92BF92CF92DF92EF92FF924F
:1009E0000F931F93CF93DF935B014A017901D901E4
:1009F00013962C9121FF1DC0C0E0D0E0C815D90589
:100A0000D9F08C016C01CA0CDB1CC8010C151D054A
:100A100071F00F5F1F4FD7011896ED91FC91199758
:100A2000B701DC018C910995892B79F305C02196DA
:100A3000E5CF80E090E001C0CE01DF91CF911F9122
:100A40000F91FF90EF90DF90CF90BF90AF909F906D
:100A50008F900895CF93DF93CDB7DEB7AE014B5F94
:100A60005F4FFA0161917191AF0180918140909146
:100A700082400E944405DF91CF91089560918140AA
:100A8000709182400C945E072F923F924F925F923A
:100A90006F927F928F929F92AF92BF92CF92DF928E
:100AA000EF92FF920F931F93CF93DF93CDB7DEB7F3
:100AB0002B97CDBFDEBF6C017B018A01FC01168242
:100AC0001782838181FFCCC1CE0101963C01F601E2
:100AD0009381F70193FD859193FF81917F01882395
:100AE00009F4BAC1853239F493FD859193FF819160
:100AF0007F01853229F4B60190E00E945E07E7CFBE
:100B0000912C212C312CFFE1F315D8F08B3279F0A8
:100B100038F4803279F08332A1F4232D20611DC096
:100B20008D3261F0803369F4232D216016C0832D4E
:100B30008260382EE32DE4603E2E2AC0F32DF8604B
:100B40001DC037FC2DC020ED280F2A3040F08E321A
:100B5000B9F436FC81C1232D2064322E19C036FE33
:100B600006C08AE0989E200D1124922E11C0EAE062
:100B70002E9E200D1124222EF32DF0623F2E08C050
:100B80008C3621F4832D8068382E02C0883641F4DB
:100B9000F70193FD859193FF81917F018111B3CF7F
:100BA000982F9F7D9554933028F40C5F1F4F9FE33F
:100BB00099830DC0833631F0833771F0833509F0A6
:100BC00059C021C0F801808189830E5F1F4F88249E
:100BD0008394912C530113C02801F2E04F0E511C55
:100BE000F801A080B18036FE03C0692D70E002C01C
:100BF0006FEF7FEFC5010E9453074C018201F32D77
:100C0000FF773F2E16C0280122E0420E511CF8014A
:100C1000A080B18036FE03C0692D70E002C06FEF86
:100C20007FEFC5010E9448074C01F32DF0683F2E6D
:100C3000820133FC1BC0822D90E088169906B0F427
:100C4000B60180E290E00E945E072A94F4CFF5019D
:100C500037FC859137FE81915F01B60190E00E94DB
:100C60005E0721102A9421E0821A910881149104D0
:100C700071F7E8C0843611F0893641F5F80137FE86
:100C800007C060817181828193810C5F1F4F08C012
:100C900060817181072E000C880B990B0E5F1F4F2E
:100CA000F32DFF763F2E97FF09C0909580957095A4
:100CB00061957F4F8F4F9F4FF0683F2E2AE030E0C5
:100CC000A3010E949A07882E861845C0853731F403
:100CD000232D2F7EB22E2AE030E025C0932D997F60
:100CE000B92E8F36C1F018F4883579F0B5C0803749
:100CF00019F0883721F0B0C0E92FE061BE2EB4FEB4
:100D00000DC0FB2DF460BF2E09C034FE0AC0292F90
:100D10002660B22E06C028E030E005C020E130E0B9
:100D200002C020E132E0F801B7FE07C060817181A6
:100D3000828193810C5F1F4F06C06081718180E0CA
:100D400090E00E5F1F4FA3010E949A07882E86181D
:100D5000FB2DFF773F2E36FE0DC0232D2E7FA22EBA
:100D6000891458F434FE0BC032FC09C0832D8E7EEA
:100D7000A82E05C0B82CA32C03C0B82C01C0B92CD8
:100D8000A4FE0FC0FE01E80DF11D8081803321F427
:100D90009A2D997EA92E09C0A2FE06C0B394B394E1
:100DA00004C08A2D867809F0B394A3FC11C0A0FE7C
:100DB00006C0B21488F4280C922C9B180EC0B214F2
:100DC00060F4B60180E290E00E945E07B394F7CF32
:100DD000B21418F42B1802C0982C212CA4FE10C0B9
:100DE000B60180E390E00E945E07A2FE17C0A1FC5E
:100DF00003C088E790E002C088E590E0B6010CC02F
:100E00008A2D867859F0A1FE02C08BE201C080E2F3
:100E1000A7FC8DE2B60190E00E945E07891438F4C9
:100E2000B60180E390E00E945E079A94F7CF8A941F
:100E3000F301E80DF11D8081B60190E00E945E078C
:100E40008110F5CF222009F442CEB60180E290E075
:100E50000E945E072A94F6CFF6018681978102C030
:100E60008FEF9FEF2B96CDBFDEBFDF91CF911F910C
:100E70000F91FF90EF90DF90CF90BF90AF909F9039
:100E80008F907F906F905F904F903F902F9008953C
:100E9000FC010590615070400110D8F78095909545
:100EA0008E0F9F1F0895FC0161507040019001104A
:100EB000D8F7809590958E0F9F1F08950F931F93DD
:100EC000CF93DF93FB01238121FD03C08FEF9FEFC1
:100ED0002CC022FF16C046815781248135814217DC
:100EE000530744F4A081B1819D012F5F3F4F2083C0
:100EF00031838C93268137812F5F3F4F2683378341
:100F000014C08B01EC01FB010084F185E02D0995F3
:100F1000892BE1F6D80116968D919C911797019631
:100F200016968D939C931797CE01DF91CF911F91C9
:100F30000F910895FA01AA27283051F1203181F14B
:100F4000E8946F936E7F6E5F7F4F8F4F9F4FAF4FD1
:100F5000B1E03ED0B4E03CD0670F781F891F9A1FE4
:100F6000A11D680F791F8A1F911DA11D6A0F711D98
:100F7000811D911DA11D20D009F468943F912AE0A4
:100F8000269F11243019305D3193DEF6CF0108958C
:100F9000462F4770405D4193B3E00FD0C9F7F6CFBD
:100FA000462F4F70405D4A3318F0495D31FD405285
:100FB000419302D0A9F7EACFB4E0A695979587951B
:100FC00077956795BA95C9F70097610571050895FA
:100FD0009B01AC010A2E06945795479537952795A6
:100FE000BA95C9F7620F731F841F951FA01D08953E
:040FF000F894FFCFA3
:100FF40000000003000000006D02960200000A4693
:1010040072657175656E63793A20000A234C454414
:0C101400533A20002A72696E672A0A0015
:00000001FF
