:100000000C941D010C943C010C943C010C943C019B
:100010000C943C010C943C010C943C010C943C016C
:100020000C943C010C9497010C943C010C943C0101
:100030000C943C010C943C010C943C010C943C014C
:100040000C943C010C943C010C943C010C943C013C
:100050000C943C010C943C010C943C010C943C012C
:100060000C943C010C943C010C943C010C943C011C
:100070000C943C010C943C010C943C010C943C010C
:100080000C943C010C943C010C943C010C943C01FC
:100090000C943C010C943C010C943C010C943C01EC
:1000A0000C943C010C943C010C943C010C943C01DC
:1000B0000C943C010C94DE010C943C010C943C012A
:1000C0000C943C010C943C010C943C010C943C01BC
:1000D0000C943C010C943C010C943C010C943C01AC
:1000E0000C943C010C943C010C943C010C943C019C
:1000F0000C943C01084AD73B3BCE016E84BCBFFD4B
:10010000C12F3D6C74319ABD56833DDA3D00C77FE7
:1001100011BED9E4BB4C3E916BAAAABE0000008080
:100120003F05A84CCDB2D44EB93836A9020C50B90F
:10013000918688083CA6AAAA2ABE000000803F003B
:1001400000407A10F35A00A0724E18090010A5D48E
:10015000E80000E87648170000E40B54020000CAEB
:100160009A3B000000E1F505000080969800000031
:1001700040420F000000A086010000001027000090
:100180000000E803000000006400000000000A0016
:10019000000000000100000000002C76D888DC6719
:1001A0004F0823DFC1DFAE59E1B1B796E5E3E45371
:1001B000C63AE651997696E8E6C28426EB898C9B8E
:1001C00062ED407C6FFCEFBC9C9F40F2BAA56FA52E
:1001D000F490055A2AF75C936B6CF9676DC11BFCB0
:1001E000E0E40D47FEF520E6B500D0ED902E0300CB
:1001F000943577050080841E080000204E0A000018
:1002000000C80C333333330F986E12831141EF8DD6
:100210002114893BE65516CFFEE6DB18D1844B3816
:100220001BF77C1D901DA4BBE424203284725E2247
:100230008100C9F124ECA1E53D2711241FBECFEFB9
:10024000CDBFDFE7DEBF10E4A0E0B0E4E4EDF9E20B
:1002500000E00BBF02C007900D92AE38B107D9F78E
:1002600023E4AEE8B0E401C01D92AF3FB207E1F76E
:100270000E941B040C94E8140C94000088ED84BFC9
:10028000E0E6F0E095E090A384BF93E0908384BF24
:1002900011828091650084FFFCCF0895E0E0F6E0D4
:1002A00088E0808784E0828380E2838385E0809396
:1002B000B00091E0908380818F7E808392878091CF
:1002C0000A0680FDFCCF089581E080930A06089518
:1002D000CF93DF93EC01609110067091110680E0DE
:1002E00090E00E94A80C20E030E040E859E30E9432
:1002F000E20D688379838A839B830E946401DF9186
:10030000CF910895E0E0FAE0118289EF90E086A3B2
:1003100097A381E0828780818B6080830895E0E2EB
:10032000F4E082898A60828B84E0828308951F9240
:100330000F920FB60F9211240BB60F922F938F933B
:100340009F93EF93FF938091A1409091A2400196DB
:1003500049F08091A1409091A24001968093A140E4
:100360009093A24080919F409091A0408F3F9F47E3
:1003700049F080919F409091A040019680939F40CA
:100380009093A04080919F409091A0400A972CF0BC
:10039000329903C081E080939E40E0E0FAE08385DB
:1003A00081608387FF91EF919F918F912F910F90A3
:1003B0000BBE0F900FBE0F901F9018951F920F92BB
:1003C0000FB60F9211240BB60F928F939F93EF935A
:1003D000FF938091290482FF0FC0E0E2F4E0818561
:1003E0008460818780919F409091A0400A9724F07B
:1003F00010929F401092A040FF91EF919F918F919A
:100400000F900BBE0F900FBE0F901F901895EF929C
:10041000FF920F9380919240909193402091984049
:1004200030919940821B930B9C0122F422273327A1
:10043000281B390B263031053CF081E080938F403A
:1004400089E490E40E94BB0FE0910F40F0911040CE
:100450004081518162812FEF30E085EF90E40E946E
:10046000520980918F408823B1F180918E408F5F37
:1004700080938E4090E060919040709191400E94F6
:10048000090FE0910540F0910640E080F180028183
:100490009C0147E050E067E070E085EF90E40E9447
:1004A000AA0780918E4090E00597609190407091EE
:1004B00091400E94090FE0910540F0910640E080D4
:1004C000F18002819C0147E050E067E070E085EF39
:1004D00090E40E94AA076FEF70E085EF90E40E941D
:1004E0006A0980918E40853120F010928F401092E1
:1004F0008E400F91FF90EF9008954F925F926F9210
:100500007F928F929F92AF92BF92CF92DF92EF92A3
:10051000FF920F931F93CF93DF93C0919C40D09194
:100520009D40BE010D2E000C880B990B0E94AA0C59
:100530004B015C01E0909A40F0909B40B7010F2C7A
:10054000000C880B990B0E94AA0CA50194010E9433
:100550009C0B4B015C01CC9F6001CD9FD00CD00C5B
:100560001124EE9CC001EF9C900D900D1124C80E3B
:10057000D91E0D2C000CEE08FF08C701B6010E9421
:10058000AA0C0E94810E20E030E040E251E40E947B
:10059000000C20E030E040EE50E40E94E20D6B01E0
:1005A0007C01C501B4010E94FB0B9B01AC01C7019A
:1005B000B6010E94E20D20E030E040EE50E40E94DF
:1005C0001D0B0E944F0E2B013C01C501B4010E947E
:1005D000730E9B01AC01C701B6010E94E20D20E041
:1005E00030E040EE50E40E941D0B0E944F0E6B0164
:1005F0007C01A301920160E070E080E791E40E9439
:10060000040D9B01AC0160E070E0CB010E94E50CA1
:100610002B013C01A701960160E070E080E791E4C6
:100620000E94040D9B01AC0160E070E0CB010E94D0
:10063000E50C4B015C01E0910F40F09110404081CE
:10064000518162812FEF30E085EF90E40E945209E2
:10065000E0910540F0910640E080F1800281209118
:1006600090403091914047E050E067E070E085EFC6
:1006700090E40E94AA07E0910D40F0910E40C080E6
:10068000D180E28007E010E02CE030E047E050E06D
:1006900067E070E085EF90E40E940807E091094070
:1006A000F0910A40C080D180E2800CE010E027E0A9
:1006B00030E047E050E067E070E085EF90E40E94B2
:1006C0000807E0910B40F0910C40C080D180E2809F
:1006D000C501B4010E94790C4B015C01C301B20158
:1006E0000E94790C84019B0147E050E067E070E0D4
:1006F00085EF90E40E9408076FEF70E085EF90E4CB
:100700000E946A09DF91CF911F910F91FF90EF90A6
:10071000DF90CF90BF90AF909F908F907F906F9021
:100720005F904F900895CF92DF92EF920F931F93B7
:10073000CF9320E030E040E050EC6091F5437091C1
:10074000F6438091F7439091F8430E94E20D20E038
:1007500030E040E85FE30E941D0B20E030E040EC19
:1007600050E40E94E20D20E030E040E051E40E94BD
:100770001D0B0E94790CC62FE0910F40F0911040A4
:100780004081518162812FEF30E085EF90E40E943B
:1007900052096C2F70E09B012E5F3F4F6250710930
:1007A000E0910540F0910640C080D180E28001E0F8
:1007B00010E041E050E085EF90E40E94080760916E
:1007C0000340603118F08FEF80930240611103C045
:1007D00081E08093024040910140403118F08FEF5A
:1007E00080930040411103C081E0809300408091DC
:1007F0000240680F6093034080910040480F40938F
:100800000140E0910740F091084000811181228170
:1008100050E070E085EF90E40E9454066FEF70E0C6
:1008200085EF90E40E946A09CF911F910F91EF909C
:10083000DF90CF900895CF93DF93CDB7DEB72697A3
:10084000CDBFDEBF0E943E010E9482010E944E0188
:1008500020E030E040E855E260E070E083E00E9494
:10086000FB0A0E949B080E9430090E948F018FE4BE
:1008700090E40E94BB0F8AE00E94B70978948091AF
:10088000A1409091A2408997D0F31092A14010927C
:10089000A24080919A4090919B4080939440909385
:1008A000954080919C4090919D408093964090937C
:1008B0009740809198409091994080939240909376
:1008C00093408AE990E40E94D4088CE990E40E9465
:1008D000A60888E990E40E94020985EF93E40E944B
:1008E00068016091F5437091F6438091F7439091D0
:1008F000F84320E030E048EC51E40E94E20D9B0117
:10090000AC0160E070E080E89FE30E94E50C0E948B
:10091000790C609390407093914060919A407091EF
:100920009B4067507109072E000C880B990B0E94A1
:10093000AA0C23E333E343E35FE30E94E20D0E944A
:10094000720C6B017C0180919C4090919D40BC0198
:1009500061517109072E000C880B990B0E94AA0C9B
:1009600023E333E343E35FE30E94E20D0E94720C52
:100970002B013C016091984070919940072E000C2A
:10098000880B990B0E94AA0C23E333E343E35FE354
:100990000E94E20D0E94720C4B015C01B601DD0C5D
:1009A000880B990B0E94AA0C2DEC3CEC4CE45EE306
:1009B0000E94E20D6B017C01609194407091954022
:1009C000072E000C880B990B0E94AA0C2DEC3CEC16
:1009D0004CE45FE30E94E20D9B01AC01C701B6014C
:1009E0000E941D0B0E94720C60939A4070939B4072
:1009F000B201550C880B990B0E94AA0C2DEC3CEC13
:100A00004CE45EE30E94E20D6B017C016091964034
:100A100070919740072E000C880B990B0E94AA0C2E
:100A20002DEC3CEC4CE45FE30E94E20D9B01AC0139
:100A3000C701B6010E941D0B0E94720C6B017C0164
:100A400060939C4070939D40B401990C880B990B66
:100A50000E94AA0C2DEC3CEC4CE45EE30E94E20DFB
:100A60004B015C016091924070919340072E000C05
:100A7000880B990B0E94AA0C2DEC3CEC4CE45FE334
:100A80000E94E20D9B01AC01C501B4010E941D0B47
:100A90000E94720C6093984070939940B601DD0CEF
:100AA000880B990B0E94AA0C9E012F5F3F4F790182
:100AB000890122E044E00E943F0FFF92EF9285E619
:100AC00090E49F938F930E94A10F80919840909102
:100AD00099402091924030919340821B930BBC012E
:100AE00022F466277727681B790B072E000C880BEA
:100AF000990B0E94AA0C9E012F5F3F4F790189013B
:100B000022E044E00E943F0FFF92EF9280E790E4E2
:100B10009F938F930E94A10F6091F5437091F643CC
:100B20008091F7439091F84322E044E00E943F0F08
:100B3000FF92EF928BE790E49F938F930E94A10F17
:100B40008AE090E00E94B50FCDBFDEBF80910440E7
:100B5000813039F018F0823039F008C00E94070265
:100B600005C00E947D0202C00E94930380919E40B6
:100B7000882309F484CE329B82CE10929E408091CD
:100B80000440823019F41092044079CE8F5F809334
:100B9000044075CE83E280930609442359F0E0E0D7
:100BA000F4E081818C60818382898860828B838973
:100BB0008860838BE0E0F9E08381816083838581B5
:100BC000816085830895E0E0F9E084818360848317
:100BD0000895CF93DF93D82FC62F8D2F90E0880FE5
:100BE000991F8C2B80930709C11102C026E001C018
:100BF00027E08091050990E0022E02C09595879527
:100C00000A94E2F780FFF5CF8091050984FD04C0C6
:100C1000809105098C7041F00E94E305E0E0F9E065
:100C2000858181608583D9CFDF91CF9108958093AD
:100C300008098091050986FFFCCF809105098C7019
:100C400019F08FEF9FEF089580E090E00895809174
:100C500005098823E4F7E0E0F9E080859481946059
:100C600094830895CF93C62F60E00E94E9058C2FEE
:100C70000E9417060E94E305CF91089580FF09C0E6
:100C800082959295907F9827807F9827860F971F4F
:100C90000895019682959295907F9827807F982756
:100CA000861B970B01970895EF92FF920F931F9366
:100CB000CF9360317105A0F44031510588F4C22F03
:100CC000DB017C01BA01CD010E943E06FC01EE0F62
:100CD000FF1FE80FF91FEE0DFF1D0083C283118374
:100CE000CF911F910F91FF90EF9008952F923F9217
:100CF0004F925F926F927F928F929F92AF92BF922C
:100D0000CF92DF92EF92FF920F931F93CF93DF93D7
:100D1000CDB7DEB72597CDBFDEBF8C839D835B014A
:100D20003A0149012801C982DA82EB826801C40EC6
:100D3000D51E7901E60EF71E09811A812B81A601C5
:100D4000B7010E94540613012418350809811A813D
:100D50002B81A101B7018C819D810E9454067501F0
:100D6000E818F90809811A812B81A601B7018C8145
:100D70009D810E94540609811A812B81A101B7012E
:100D80008C819D810E9454066301C80CD91C72019C
:100D9000EA0CFB1C09811A812B81A601B7018C8109
:100DA0009D810E9454066818790809811A812B8157
:100DB000A301B7018C819D810E945406A418B50837
:100DC00009811A812B81A601B5018C819D810E9428
:100DD000540609811A812B81A301B5018C819D8163
:100DE0000E9454062596CDBFDEBFDF91CF911F91A3
:100DF0000F91FF90EF90DF90CF90BF90AF909F90BA
:100E00008F907F906F905F904F903F902F900895BC
:100E10002F923F924F925F926F927F928F929F920A
:100E2000AF92BF92CF92DF92EF92FF920F931F93F8
:100E3000CF93DF93CDB7DEB72B97CDBFDEBF8983CE
:100E40009A836A877B875A01390108871987CB8281
:100E5000DC82ED82C901861B970B6C0122F4CC2445
:100E6000DD24C81AD90A2A853B852615370520F4C2
:100E700022242394312C03C022242A94322C8885E6
:100E800099858A199B094C0122F488249924881A8F
:100E9000990A8E829F829194819491088885998580
:100EA000A816B90620F444244394512C03C04424CA
:100EB0004A94542C76012E813F81E21AF30A2A8546
:100EC0003B8521313105D8F731E1A316B104B8F7DC
:100ED0000B811C812D81A5016A857B8589819A8181
:100EE0000E9454068A859B858615970529F42885D6
:100EF0003985A216B306C1F0C701880F991F88155E
:100F0000990554F02E813F81E21AF30A2A853B8528
:100F1000220D331D2A873B87C816D90684F2EC0CB4
:100F2000FD1CA40CB51CCBCF2B96CDBFDEBFDF9133
:100F3000CF911F910F91FF90EF90DF90CF90BF90D6
:100F4000AF909F908F907F906F905F904F903F9069
:100F50002F9008952F923F924F925F926F927F92BF
:100F60008F929F92AF92BF92CF92DF92EF92FF92B9
:100F70000F931F93CF93DF93CDB7DEB72597CDBFE8
:100F8000DEBF1C012B013A015901E982FA820B8371
:100F9000C901880F991F23E030E04901881A990A96
:100FA000BB20F4F16701E02E850120E030E0C101B3
:100FB0000E9476061C821D822EC0181419048CF41F
:100FC00081E0A81AB1088C819D818A199B09880F3C
:100FD000991F880F991F880E991E9AE0890E911CFF
:100FE0000BC08C819D81880F991F880F991F880ED7
:100FF000991E86E0880E911C8C819D8101968C83C0
:101000009D83C980DA80EB8085019C01A301B20138
:10101000C1010E9476068C819D81A816B9066CF6E6
:101020002596CDBFDEBFDF91CF911F910F91FF902D
:10103000EF90DF90CF90BF90AF909F908F907F9078
:101040006F905F904F903F902F900895EF92FF9296
:101050001F93CF93DF93C82F7B01142F60E089E1AA
:101060000E94E9058C2F0E941706C0E0D0E007C05F
:10107000F701EC0FFD1F80810E9417062196812F3A
:1010800090E0C817D907A4F30E94E30580E090E040
:10109000DF91CF911F91FF90EF9008951F93CF9311
:1010A000DF93EB01142F682F89E10E94320661E083
:1010B00089E10E94E90520E030E013C08091050934
:1010C0008823E4F7DE01A20FB31FE0E0F9E080859A
:1010D0008C9384818B7F84838481826084832F5F5F
:1010E0003F4F812F90E00197281739073CF3812F5C
:1010F00090E00197C80FD91F0E94270688830E949D
:10110000E30580E090E0DF91CF911F910895CF93A8
:10111000DF931F92CDB7DEB7698341E0BE016F5FF9
:101120007F4F0E9426080F90DF91CF91089541E0F4
:101130000E944E08089541E060E070E0CB010E94FB
:10114000CA0567E280E20E94870808950F931F9303
:10115000CF93DF9300D0CDB7DEB78C01BE016F5FB8
:101160007F4F88E20E949708BE016E5F7F4F89E241
:101170000E9497088A8190E0982F88272981822BE6
:101180009595879595958795959587959595879547
:10119000F8018083918380E090E00F900F90DF91C1
:1011A000CF911F910F9108950F931F93CF93DF93CA
:1011B00000D0CDB7DEB78C01BE016F5F7F4F8AE2F2
:1011C0000E949708BE016E5F7F4F8BE20E949708D6
:1011D0008A8190E0982F88272981822B9595879581
:1011E000959587959595879595958795F801808331
:1011F000918380E090E00F900F90DF91CF911F914D
:101200000F9108950F931F93CF93DF9300D0CDB725
:10121000DEB78C01BE016F5F7F4F8CE20E949708A2
:10122000BE016E5F7F4F8DE20E9497088A8190E039
:10123000982F88272981822B959587959595879555
:101240009595879595958795F8018083918380E0A2
:1012500090E00F900F90DF91CF911F910F91089523
:10126000E0E4F9E084E8818381E28083E0E0F4E077
:1012700080E1858390E8948B8183089520E00FC0FE
:101280009091430995FFFCCF882324F49FE090932D
:10129000440903C09FE790934409880F2F5F2830CB
:1012A00078F30895CF93DF93EC0190E00BC0DF015A
:1012B000AA0FBB1FEA0FFB1FEC0FFD1F40835183DA
:1012C00062839F5FE92FF0E0E217F30780F3DF917D
:1012D000CF910895AF92BF92CF92DF92EF92FF929B
:1012E0000F931F93CF93DF938C01EB01E12CF12C33
:1012F00030C08091294090E0F701EE0FFF1FEE0D06
:10130000FF1DE00FF11F2081289F6001299FD00C55
:1013100011242FEFC21AD20A4181489F9001499FA0
:10132000300D11242F5F3F4F2281289F5001299FAC
:10133000B00C11248FEFA81AB80A832F0E943E091F
:101340008D2D0E943E098B2D0E943E092FEFE21A3F
:10135000F20AEC16FD0668F2DF91CF911F910F9112
:10136000FF90EF90DF90CF90BF90AF900895809363
:1013700029400895CF93DF93811106C081E08093C7
:101380000104C0E0D8E019C0813029F48093410401
:10139000C0E2D8E012C0823031F481E08093A10431
:1013A000C0E4D8E00AC0833031F481E080932104A6
:1013B000C0E6D8E002C0C0E0D0E0DB01CA01880F7F
:1013C000991FAA1FBB1F880F991FAA1FBB1F9C0133
:1013D000AD01220F331F441F551F220F331F441F1F
:1013E000551F60E070E089E09DE30E941D0F288793
:1013F00039878E81806C8E83CE01DF91CF910895E5
:10140000FC0162830895FC01948195FFFDCF08954E
:10141000FC0194819923ECF7808190E008950F936B
:101420001F93CF93C82F8B01873069F42091FD4320
:101430003091FE4347E050E061E070E085E890E4E1
:101440000E945F0F0FC08A3019F48DE00E940F0ACE
:10145000F80104851585C8010E94030A6C2FC80194
:101460000E94000A80E090E0CF911F910F910895B3
:10147000EF92FF920F931F93CF93DF932091F3404E
:101480003091F440232B09F09AC08C01C3EAD0E4D8
:10149000F801848595850E94080A8D3009F48AE058
:1014A0008A3059F48883B8010E940F0A83EA90E4D5
:1014B0008093F3409093F44082C0893009F480E235
:1014C00090EE980F9F3510F0803A98F0F0E4C23F0C
:1014D000DF0729F4B80187E00E940F0AD9CF7E0107
:1014E0009FEFE91AF90A8883B8010E940F0AE70101
:1014F000CFCF823119F130F4833009F473C08830D2
:1015000049F0C6CF873109F44EC08F3719F08531C5
:10151000B9F1BECFE0E4C33ADE0709F008F4B8CF72
:10152000B80188E00E940F0AB80180E20E940F0A09
:10153000B80188E00E940F0A2197AACFB8018DE078
:101540000E940F0A0F2EF3EAEF2EF0E4FF2EF02D8B
:1015500006C0B801F70181917F010E940F0AEC16C5
:10156000FD06B8F395CFB80188E00E940F0AB801D4
:1015700080E20E940F0AB80188E00E940F0A2197BA
:10158000F0E4C33ADF0709F070F782CFB80188E0D2
:101590000E940F0AB80180E20E940F0AB80188E099
:1015A0000E940F0A219780E4C33AD80709F008F493
:1015B0006FCFFE0131978081803241F769CFE09192
:1015C000F340F091F440CF0101968093F340909363
:1015D000F44080818A3021F41092F3401092F4405C
:1015E00090E002C08FEF9FEFDF91CF911F910F919D
:1015F000FF90EF900895CF93DF93E901209749F092
:101600009EE0EAE2F0E4D90101900D929A95E1F7AB
:101610000BC0E9EFF3E42AE230E422833383208332
:10162000318324833583E9010E94BA098C879D8721
:10163000CE01DF91CF9108955058BB27AA270E9471
:10164000340B0C948C0D0E94530D38F00E945A0DEF
:1016500020F039F49F3F19F426F40C94290D0EF470
:10166000E095E7FB0C94230DE92F0E94B10D58F390
:10167000BA17620773078407950720F079F4A6F577
:101680000C94D30D0EF4E0950B2EBA2FA02D0B0168
:10169000B90190010C01CA01A0011124FF27591BB7
:1016A00099F0593F50F4503E68F11A16F040A22FBD
:1016B000232F342F4427585FF3CF4695379527952E
:1016C000A795F0405395C9F77EF41F16BA0B620B2D
:1016D000730B840BBAF09150A1F0FF0FBB1F661F74
:1016E000771F881FC2F70EC0BA0F621F731F841FB7
:1016F00048F4879577956795B795F7959E3F08F0DD
:10170000B0CF9395880F08F09927EE0F979587959E
:1017100008950E94530D60F080E891E009F49EEF77
:101720000E945A0D28F040E851E071F45EEF0CC0C1
:101730000C94290D0C94D30DE92FE0780E94B10D83
:1017400040F3092E052AB1F3261737074807590732
:1017500038F00E2E07F8E02569F0E025E0640AC0B5
:10176000EF6307F8009407FADB01B9019D01DC0182
:10177000CA01AD01EF930E94170C0E948C0D0E94CC
:10178000CC0B5F91552339F02BED3FE049E450FD40
:1017900049EC0C941D0B0895DF93DD27B92FBF771B
:1017A00040E85FE31616170648075B0718F4D92FC1
:1017B0000E94DA0D9F938F937F936F930E94C10EC7
:1017C000E4EFF0E00E942C0D0E948C0D2F913F91D0
:1017D0004F915F910E94F50DDD2351F09058A2EAE0
:1017E0002AED3FE049EC5FE3D0785D270E94340B9F
:1017F000DF910C948C0D0E94630DE3950C949D0D6C
:101800000E94140C0C948C0D0E945A0D58F00E94EA
:10181000530D40F029F45F3F29F00C94230D511132
:101820000C94D40D0C94290D0E94B10D68F39923EA
:10183000B1F3552391F3951B550BBB27AA276217CC
:101840007307840738F09F5F5F4F220F331F441FD9
:10185000AA1FA9F335D00E2E3AF0E0E832D091500D
:101860005040E695001CCAF72BD0FE2F29D0660FFA
:10187000771F881FBB1F261737074807AB07B0E83D
:1018800009F0BB0B802DBF01FF2793585F4F3AF043
:101890009E3F510578F00C94230D0C94D40D5F3FBE
:1018A000E4F3983ED4F3869577956795B795F795C9
:1018B0009F5FC9F7880F911D9695879597F90895B1
:1018C000E1E0660F771F881FBB1F6217730784074D
:1018D000BA0720F0621B730B840BBA0BEE1F88F75C
:1018E000E09508950E94790C6894B1110C94D40D80
:1018F00008950E94B90D88F09F5798F0B92F992745
:10190000B751B0F0E1F0660F771F881F991F1AF0EA
:10191000BA95C9F714C0B13091F00E94D30DB1E06F
:1019200008950C94D30D672F782F8827B85F39F06E
:10193000B93FCCF3869577956795B395D9F73EF483
:1019400090958095709561957F4F8F4F9F4F08952B
:10195000E89409C097FB3EF4909580957095619549
:101960007F4F8F4F9F4F9923A9F0F92F96E9BB27FF
:101970009395F695879577956795B795F111F8CF7B
:10198000FAF4BB0F11F460FF1BC06F5F7F4F8F4FE6
:101990009F4F16C0882311F096E911C0772321F0DC
:1019A0009EE8872F762F05C0662371F096E8862F74
:1019B00070E060E02AF09A95660F771F881FDAF7CB
:1019C000880F9695879597F90895990FBB0B550F3A
:1019D000AA0BE0E8FEEF16161706E807F90770F005
:1019E00012161306E407F50760F0BA173CF049F445
:1019F0006217730784079507A7951BF4B901CA01FD
:101A0000BA2FB69597950895990FBB0B550FAA0B52
:101A1000E0E8FEEF16161706E807F90770F0121651
:101A20001306E407F50760F0BA1754F031F42617EF
:101A3000370748075907A7951BF4B901CA01BA2F00
:101A4000B6959795089597F99F6780E870E060E0F4
:101A500008959FEF80EC0895DF93CF931F930F932A
:101A6000FF92EF92DF927B018C01689406C0DA2E20
:101A7000EF010E94F50DFE01E894A59125913591A5
:101A800045915591A6F3EF010E94340BFE01970199
:101A9000A801DA9469F7DF90EF90FF900F911F9102
:101AA000CF91DF91089500240A94161617061806A0
:101AB0000906089500240A94121613061406050652
:101AC00008950C94290D0E94B90DD8F3E894E0E034
:101AD000BB279F57F0F02AED3FE049EC06C0EE0F20
:101AE000BB0F661F771F881F28F0B23A6207730783
:101AF000840728F0B25A620B730B840BE3959A9516
:101B000072F7803830F49A95BB0F661F771F881FD5
:101B1000D2F790480C94E20E092E0394000C11F4B5
:101B2000882352F0BB0F40F4BF2B11F460FF04C0B8
:101B30006F5F7F4F8F4F9F4F0895EF93E0FF07C078
:101B4000A2EA2AED3FE049EC5FEB0E94340B0E94D1
:101B50008C0D0F90039401FC9058E1E2F1E00C949D
:101B6000F50E57FD9058440F551F59F05F3F71F027
:101B70004795880F97FB991F61F09F3F79F08795F4
:101B80000895121613061406551FF2CF4695F1DF7D
:101B900008C0161617061806991FF1CF869571050D
:101BA000610508940895E894BB2766277727CB0141
:101BB00097F908959B01AC0160E070E080E89FE335
:101BC0000C94000C0E94F50D0C948C0D0E94530D8A
:101BD00038F00E945A0D20F0952311F00C94230D3B
:101BE0000C94290D11240C94D40D0E94B10D70F3A6
:101BF000959FC1F3950F50E0551F629FF001729FB2
:101C0000BB27F00DB11D639FAA27F00DB11DAA1FC0
:101C1000649F6627B00DA11D661F829F2227B00D0D
:101C2000A11D621F739FB00DA11D621F839FA00D98
:101C3000611D221F749F3327A00D611D231F849FE8
:101C4000600D211D822F762F6A2F11249F5750403F
:101C50009AF0F1F088234AF0EE0FFF1FBB1F661FBA
:101C6000771F881F91505040A9F79E3F510580F083
:101C70000C94230D0C94D40D5F3FE4F3983ED4F301
:101C8000869577956795B795F795E7959F5FC1F727
:101C9000FE2B880F911D9695879597F908950E94C0
:101CA000B90DE8F09E37E8F09639B8F49E3848F45C
:101CB000672F782F8827985FF9CF86957795679556
:101CC00093959539D0F3B62FB1706B0F711D811DAF
:101CD00020F487957795679593950C94C50E0C9491
:101CE000E00E0C94D40D9F930E94630D0F9007FC9F
:101CF000EE5F0C949D0D19F416F40C94290D0C94C0
:101D0000E00E0E94B90DB8F39923C9F3B6F39F57BB
:101D1000550B87FF0E94EE0E0024A0E640EA9001DA
:101D200080585695979528F4805C660F771F881F1A
:101D300020F026173707480730F4621B730B840B1B
:101D4000202931294A2BA69517940794202531255F
:101D50004A2758F7660F771F881F20F02617370786
:101D6000480730F4620B730B840B200D311D411DAD
:101D7000A09581F7B901842F9158880F9695879582
:101D800008959B01AC010C94E20D882371F4772334
:101D900021F09850872B762F07C0662311F49927DE
:101DA0000DC09051862B70E060E02AF09A95660F86
:101DB000771F881FDAF7880F9695879597F908950A
:101DC0009F3F31F0915020F4879577956795B795AF
:101DD000880F911D9695879597F9089591505040D9
:101DE000660F771F881FD2F708959F938F937F9375
:101DF0006F93FF93EF939B01AC010E94E20DEF9173
:101E0000FF910E942C0D2F913F914F915F910C9467
:101E1000E20DAA1BBB1B51E107C0AA1FBB1FA617DF
:101E2000B70710F0A61BB70B881F991F5A95A9F783
:101E300080959095BC01CD010895A1E21A2EAA1BB0
:101E4000BB1BFD010DC0AA1FBB1FEE1FFF1FA2176A
:101E5000B307E407F50720F0A21BB30BE40BF50B67
:101E6000661F771F881F991F1A9469F760957095F0
:101E7000809590959B01AC01BD01CF010895EF9233
:101E80000F931F93CF93DF93E80147FD02C034E027
:101E900001C034E1042E000C550B57FF03C05195CF
:101EA00041955109E32E022F242FAE010E94EF111C
:101EB000CE01DF91CF911F910F91EF9008958F92F6
:101EC0009F92AF92BF92CF92DF92EF92FF920F93C9
:101ED0001F93CF93DF935B014A017901D9011396D8
:101EE0002C9121FF1DC0C0E0D0E0C815D905D9F064
:101EF0008C016C01CA0CDB1CC8010C151D0571F0AE
:101F00000F5F1F4FD7011896ED91FC911997B701FC
:101F1000DC018C910995892B79F305C02196E5CFD9
:101F200080E090E001C0CE01DF91CF911F910F9131
:101F3000FF90EF90DF90CF90BF90AF909F908F90E9
:101F40000895CF93DF93CDB7DEB7AE014B5F5F4F00
:101F5000FA0161917191AF018091FB439091FC4333
:101F60000E94EB0FDF91CF9108956091FB43709138
:101F7000FC430C944E140F931F93CF93DF93E09187
:101F8000FB43F091FC43238121FF1BC08C01D0E077
:101F9000C0E0F80181918F016091FB437091FC4397
:101FA000DB011896ED91FC911997882331F0099582
:101FB000892B79F3DFEFCFEFECCF8AE00995892BFE
:101FC00019F08FEF9FEF02C08D2F9C2FDF91CF91E3
:101FD0001F910F9108952F923F924F925F926F92AF
:101FE0007F928F929F92AF92BF92CF92DF92EF92A9
:101FF000FF920F931F93CF93DF93CDB7DEB72B974D
:10200000CDBFDEBF6C017B018A01FC011682178205
:10201000838181FFCCC1CE0101963C01F601938101
:10202000F70193FD859193FF81917F01882309F446
:10203000BAC1853239F493FD859193FF81917F0177
:10204000853229F4B60190E00E944E14E7CF912C1E
:10205000212C312CFFE1F315D8F08B3279F038F4D4
:10206000803279F08332A1F4232D20611DC08D329E
:1020700061F0803369F4232D216016C0832D8260C6
:10208000382EE32DE4603E2E2AC0F32DF8601DC0EB
:1020900037FC2DC020ED280F2A3040F08E32B9F4E5
:1020A00036FC81C1232D2064322E19C036FE06C0B5
:1020B0008AE0989E200D1124922E11C0EAE02E9EF7
:1020C000200D1124222EF32DF0623F2E08C08C36F5
:1020D00021F4832D8068382E02C0883641F4F70140
:1020E00093FD859193FF81917F018111B3CF982F4B
:1020F0009F7D9554933028F40C5F1F4F9FE3998385
:102100000DC0833631F0833771F0833509F059C043
:1021100021C0F801808189830E5F1F4F882483943A
:10212000912C530113C02801F2E04F0E511CF8010D
:10213000A080B18036FE03C0692D70E002C06FEF51
:102140007FEFC5010E9443144C018201F32DFF77FC
:102150003F2E16C0280122E0420E511CF801A0803B
:10216000B18036FE03C0692D70E002C06FEF7FEFD3
:10217000C5010E9438144C01F32DF0683F2E8201F6
:1021800033FC1BC0822D90E088169906B0F4B6018E
:1021900080E290E00E944E142A94F4CFF50137FCBF
:1021A000859137FE81915F01B60190E00E944E1447
:1021B00021102A9421E0821A91088114910471F768
:1021C000E8C0843611F0893641F5F80137FE07C0C2
:1021D00060817181828193810C5F1F4F08C0608193
:1021E0007181072E000C880B990B0E5F1F4FF32D8A
:1021F000FF763F2E97FF09C0909580957095619569
:102200007F4F8F4F9F4FF0683F2E2AE030E0A301B1
:102210000E948A14882E861845C0853731F4232DF4
:102220002F7EB22E2AE030E025C0932D997FB92E63
:102230008F36C1F018F4883579F0B5C0803719F0C1
:10224000883721F0B0C0E92FE061BE2EB4FE0DC08A
:10225000FB2DF460BF2E09C034FE0AC0292F266072
:10226000B22E06C028E030E005C020E130E002C018
:1022700020E132E0F801B7FE07C060817181828100
:1022800093810C5F1F4F06C06081718180E090E0F8
:102290000E5F1F4FA3010E948A14882E8618FB2D03
:1022A000FF773F2E36FE0DC0232D2E7FA22E8914E0
:1022B00058F434FE0BC032FC09C0832D8E7EA82E4C
:1022C00005C0B82CA32C03C0B82C01C0B92CA4FEA7
:1022D0000FC0FE01E80DF11D8081803321F49A2D9D
:1022E000997EA92E09C0A2FE06C0B394B39404C07F
:1022F0008A2D867809F0B394A3FC11C0A0FE06C015
:10230000B21488F4280C922C9B180EC0B21460F4FE
:10231000B60180E290E00E944E14B394F7CFB2145D
:1023200018F42B1802C0982C212CA4FE10C0B60162
:1023300080E390E00E944E14A2FE17C0A1FC03C0EF
:1023400088E790E002C088E590E0B6010CC08A2DD5
:10235000867859F0A1FE02C08BE201C080E2A7FCA2
:102360008DE2B60190E00E944E14891438F4B60153
:1023700080E390E00E944E149A94F7CF8A94F30180
:10238000E80DF11D8081B60190E00E944E1481108D
:10239000F5CF222009F442CEB60180E290E00E94FF
:1023A0004E142A94F6CFF6018681978102C08FEFF2
:1023B0009FEF2B96CDBFDEBFDF91CF911F910F9185
:1023C000FF90EF90DF90CF90BF90AF909F908F9055
:1023D0007F906F905F904F903F902F9008958F92D5
:1023E0009F92AF92BF92CF92DF92EF92FF920F93A4
:1023F0001F93CF93DF93CDB7DEB72997CDBFDEBF55
:102400006A01122FB02E2BE3201720F0FF24F39443
:10241000F00E02C02CE3F22E0F2D27E0AE014F5F2D
:102420005F4F0E946013BC014981842F8970813005
:1024300031F0E1FC06C0E0FE06C090E205C09DE27E
:1024400003C09BE201C090E05E2D507143FF3CC091
:10245000911102C083E001C084E0811718F4212F9C
:10246000281B01C020E051110BC0F601822F30E281
:10247000882319F031938150FBCFC20ED11C20E08C
:10248000992329F0D6019C93F60131966F01C6017C
:102490000396E2FE0AC03EE4D6013C9341E4119665
:1024A0004C93119712963C9306C03EE6F60130839A
:1024B00041E641833283FC01322F40E2332309F4A9
:1024C00042C041933150FACF42FF44C0911102C043
:1024D00083E001C084E0811718F4212F281B01C07C
:1024E00020E051110BC0F601822F30E2882319F051
:1024F00031938150FBCFC20ED11C20E0992329F0EB
:10250000D6019C93F60131966F01C6010396E2FE57
:102510000BC039E4D6013C933EE411963C931197ED
:1025200036E412963C9307C039E6F60130833EE666
:10253000318336E63283FC01322F40E2332319F037
:1025400041933150FBCFFC01E20FF11D10828EEF61
:102550009FEFA6C021E030E0911102C020E030E002
:10256000161617061CF4FB01319602C0E1E0F0E0FC
:102570002E0F3F1FBB2021F0EB2DF0E0319602C063
:10258000E0E0F0E02E0F3F1FE12FF0E02E173F07B5
:102590001CF4121B212F01C020E08E2D887159F4EC
:1025A000F601822F30E2882319F031938150FBCF5E
:1025B000C20ED11C20E0992329F0D6019C93F6018C
:1025C00031966F0151110BC0F601822F90E38823E1
:1025D00019F091938150FBCFC20ED11C20E00F2D3A
:1025E000060F9A81342F307144FF03C0913309F4F0
:1025F0000150101624F4093018F008E001C001E081
:10260000AB0177FF02C040E050E0FB01E41BF50B9B
:10261000A1E0B0E0AC0FBD1FEA0FFB1F8EE2A82EB9
:102620004B01801A91080B2D10E0119501951109AD
:102630004F3FBFEF5B0721F4D601AC9211966D01BD
:10264000641775072CF08416950614F4818101C077
:1026500080E3415051093196D60111967D01401712
:10266000510724F0D6018C936701E2CF64177507F8
:1026700039F4963320F4953319F4311101C081E314
:10268000F6018083F701822F90E2882319F091935D
:102690008150FBCFF701E20FF11D108280E090E046
:1026A0002996CDBFDEBFDF91CF911F910F91FF9093
:1026B000EF90DF90CF90BF90AF909F908F90089554
:1026C000283008F027E03327DA01990F311D87FD04
:1026D000916000966105710539F432602E5F3D937B
:1026E00030E32A95E1F708959F3F30F08038710577
:1026F000610509F03C5F3C5F3D93913008F08068D4
:10270000911DDF93CF931F930F93FF92EF92192F99
:10271000987F9695E92F96959695E90FFF27E656AF
:10272000FE4F99273327EE24FF24A701E7010590E8
:102730000894079428F4360FE71EF81E491F511D10
:10274000660F771F881F991F0694A1F705900794BD
:1027500028F4E70EF81E491F561FC11D770F881F6A
:10276000991F661F0694A1F70590079428F4F80EA8
:10277000491F561FC71FD11D880F991F661F771F3E
:102780000694A1F70590079420F4490F561FC71F20
:10279000D81F990F661F771F881F0694A9F7849189
:1027A0001095177041F0D695C79557954795F794B2
:1027B000E7941A95C1F7E0E4F1E06894159015915B
:1027C00035916591959105907FE27395E118F10A35
:1027D000430B560BC90BD009C0F7E10CF11E431F88
:1027E000561FC91FD01D7EF4703311F48A95E6CFB1
:1027F000E894015030F0080F0AF40027021708F49B
:10280000202F2395022F7A3328F079E37D932A95A0
:10281000E9F710C07D932A9589F6069497956795F8
:10282000379517951794E118F10A430B560BC90B0E
:10283000D00998F023957E9173957A3308F070E370
:102840007C932013B8F77E9170617D9330F083956F
:1028500071E37D9370E32A95E1F71124EF90FF90E7
:102860000F911F91CF91DF91992787FD9095089542
:10287000FC010590615070400110D8F7809590954B
:102880008E0F9F1F0895FC01615070400190011050
:10289000D8F7809590958E0F9F1F08950F931F93E3
:1028A000CF93DF93FB01238121FD03C08FEF9FEFC7
:1028B0002CC022FF16C046815781248135814217E2
:1028C000530744F4A081B1819D012F5F3F4F2083C6
:1028D00031838C93268137812F5F3F4F2683378347
:1028E00014C08B01EC01FB010084F185E02D0995FA
:1028F000892BE1F6D80116968D919C911797019638
:1029000016968D939C931797CE01DF91CF911F91CF
:102910000F910895FA01AA27283051F1203181F151
:10292000E8946F936E7F6E5F7F4F8F4F9F4FAF4FD7
:10293000B1E03ED0B4E03CD0670F781F891F9A1FEA
:10294000A11D680F791F8A1F911DA11D6A0F711D9E
:10295000811D911DA11D20D009F468943F912AE0AA
:10296000269F11243019305D3193DEF6CF01089592
:10297000462F4770405D4193B3E00FD0C9F7F6CFC3
:10298000462F4F70405D4A3318F0495D31FD40528B
:10299000419302D0A9F7EACFB4E0A6959795879521
:1029A00077956795BA95C9F7009761057105089500
:1029B0009B01AC010A2E06945795479537952795AC
:1029C000BA95C9F7620F731F841F951FA01D089544
:0429D000F894FFCFA9
:1029D4000102010402264023401D401A4017401101
:1029E40040000000FFFFFFFF000000FF000000FFA9
:1029F400FF00FFFFFF0000FFFFFF000000030000D7
:102A040000000F0A380A0000256325632563256347
:102A14002563256325632563007472696764006513
:102A24006E64206F6620696E69742066756E6374C7
:102A3400696F6E7300524157583A2573097C090037
:102A44005241575A3A2573097C09004144433A25B7
:0E2A540073097C09002A72696E672A0A000065
:00000001FF
