S01200004C61625F546573745F312E7372656374
S11300000C947A000C9484000C9484000C94840066
S11300100C9484000C9484000C9484000C9484004C
S11300200C9484000C9484000C9484000C9484003C
S11300300C9484000C9484000C9484000C9484002C
S11300400C9484000C9484000C9484000C9484001C
S11300500C9484000C9484000C9484000C9484000C
S11300600C9484000C9484000C9484000C948400FC
S11300700C9484000C9484000C9484000C948400EC
S11300800C9484000C9484000C9484000C948400DC
S11300900C9484000C9484000C9484000C948400CC
S11300A00C9484000C9484000C9484000C948400BC
S11300B00C9484000C9484000C9484000C948400AC
S11300C00C9484000C9484000C9484000C9484009C
S11300D00C9484000C9484000C9484000C9484008C
S11300E00C9484000C9484000C9484000C9484007C
S11300F00C94840011241FBECFEFCDBFDFE7DEBF19
S11301000E9401010C94E4020C940000CF92DF924F
S1130110EF92FF92CF93DF936B017C01C0E0D0E0BC
S113012007C087EE93E00197F1F700C00000219625
S1130130BE010D2E000C880B990B0E94C701A7016C
S113014096010E944E01882364F3DF91CF91FF90C2
S1130150EF90DF90CF900895CF92DF92EF92FF92CD
S11301600F931F93CF93DF93D82EC62EC0E0D0E019
S11301703CC000E614E0F80184818D298483EC2CD2
S1130180F12CB7010F2C000C880B990B0E94C701AE
S113019020E030E04AE753E40E94770220E030E0B8
S11301A048EC52E40E9453010E948600F8018481C5
S11301B09D2D90958923848364E670E06E197F09F0
S11301C0072E000C880B990B0E94C70120E030E039
S11301D04AE753E40E94770220E030E048EC52E41E
S11301E00E9453010E9486002196C430D1050CF26E
S11301F0DF91CF911F910F91FF90EF90DF90CF90FF
S11302000895E0E6F4E08FEF80831482E0E2F4E006
S113021082898860828B1082D12C00E0D0E0C4E017
S113022011E00F2EF2E3EF2EF12CF02D8091280433
S113023085FD07C0D11006C01195DD0FDD24D394D0
S113024001C0D12C8091280482FD1AC0011119C06B
S113025089E1E816F10429F082E3E816F10461F477
S113026006C00F2EF2E3EF2EF12CF02D05C00F2E59
S1130270F9E1EF2EF12CF02DDD0FD16001E001C08A
S113028000E08D2F8F708D3019F4D0E0C0E011E0C4
S11302906E2D8C2F0E94AC00C10FC8CF0E940202A9
S11302A008F481E008950E9467010C943D020E94C5
S11302B0360258F00E942F0240F029F45F3F29F0E3
S11302C00C94260251110C9471020C942C020E947D
S11302D04E0268F39923B1F3552391F3951B550B03
S11302E0BB27AA2762177307840738F09F5F5F4F05
S11302F0220F331F441FAA1FA9F335D00E2E3AF044
S1130300E0E832D091505040E695001CCAF72BD05B
S1130310FE2F29D0660F771F881FBB1F26173707AC
S11303204807AB07B0E809F0BB0B802DBF01FF27DE
S113033093585F4F3AF09E3F510578F00C94260293
S11303400C9471025F3FE4F3983ED4F3869577955D
S11303506795B795F7959F5FC9F7880F911D969597
S1130360879597F90895E1E0660F771F881FBB1FF3
S1130370621773078407BA0720F0621B730B840BA0
S1130380BA0BEE1F88F7E0950895E89409C097FB2F
S11303903EF490958095709561957F4F8F4F9F4F58
S11303A09923A9F0F92F96E9BB279395F69587959C
S11303B077956795B795F111F8CFFAF4BB0F11F45F
S11303C060FF1BC06F5F7F4F8F4F9F4F16C0882306
S11303D011F096E911C0772321F09EE8872F762F3C
S11303E005C0662371F096E8862F70E060E02AF07D
S11303F09A95660F771F881FDAF7880F9695879569
S113040097F90895990F0008550FAA0BE0E8FEEF3D
S113041016161706E807F907C0F012161306E407C4
S1130420F50798F0621B730B840B950B39F40A26BD
S113043061F0232B242B252B21F408950A2609F49B
S1130440A140A6958FEF811D811D089597F99F679F
S113045080E870E060E008959FEF80EC0895002448
S11304600A941616170618060906089500240A9415
S113047012161306140605060895092E0394000C9B
S113048011F4882352F0BB0F40F4BF2B11F460FF2A
S113049004C06F5F7F4F8F4F9F4F089557FD905853
S11304A0440F551F59F05F3F71F04795880F97FB34
S11304B0991F61F09F3F79F08795089512161306EE
S11304C01406551FF2CF4695F1DF08C0161617061D
S11304D01806991FF1CF8695710561050894089552
S11304E0E894BB2766277727CB0197F908950E94E4
S11304F08A020C943D020E942F0238F00E943602B8
S113050020F0952311F00C9426020C942C02112453
S11305100C9471020E944E0270F3959FC1F3950FE3
S113052050E0551F629FF001729FBB27F00DB11D73
S1130530639FAA27F00DB11DAA1F649F6627B00D03
S1130540A11D661F829F2227B00DA11D621F739FEC
S1130550B00DA11D621F839FA00D611D221F749FFA
S11305603327A00D611D231F849F600D211D822F41
S1130570762F6A2F11249F5750409AF0F1F0882368
S11305804AF0EE0FFF1FBB1F661F771F881F915095
S11305905040A9F79E3F510580F00C9426020C941C
S11305A071025F3FE4F3983ED4F38695779567959F
S11305B0B795F795E7959F5FC1F7FE2B880F911DBF
S10F05C09695879597F90895F894FFCF5D
S9030000FC
