:100000000C94CC000C94E3000C94E3000C94E300FB
:100010000C94E3000C94E3000C94E3000C94E300D4
:100020000C94E3000C94E3000C94E3000C94E300C4
:100030000C94E3000C94E3000C94E3000C94E300B4
:100040000C94E3000C94E3000C94E3000C94E300A4
:100050000C94E3000C94E3000C94E3000C94E30094
:100060000C94E3000C94E3000C94E3000C94E30084
:100070000C94E3000C94E3000C94E3000C94E30074
:100080000C94E3000C94E3000C94E3000C94E30064
:100090000C94E3000C94E3000C94E3000C94E30054
:1000A0000C94E3000C94E3000C94E3000C94E30044
:1000B0000C94E3000C94E3000C94E3000C94E30034
:1000C0000C94E3000C94E3000C94E3000C94E30024
:1000D0000C94E3000C94E3000C94E3000C94E30014
:1000E0000C94E3000C94E3000C94E3000C94E30004
:1000F0000C94E300426C616E6B2F56697369626CFD
:10010000650000536869667420526967687420331B
:1001100000005368696674204C65667420352020A1
:10012000200000476F746F20312C362F5374726992
:100130006E670000437572736F72204C65667420A1
:10014000340000437572736F7220526967687420BF
:10015000310000437572736F7220486F6D65000047
:10016000437572736F7220426C696E6B0000437549
:1001700072736F72204F66660000437572736F7200
:10018000204F6E0000436C656172202000005465B2
:100190007374696E6700000011241FBECFEFCDBFDE
:1001A000DFE7DEBF10E4A0E0B0E4ECEDF7E000E054
:1001B0000BBF02C007900D92A631B107D9F70E947C
:1001C00081020C94EC030C940000E0E0F9E08481DF
:1001D000836084830895CF93DF93D82FC62F8D2F0C
:1001E00090E0880F991F8C2B80930709C11102C0E2
:1001F00026E001C027E08091050990E0022E02C0B0
:10020000959587950A94E2F780FFF5CF80910509CF
:1002100084FD0E94E500809105098C7001F7DF9153
:10022000CF910895809308098091050986FFFCCF3E
:10023000809105098C7019F08FEF9FEF089580E091
:1002400090E00895CF93DF93D62FC42F60E00E94F3
:10025000EB008D2F0E9412018C2F0E9412010E9430
:10026000E500DF91CF910895E0E0F9E083E2868335
:100270008381816083838581816085830895482F90
:1002800060E88EE30E9422010895482F60E48EE327
:100290000E94220108950E94340140E06FE28BE643
:1002A0000E94220187EC90E00197F1F700C0000066
:1002B00040E260E08BE60E94220187EC90E001972B
:1002C000F1F700C000004FEF64E08BE60E942201CE
:1002D00087EC90E00197F1F700C0000040E067E094
:1002E0008BE60E9422018FE59AEE0197F1F700C09C
:1002F00000008CE00E943F0195E39A95F1F7000021
:1003000088E30E943F0185E38A95F1F7000081E0D0
:100310000E943F018FE39FE10197F1F700C00000C9
:1003200086E00E943F0108950E944501089581E002
:100330000E943F018FE39FE10197F1F700C00000A9
:10034000089582E00E943F018FE39FE10197F1F75A
:1003500000C0000008950F931F93CF93DF938C018B
:10036000C0E0D0E007C00E94940185EE8A95F1F7C5
:1003700000002196F801EC0FFD1F80818111F3CF61
:10038000DF91CF911F910F910895611102C0806894
:1003900001C0806C0E943F0108950F931F93CF937B
:1003A000DF938C01862F642F0E94C501F801849190
:1003B000C1E0D0E007C00E949401F801EC0FFD1FDE
:1003C000849121968111F7CF0E94A101DF91CF91F5
:1003D0001F910F9108951F93CF93DF93182FC0E0C3
:1003E000D0E008C08CE10E943F0185ED8A95F1F7CD
:1003F00000002196812F90E0C817D9079CF3DF9168
:10040000CF911F9108951F93CF93DF93182FC0E0D2
:10041000D0E008C088E10E943F0185ED8A95F1F7A0
:1004200000002196812F90E0C817D9079CF3DF9137
:10043000CF911F9108958EE00E943F0185ED8A952E
:10044000F1F7000008958FE00E943F0185ED8A9545
:10045000F1F7000008958CE00E943F0185ED8A9538
:10046000F1F70000089588E00E943F0185ED8A952C
:10047000F1F7000008958CE00E943F0185ED8A9518
:10048000F1F7000008951F93CF93DF93182FC0E07A
:10049000D0E008C080E10E943F0185ED8A95F1F728
:1004A00000002196812F90E0C817D9079CF3DF91B7
:1004B000CF911F9108951F93CF93DF93182FC0E022
:1004C000D0E008C084E10E943F0185ED8A95F1F7F4
:1004D00000002196812F90E0C817D9079CF3DF9187
:1004E000CF911F91089588ED84BFE0E6F0E095E09C
:1004F00090A384BF83E080838091650084FFFCCF5C
:1005000008950E9473020E944B0140E060E08EE873
:1005100091E00E94CD012FEF87EA91E621508040C3
:100520009040E1F700C0000040E060E085E891E025
:100530000E94CD012FEF87EA91E621508040904044
:10054000E1F700C000000E9497012FEF87EA91E6D3
:10055000215080409040E1F700C0000040E060E0A2
:100560008AE791E00E94CD012FEF87EA91E62150C2
:1005700080409040E1F700C000000E941B022FEF76
:1005800087EA91E6215080409040E1F700C00000EA
:1005900040E060E08EE691E00E94CD012FEF87EA17
:1005A00091E6215080409040E1F700C000000E9499
:1005B0002B022FEF87EA91E6215080409040E1F72F
:1005C00000C000000E94970140E060E080E691E0FA
:1005D0000E94CD012FEF87EA91E6215080409040A4
:1005E000E1F700C000000E9423022FEF87EA91E6A6
:1005F000215080409040E1F700C000000E94970128
:1006000040E060E083E591E00E94CD012FEF87EAB2
:1006100091E6215080409040E1F700C000000E9428
:10062000A1012FEF87EA91E6215080409040E1F749
:1006300000C000000E9497010E94230240E060E099
:1006400083E491E00E94CD012FEF87EA91E62150EB
:1006500080409040E1F700C0000081E00E945B0212
:100660002FEF87EA91E6215080409040E1F700C0EB
:1006700000000E94970140E060E084E391E00E9466
:10068000CD012FEF87EA91E6215080409040E1F7BD
:1006900000C0000084E00E9443022FEF87EA91E649
:1006A000215080409040E1F700C0000040E060E051
:1006B00083E291E00E94CD010E942B022FEF87EA96
:1006C00091E6215080409040E1F700C0000061E0D9
:1006D00086E00E94C50180E090E40E94AB012FEF0C
:1006E00087EA91E6215080409040E1F700C0000089
:1006F00040E060E082E191E00E94CD012FEF87EAC7
:1007000091E6215080409040E1F700C0000060E099
:1007100080E00E94C50188E090E40E94AB0160E0A7
:1007200080E00E94C50185E00E9403022FEF87EA66
:1007300091E6215080409040E1F700C0000040E089
:1007400065E083E091E00E94CD012FEF87EA91E61A
:10075000215080409040E1F700C0000060E085E05B
:100760000E94C50187E090E40E94AB0183E00E94F3
:10077000EB012FEF87EA91E6215080409040E1F7AE
:1007800000C000000E94970140E060E084EF90E02C
:100790000E94CD012FEF87EA91E6215080409040E2
:1007A000E1F700C000000E9433022FEF87EA91E6D4
:1007B000215080409040E1F700C000000E943B02C1
:1007C0002FEF87EA91E6215080409040E1F700C08A
:0C07D00000000E94970199CEF894FFCF22
:1007DC00737472696E670020202020202020202056
:0607EC0020202020000087
:00000001FF
